:0600000002006B02266FF6
:03000B000229685F
:030013000226C200
:01001B0032B2
:030023000225D7DC
:03002B00022CE0C4
:01003300329A
:03003B0002271584
:03004300022598FB
:01004B003282
:030053000226235F
:01005B003272
:03006300022BFF6E
:0300660002276905
:02006900E4733E
:0D006B00758145122F54E582600302006686
:100078007934E94400601B7A01903356783F75A0C3
:1000880002E493F2A308B8000205A0D9F4DAF275E5
:02009800A0FFC7
:06009A00E478FFF6D8FD3A
:1000A0007800E84400600A790A75A001E4F309D8F1
:1000B000FC7835E84401600C790290010AE4F0A371
:0400C000D8FCD9FA95
:0700C40090017FE4F0A3F0BE
:0E00CC007808E4F608F608F608F6780C7600D8
:0200DA00C2055D
:0200DC00C2065A
:0300DE00020066B7
:0600E2000200E80200EE3E
:0900E80012026D0213E60215C7B5
:1000F20075D30074FC55D24402F5D2900241E4F06B
:100102002230DE1190000AE0FFBF010990000BE0EF
:10011200FF900243F022AFF0AE83E58290010BF034
:10012200EEA3F0EFA3F07E007F00900241E060209A
:100132000EBE00010F900005C007C006122AD6D0DD
:1001420006D007C3EE9450EF94C340DE75820022BE
:1001520090010BE0FDA3E0FEA3E0FF90010AE0FCAA
:100162007B00C3EB9C5035C0048B017A007440299C
:10017200F9E43AFAE9240AF510EA3400F511EB2D14
:10018200F8E43EFA8F0488828A838CF0122D5AF8A2
:10019200851082851183F00BD00480C68CD3900227
:1001A200417401F053D2FC7582012275D50074FCB2
:1001B20055D44402F5D4900242E4F02230DE0F908E
:1001C20001C47420F090008A75F000021D5A22AF1B
:1001D200F0AE83E58290010FF0EEA3F0EFA3F07E84
:1001E200007F00900242E060200EBE00010F9000EE
:1001F20005C007C006122AD6D006D007C3EE945017
:10020200EF94C340DE7582002290010FE0FDA3E06F
:10021200FEA3E0FF90010EE0FC7B00C3EB9C503597
:10022200C0048B017A00744029F9E43AFAE9248A7D
:10023200F512EA3400F513EB2DF8E43EFA8F048848
:10024200828A838CF0122D5AF8851282851383F0EC
:100252000BD00480C68CD59002427401F053D4FCBA
:1002620075820122900243E0F5822212077712077B
:0E027200A112079075DD0075D30075D500222E
:10028000AFDBBF0802800302063C900007E0FE7F60
:1002900000900006E0FD7C004FF514EC4EF5157F54
:1002A00000900001E0F516900244E4F0900000E0B8
:1002B000FE546060057FFF02063EE51624F45003FD
:1002C000020638E516240B83F582E516241083F523
:1002D00083E4731A4838083812EB381F3C3E3E0658
:1002E0000406050604020604040606900003E0FE68
:1002F000BE01028012BE02028018BE0302801EBE32
:10030000220280660203A27517717518307F1202EF
:1003100003A47517837518307F490203A490000267
:10032000E070087517667518318034900002E0FEA1
:10033000BE01087517A07518318024900002E0FEF8
:10034000BE020875178C7518318014900002E0FE0B
:10035000BE030875176A75183180047FFF804585D4
:100360001782851883E493FF803A900002E0702E94
:10037000900004E0700E7517CC75183090309CE436
:1003800093FF8020900004E0FEBE010E75174475B7
:1003900018319030BCE493FF800A7FFF80067FFF16
:1003A00080027FFFBFFF0302063E8F057E00C3ED84
:1003B0009514EE951550048D148E15AD14AE15C31D
:1003C000ED9408EE9400920040067B087C008004C7
:1003D000AB14AC158B077C00C3EC9F50198C027BCF
:1003E00000EC2517F582E43518F583E493F98A8249
:1003F0008B83F00C80E28F037C00EDC39BFDEE9CB1
:10040000FE8D148E15EF2517F517E43518F5180233
:10041000063E900002E0FE8E1475150002063E9026
:100420000112E0900000F0AD14AE15C3ED9401EEA2
:100430009400500302063E7F0102063E900002E057
:10044000FE900112F002063E900000E0541F702F53
:10045000900003E0FD7E00900002E0FC7B0042067D
:10046000EB4205BE0114BD001190308AE493FE30CA
:10047000E50302063E7FFF02063E7FFF02063E9036
:100480000000E0FE53061F7D00BE0277BD007490A1
:100490000004E0FEBE0102805FBE02028049BE038E
:1004A000028033BE0402801DBE81028040BE8202F3
:1004B000802ABE83028014BE844474BC55DE44028C
:1004C000F5DE02063E53DE7302063E74BC55D6448A
:1004D00002F5D602063E53D67302063E74BC55D4CE
:1004E0004402F5D402063E53D47302063E74BC5552
:1004F000D24402F5D202063E53D27302063E7FFF7B
:1005000002063E7FFF02063E900000E0541F702F5F
:10051000900003E0FD7E00900002E0FC7B004206BC
:10052000EB4205BE0114BD001190308AE493FE3009
:10053000E50302063E7FFF02063E7FFF02063E9075
:100540000000E0FE53061F7D00BE0205BD000280D4
:1005500003020616900003E0FD7E00900002E0FC1E
:100560007B004206EB4205EE4D600302061290004E
:1005700005E0FD7E00900004E0FC7B004206EB42BB
:1005800005BE0106BD0003020606BE0205BD00024F
:100590008060BE0305BD00028044BE0405BD0002AC
:1005A0008028BE8105BD00028052BE8205BD0002CA
:1005B0008036BE8305BD0002801ABE8451BD004E48
:1005C00074BF55DE4403F5DE8074747F55DE440C41
:1005D000F5DE806A74BF55D64403F5D68060747F1B
:1005E00055D6440CF5D6805674BF55D44403F5D483
:1005F000804C747F55D4440CF5D4804274BF55D2DE
:100600004403F5D28038747F55D2440CF5D27FFF75
:10061000802C7FFF80287FFF8024900000E4F090F2
:100620000001F0AD14AE15C3ED9402EE9400400449
:100630007F02800AAF1480067FFF80027FFFBFFF2A
:10064000077516FF75DCCF22EF24F740068FDD75A6
:10065000DCC02275DD0075DCC0227405B516028091
:100660005D7406B51666AE14AF15C3EE9408EF942C
:1006700000920140067C087D008004AC14AD157D1D
:1006800000C3ED9C50198D027B00ED2517F582E427
:100690003518F583E493F98A828B83F00D80E28C20
:1006A000037D00EEC39BFEEF9DFF8E148F15EC259E
:1006B00017F517E43518F5188CDD63DC4022E5E307
:1006C0005480FFE5144FF5E375DC022275DD0075FB
:1006D000DC022275DD0043DC022220D90302075030
:1006E000E5D9540FFFADD95305307E00BD0005BEDE
:1006F00000028018BD1005BE00028052BD2005BE5C
:1007000000028026BD3047BE0044803CBF0002800E
:100710000ABF0102800ABF0235800A1206D3802E6A
:1007200012010380291201BE8024BF0002800ABF8B
:100730000102800ABF0217800A12065A80101200B6
:10074000F2800B1201AD8006BF0003120280C2D9F5
:1007500030D81775DC0275D21275D41275E300C259
:10076000DAC2D9C2D8900112E4F010DA0122E5DA37
:1007700020E20375D8FF2275E20053E27F43E229AD
:1007800075E30053E2BF53D1FB75D18043D1012201
:1007900043E10443E10243E10143D81FD2EAD2AF6F
:1007A000227E007F008EEC8FED7E0A7F008EEE8F22
:1007B000EF7E8A7F008EE48FE575D21275D41275B4
:0907C000EAC075EB0C75DC0222A5
:1007CA001229E8AC82AD83AEF0FF900245ECF0ED61
:1007DA00A3F0EEA3F0EFA3F0220207E61229E8AC99
:1007EA0082AD83AEF0FF900245E0F8A3E0F9A3E002
:1007FA00FAA3E0FBECC398FCED99FDEE9AFEEF9BA1
:10080A008C828D838EF022AF82AE83ADF0FC900194
:10081A0013EFF0EEA3F0EDA3F0ECA3F01207E6ACB1
:10082A0082AD83AEF0FF900113E0F8A3E0F9A3E0F4
:10083A00FAA3E0FBECC398FCED99FDEE9AFEEF9B60
:07084A008C828D838EF022E9
:1008520090011CE06003120C2D9001EB7417F074F0
:1008620001A3F0E4A3F09001EE7406F0E4A3F0908B
:10087200011D75F0001228F4900121E07001229010
:10088200011D75F000121992E5827001227D957E9C
:10089200017F009001EB741DF07401A3F0E4A3F05A
:1008A2009001EE7402F0E4A3F08D828E838FF01239
:1008B20028F475E025C0E075E001C0E075E000C0F5
:1008C200E01215CE1581158115819001EB7425F08A
:1008D2007401A3F0E4A3F09001EE7402F0E4A3F03B
:1008E20090012375F0001228F47D277E017F00908D
:1008F20001EB741DF07401A3F0E4A3F09001EE7417
:1009020006F0E4A3F08D828E838FF01228F47D2D01
:100912007E017F009001EB7423F07401A3F0E4A345
:10092200F09001EE7402F0E4A3F08D828E838FF0DA
:100932001228F402093890012EE0C4540FFF600C13
:10094200BF01028007BF04030209DD2290012EE0ED
:1009520054F0700990012EE0540FFF800B90012E8D
:10096200E0540FFEC454F0FF90012CE06034EF60BD
:100972002890012DE0FEBEE000400990012DE0FE2E
:100982002418500690012DE070078F82120BEF8021
:10099200058F82120C0E120B8A90012DE0F5820255
:1009A2000A2890012DE0F582C007120AC1D007EF94
:1009B20070012290012DE0FEBEE000400990012D61
:1009C200E0FE2418500690012DE070078F82120B72
:1009D200FE80058F82120C1D020B8A90012EE0030D
:1009E200035403FF6005BF013C801D90012CE060B1
:1009F2000C90012DE0FEA3E05403FF80047E007FF3
:100A0200008E828F8302228290012CE0600C900182
:100A12002DE0FEA3E05403FF80047E007F008E825F
:100A22008F830222CB22E58290012FF0E0FF70013A
:100A320022BF0400402FEF245B402A9001D9EFF03F
:100A420090013275F000C007122378E582D007606A
:100A5200088F82120B76120B8A90012FE0F5821218
:100A62000B62020B8A90012FE0FFBFE000401DEFF6
:100A72002418401874075FF5F005F0740180022510
:100A8200E0D5F0FBF582120BEF020B8A90012FE00A
:100A9200FFBFA500400FEF2458400A8F821224E3C3
:100AA200AF8302228290012FE0FFBFA800400FEF28
:100AB200243D400A8F8212250AAF830222CB22E50F
:100AC20082900130F0E0FF700122BF0400400DEF80
:100AD200245B40088F82120B76020B8A900130E071
:100AE200FFBFE000401DEF2418401874075FF5F0C7
:100AF20005F07401800225E0D5F0FBF582120BFEB1
:100B0200020B8A900130E0FFBFA500400BEF245892
:100B12004006900000022282900130E0FFBFA80050
:100B2200400BEF243D40069000000222CB22E582DA
:100B3200900131F0E0FFF582C007120A28D007BF0A
:100B4200390B900050E4F5F0122A2580099000003C
:0F0B5200E4F5F0122A25900131E0F582020AC184
:100B6200E58290013BF0E09001DDF090013275F0FA
:100B7200000223C6E58290013CF0E09001E2F09091
:100B8200013275F000022463900249E0FF900133C4
:100B9200F090024AE04207900133EFF09001F474C2
:100BA2003DF07401A3F0E4A3F09001F77409F0E4BE
:100BB200A3F090013275F000122C01E5828583F0DA
:100BC20045F060289001EB7432F07401A3F0E4A3C5
:100BD200F09001EE7409F0E4A3F090013D75F0008D
:100BE2001228F490013275F00002231722E5829058
:100BF2000146F0E0FF900249E04FF022E5829001C9
:100C020047F0E0F4FF900249E05FF022E5829001B4
:100C120048F0E0FF90024AE04FF022E5829001495D
:100C2200F0E0F4FF90024AE05FF02290024AE4F022
:010C3200229F
:100C3400AFF0AE83E582900153F0EEA3F0EFA3F0A2
:100C4400900156E4F0900152E0601E90024B740152
:100C5400F01207E6AC82AD83AEF0FF90014AECF0EF
:100C6400EDA3F0EEA3F0EFA3F090024BE0700302CB
:100C74000D3A90014AE0FCA3E0FDA3E0FEA3E08C62
:100C8400828D838EF0120811AC82AD83AEF0FFC367
:100C9400EC9405ED9400EE9400EF94005003020DE3
:100CA4003A90014EE0FDA3E0FEA3E0FF8D1C8E1DF3
:100CB4008F1E900153E0F519A3E0F51AA3E0F51B8C
:100CC400A819A91AAC1B900151E0FA7B009001F419
:100CD400E8F0E9A3F0ECA3F09001F7EAF0EBA3F05D
:100CE400851C82851D83851EF0C007C006C005C013
:100CF40003C002122C01E5828583F0D002D003D018
:100D040005D006D00745F06028A819A91AAC1B9095
:100D140001EBE8F0E9A3F0ECA3F09001EEEAF0EBCC
:100D2400A3F08D828E838FF01228F4900156740103
:0D0D3400F090024BE4F0900156E0F58222B1
:100D4200E582900158F0E0C40354F8FF0F90015778
:100D5200E025E02FFFF582C007122588AE82D0077A
:100D62008E057E000F8F82C006C005122588AF82D5
:100D7200D005D006E4FCEF2EFEEC3D8E82F58322F8
:100D8200E58290015CF0E0C40354F8FF0F90015932
:100D9200E025E02FFF90015AE0FDA3E0FE9001E87C
:100DA200F08F82C007C006C005122552D005D006BA
:100DB200D0070F9001E8EDF08F82022552E5829074
:100DC200015EF0E025E025E0242DFF90015DE0FECC
:100DD200E060067C007D0080047C027D008F05ECD3
:100DE2002DF582C007C006122588AD82D006D00735
:100DF2008D047D00EE60067B007E0080047B027E17
:100E020000EB2F04F582C005C004122588AF82D002
:100E120004D0057E00EF4205EE42048D828C8322CF
:100E2200E582900162F0E025E025E0242DFF9001AB
:100E32005FE0FEE060067C007D0080047C027D00B5
:100E42008F05EC2DFC900160E0FBA3E0FD9001E832
:100E5200F08C82C007C006C005C003122552D00321
:100E6200D005D006D007EE60067C007E0080047CB0
:100E7200027E00EC2F04FF9001E8EBF08F82022546
:100E8200527F00BF05005051EFFE75F008A42445C3
:100E9200FC743035F0FD7B00BB04005039EB2B2C89
:100EA200F582E43DF583E493F9A3E493FA900159C2
:100EB200EBF090015AE9F0EAA3F08E82C007C00677
:100EC200C005C004C003120D82D003D004D005D0E7
:100ED20006D0070B80C20F80AA7F00BF0100505DC1
:100EE200EF75F004A4246DFD743035F0FE8D828E12
:100EF20083E493FBA3E493FC90015F7401F09001FF
:100F020060EBF0ECA3F08F82C007C006C005120EA2
:100F120022D005D006D0078D828E83A3A3E493FD51
:100F2200A3E493FE90015FE4F0900160EDF0EEA384
:100F3200F08F82C007120E22D0070F809E227F0000
:100F4200BF530050178F06742D2EFE9001E8E4F077
:100F52008E82C007122552D0070F80E422E58290CC
:100F62000163F075827F122588E58260012290017B
:100F720064742DF0900163E0FF7E2DEF6023BE804C
:100F820001228E82C007C006122588E582D006D0D3
:100F92000770061F900163EFF00E900164EEF0807F
:100FA200DA900165E4F0900166F0900167F090013B
:100FB20068F0900169F090016AF090016BF0900185
:100FC2006CF0900164E0FF04F08F82122588AF82FA
:100FD200900165EFF0900166E4F0EF70012290015C
:100FE20065E0FFBF010280030210A5900164E0FFEB
:100FF20004F08F82122588AF82900166EFF0EF70C5
:101002000122900166E0FFBF01028012900166E0BA
:10101200FFBF02028008900166E0FFBF031F90013C
:1010220064E0FF04F08F82122588AF82900167EF9F
:10103200F0EF700122900168E4F00210A5900166C1
:10104200E0FFBF045E7F02900164E0FEEF2465FCD6
:10105200E43401FD8E030E900164EEF08B82C00732
:10106200C006C005C004122588AB82D004D005D0CA
:1010720006D0078C828D83EBF0EB7001228C828D7F
:1010820083E0FCBC7C168F050DED3395E0FCED246E
:1010920065F582EC3401F583E4F08007BF06012296
:1010A2000F80A99001B7E4F090016575F000121A63
:1010B20000020FC47F00BF01005039EF244CF582BB
:1010C200E43402F583E0FE9001E97402F08E82C0FE
:1010D20007122778D007EF244DF582E43402F58316
:1010E200E0FE9001E97402F08E82C007122778D0E8
:1010F200070F80C2900064122AD67F00BF01005001
:1011020056EF245EFDE43402FEEF244CF582E43413
:1011120002F583E0F582C007C006C00512282FAC95
:1011220082D005D006D007EF244DF582E43402F5D3
:1011320083E0F582C007C006C005C00412282FABA9
:1011420082D004D005D006D007EB2BFB42048D825F
:101152008E83ECF00F80A522E58290016EF0900163
:101162006FE4F090017074FDF090016EE0FF900169
:101172006FF0900170E4F0900171F0A3F0900173B0
:10118200F090017404F0C0071207E3AD82AE83D081
:1011920007900171EDF0EEA3F09001737402F090EC
:1011A2000174E4F0900175F090017674FCF0900106
:1011B20075EFF0900176E4F0900177F0A3F09001E2
:1011C20079F090017A04F01207E3AE82AF839001C6
:1011D20077EEF0EFA3F09001797403F090017AE4D6
:1011E200F090016DE0FFE060067D6F7E0180047D7E
:1011F200757E017A177B017C009001EBEDF0EEA386
:10120200F0E4A3F09001EE7406F0E4A3F08A828B7E
:10121200838CF0C0071228F4D007C007120852903E
:10122200000AE4F5F0122A25D007900174E4F09048
:10123200017AF0EF60067E6F7F0180047E757F0188
:101242007B177C017D009001EBEEF0EFA3F0E4A3AD
:10125200F09001EE7406F0E4A3F08B828C838DF0A3
:101262001228F412085290000AE4F5F0022A25E549
:101272008290017CF090017DE4F090017CE0FF24FB
:101282005FFDE43402FE8D828E83E0FC90017BE000
:10129200FB53030F7A00EB244EF582EA3402F58306
:1012A200E02CFC8D828E83F0C3EC64809484402D0C
:1012B200EF2460FBE43402FC8B828C83E0FA0A8B1D
:1012C200828C83EAF090017D7401F090016DE4F06C
:1012D2008F82C006C00512115AD005D0068D828EAB
:1012E20083E0FF3395E0FCC374FC9F747F8CF06352
:1012F200F08095F0403090017CE0FF2460FBE43404
:1013020002FC8B828C83E0FA1A8B828C83EAF09047
:10131200017D7401F090016DF08F82C006C005124C
:10132200115AD005D0068D828E83E0A2E754036065
:1013320004500244FC8D828E83F090017DE0F582A0
:101342002290017EE4F07F00BF010040030213DE21
:10135200EF244CF582E43402F583E0F582C00712F3
:10136200282FAE82D007EF244DF582E43402F583B4
:10137200E0F582C007C00612282FAD82D006D00742
:10138200ED2D4206EF245EFCE43402FD8C828D8357
:10139200E0FBF95301037A00C0078E007F00E9B534
:1013A2000008EAB50704D007802ED007EB2B25E012
:1013B2008C828D83F08C828D83E042068C828D83B9
:1013C200EEF090017BEEF08F82C007121271AE82B6
:1013D200D00790017EE04EF00F02134A90017EE0AA
:0313E200F582226F
:1013E6001207CA1218A3121CEA0210B61207E3AEBD
:1013F60082AF8390017FE0FCA3E0FDEEC39CFCEF8F
:101406009D4C700122900181E4F0900182F09001E0
:1014160081F0900182F0900183F0A3F0900185F0B5
:10142600900186F0C007C0061207E3AC82AD839038
:101436000183ECF0EDA3F0900185E4F0900186F0D5
:101446007B177C017D009001EB7481F07401A3F0A1
:10145600E4A3F09001EE7406F0E4A3F08B828C8393
:101466008DF01228F4D006D007C007C00612085225
:10147600D006D00790017FEEF0EFA3F0221218C934
:1014860090018CE4F07F00BF0500503190018CE0A4
:10149600FEE07029EF2487F582E43401F583E0FD50
:1014A600EF24A0F582E43401F583E0FC6205EE4208
:1014B6000590018CED24FFE433F00F80CA90018C77
:1014C600E0FFE0700AC0071213F2D0078F82227F76
:1014D60000BF050040030215C0EF24A0F582E434E6
:1014E60001F583E0FE90018DF0EF2487F582E43468
:1014F60001F583E0FDEE6205ED70030215BC900177
:101506008E7401F08F047B00BB040040030215AA11
:1015160090018EE0FA5D700302159EEE5202EA24F7
:10152600FFE433FA900190ECF090018FEBF090011C
:1015360094EAF0C007C006C005C004C0031207E362
:10154600A982AA83900191E9F0EAA3F0900193742D
:1015560001F0781779017A009001EB748FF074012D
:10156600A3F0E4A3F09001EE7406F0E4A3F0888201
:1015760089838AF01228F4D003D004D005D006D08F
:1015860007C007C006C005C004C003120852D00336
:10159600D004D005D006D0070B90018EE025E0FAE6
:1015A600F002150EEF2487FDE43401FE90018DE074
:1015B600FC8D828E83F00F0214D790018CE0F582A9
:0715C60022121483021343FB
:1015CE007D997E017F009001EB7495F07401A3F07C
:1015DE00E4A3F09001EE7402F0E4A3F08D828E830A
:1015EE008FF01228F41216F9AE82AF838E048F0597
:1015FE00C3EC9404ED9400400774A49CE49D501039
:10160E00C3EC94E0ED9400401274E79CE49D400B13
:10161E00900197EEF0EFA3F00216B9C3EC94A5ED8E
:10162E009400401F74A79CE49D40188E038B821279
:10163E0024E3AA82AB83430340900197EAF0EBA325
:10164E00F08068C3EC94A8ED9400401F74C29CE433
:10165E009D40188E038B8212250AAA82AB83430308
:10166E0044900197EAF0EBA3F08040BC010EBD0060
:10167E000B9001977401F0E4A3F0802F74FF2D50AE
:10168E0023C374FF9C741F9D401A8F0653061F8E32
:10169E0007E4FEFDEC4206ED4207900197EEF0EFF7
:1016AE00A3F08007900197E4F0A3F0900197E0C0BB
:1016BE0082C083C0E0E58124F9F88682088683081B
:1016CE0086F0D0E0122B46D083D082A3E0C082C039
:1016DE0083C0E0E58124F9F886820886830886F0C7
:1016EE00A3D0E0122B46D083D0822290019AE0FF45
:1016FE00BF05005014900199E0FEBE0400500A9000
:10170E000157EEF08F82020D42BFFD15900199E058
:10171E00FEBE0100500B90015D7401F08E82020D31
:10172E00BFBFFC14900199E0FFBF0100500A900169
:10173E005DE4F08F82020DBF90000022E5829001E1
:10174E00A5F0E0FF9001E97401F08F82C007122727
:10175E0078D0079001EAE4F08F8202287FE582902C
:10176E0001A6F0E0FF9001EA7401F08F82C007122B
:10177E00287FD0079001E97402F08F82022778E566
:10178E00829001A7F0E0F58212282FE5827004FE08
:10179E00FF80047E017F008E82227F00BF040050F6
:1017AE0011EF9031B193F582C00712176BD0070F6E
:1017BE0080EA7F00BF05005011EF9031AC93F582A7
:1017CE00C00712176BD0070F80EA22AFF0AE83E589
:1017DE00829001AAF0EEA3F0EFA3F09001A8E0240E
:1017EE00B1F527E43431F528852782852883E493E3
:1017FE00F58212174A90000A122AD69001AAE0FB2F
:10180E00A3E0FCA3E0FD9001A9E0FAF4F5258B22FC
:10181E008C238D248A267800B805005065E8903117
:10182E00AC93F582C005C004C003C00012178DE54D
:10183E0082D000D003D004D0057024E82522F9E42C
:10184E003523FEAF2489828E838FF0122D5AFAE54E
:10185E0026420289828E838FF0EA122B468020E880
:10186E002BF9E43CFA8D0789828A838FF0122D5A68
:10187E00FEE525520689828A838FF0EE122B4608EA
:10188E008096852782852883E493F58212176B90C4
:10189E00001E022AD61217A87F00BF0500501BEFAC
:1018AE0024A0F582E43401F583E4F0EF249BF58265
:1018BE00E43401F583E4F00F80E0229001ADE4F012
:1018CE009001AEF09001AFF09001B0F09001B1F048
:1018DE009001B204F07F00BF0400502A9001B2E0E4
:1018EE00FE9001A8EFF09001A9EEF09001AD75F019
:1018FE0000C007C0061217D9D006D0070FEE2EFE75
:10190E009001B2F080D19001F474ADF07401A3F0A7
:10191E00E4A3F09001F77405F0E4A3F090019B7539
:10192E00F000122C01AE82AF83EE4FB40100920292
:10193E009001B3B3E433F09001B3E0FFE060239085
:10194E0001EB74ADF07401A3F0E4A3F09001EE741A
:10195E0005F0E4A3F090019B75F000C0071228F487
:10196E00D00790014E74A0F07401A3F0E4A3F090A0
:10197E0001517405F0900152EFF090019B75F0004B
:03198E00020C3414
:10199200AFF0AE83E5829001B4F0EEA3F0EFA3F0D6
:1019A2009001B4E0FDA3E0FEA3E0FF7A997B017C05
:1019B200009001EBEDF0EEA3F0EFA3F09001EE74D6
:1019C20002F0E4A3F08A828B838CF01228F41216C0
:1019D200F9AE82AF839001B4E0FBA3E0FCA3E0FD8B
:1019E2009001BFEBF0ECA3F0EDA3F08E828F831297
:0D19F2001D0BE5827003F582227582012233
:101A0000AFF0AE83E5829001B8F0EEA3F0EFA3F063
:101A10009001B7E0FF9001B8E0FCA3E0FDA3E0FE79
:101A20008C828D838EF0122D5AFB700122BB010235
:101A30008003021BD99001B874012CF0E43DA3F09F
:101A4000EEA3F09001B8E0FCA3E0FDA3E0FE8C82E1
:101A50008D838EF0122D5AFABA01028013BA020257
:101A6000803CBA03028065BA0403021AFA021BE240
:101A70009001B874012CF0E43DA3F0EEA3F09001C6
:101A8000B8E0F8A3E0F9A3E0FA888289838AF0122B
:101A90002D5AF582C007120B30D007021BE29001CD
:101AA000B874012CF0E43DA3F0EEA3F09001B8E08F
:101AB000F8A3E0F9A3E0FA888289838AF0122D5A0C
:101AC000F582C007120A28D007021BE29001B87401
:101AD000012CF0E43DA3F0EEA3F09001B8E0F8A3F0
:101AE000E0F9A3E0FA888289838AF0122D5AF58200
:101AF000C007120AC1D007021BE29001BBE4F0A3A9
:101B0000F09001B8042CF0E43DA3F0EEA3F09001B6
:101B1000B8E0FCA3E0FDA3E0FE8C828D838EF01282
:101B20002D5AFA9001BDF09001BDE0FABA30009252
:101B300003406FEA24C692034068C0079001BBE0EF
:101B4000F9A3E0FAC007C006C005C004C001C00286
:101B500090000A122B61A982AA8315811581D004F5
:101B6000D005D006D0079001BDE07F0024D0F8EF6B
:101B700034FFFFE829F9EF3AFA9001BBE9F0EAA354
:101B8000F00CBC00010D9001B8ECF0EDA3F0EEA359
:101B9000F08C828D838EF0122D5A9001BDF0D0070B
:101BA00080859001B8ECF0EDA3F0EEA3F09001BBBE
:101BB000E0FDA3E0FE8D028E041DBDFF011EEA4C78
:101BC0006020900001E4F5F0C007C006C005122AAD
:101BD00025D005D006D00780DC8B82C007121C0CF4
:101BE000D0079001B8E02401F0A3E03400F08F06A4
:101BF0008E051EED7003021A15900001E4F5F0C089
:101C000007C006122A25D006D00780E4E58290019D
:101C1000BEF0E0FF9031E593FE7D00C007C006C036
:101C2000057408C0E0E4C0E08F828D83122E92AB71
:101C300082AC8315811581D005D006D007EB24B581
:101C4000F582EC3431F583E493FA5307078FF005FE
:101C5000F0EA8002C313D5F0FB5401F529EB24C54B
:101C6000F582EC3431F583E493FA8FF005F0EA80E5
:101C700002C313D5F0FB5401F52AEB24D5F582EC11
:101C80003431F583E493FC8FF005F0EC8002C3134C
:101C9000D5F0FB5401FFE529600E7582E1C007C055
:101CA00006120A28D006D007E52A600E7582E6C023
:101CB00007C006120A28D006D0078E82C007120B72
:101CC00030D007E52A600A7582E6C007120AC1D043
:101CD00007E529600A7582E1C007120AC1D007EF43
:091CE000600675822C020B302213
:101CEA00758200122588AF82BF5A0122021CF9129E
:101CFA000E83120F409001E8745AF0758200022593
:101D0A0052AF83E5829001C2F0EFA3F09001BFE0E9
:101D1A00FDA3E0FEA3E0FF74052DFDE43EFE8D82E7
:101D2A008E838FF0122D5A60239001C2E0FEA3E049
:101D3A00FF8E048F0574892D5012C3747F9C7477AB
:101D4A009D40098E82120F5F7582002275820122E0
:101D5A00AFF0AE83E5829001C5F0EEA3F0EFA3F0F9
:101D6A009001C5E0F52BA3E0F52CA3E0F52D740155
:101D7A00252BFAE4352CFBAC2D852B82852C83850B
:101D8A002DF0122D5AF924EA5003022257E9240AA7
:101D9A0083F582E9241A83F583E47357D16565F4E0
:101DAA005FD4656565DA57E0EE12A7393F4DE172F7
:101DBA00DF221D22221D1E1E2222221E221E1E1F5D
:101DCA001F2020202021218A828B838CF0E4122B71
:101DDA00467402252BF8E4352CF9AF2D88828983C5
:101DEA008FF0740C122B460222657402252BFDE437
:101DFA00352CFEAF2D8D828E838FF0122D5AFD74F5
:101E0A0003252BF9E4352CFEAF2D89828E838FF0C2
:101E1A00122D5A900157F08D82120D42AE82AF8375
:101E2A007404252BF52EE4352CF52F852D308F05DE
:101E3A00852E82852F838530F0ED122B4674052579
:101E4A002BF8E4352CF9AD2D888289838DF0EE12BA
:101E5A002B460222657402252BFDE4352CFEAF2D9C
:101E6A008D828E838FF0122D5AF5317403252BF94A
:101E7A00E4352CFEAF2D89828E838FF0122D5AF510
:101E8A002E7404252BF8E4352CFEAF2D88828E8320
:101E9A008FF0122D5AFF78007405252BF9E4352CA2
:101EAA00FDAE2D89828D838EF0122D5A7E0042005E
:101EBA00EE4207900159E52EF090015AE8F0EFA39F
:101ECA00F0853182120D82022265120E830222658A
:101EDA00121CF90222658A828B838CF07405122BFC
:101EEA00460222658A828B838CF0E4122B467402A6
:101EFA00252BFDE4352CFEAF2D79538D828E838FF1
:101F0A00F0E9122B460222657402252BF532E435DC
:101F1A002CF533852D347403252BF52EE4352CF559
:101F2A002F852D307900852E82852F838530F012FA
:101F3A002D5AF8C3E998400302226589007F00748C
:101F4A000328F8E43FFFE82AF8EF3BFF8C068532C6
:101F5A00828533838534F0122D5A242DFDC002C0A8
:101F6A0003C0048904EC2DF582C007C006C004C072
:101F7A0003C002C001C000122588AD82D000D00182
:101F8A00D002D003D004D006D00788828F838EF087
:101F9A00ED122B4609D004D003D0028089740225A1
:101FAA002BFDE4352CFEAF2D7403252BF532E435D9
:101FBA002CF533852D347900853282853383853437
:101FCA00F0122D5AF8C3E99840030222658D828ED9
:101FDA00838FF0122D5A242DF8C005C006C0078938
:101FEA0007EF28F889067F0074032EFEE43FFFEE10
:101FFA002AFEEF3BFF8C058E828F838DF0122D5ABD
:10200A00FE9001E8F08882C007C006C005C004C07F
:10201A0003C002C001122552D001D002D003D0045D
:10202A00D005D006D00709D007D006D0058089127E
:10203A000F400222658A828B838CF07401122B4630
:10204A000222657402252BF52EE4352CF52F852DF9
:10205A00307403252BF532E4352CF533852D34798C
:10206A00008532828533838534F0122D5AF8C3E90C
:10207A0098400302226589007F00740328F8E43F30
:10208A00FFE82AF8EF3BFF8C06852E82852F838591
:10209A0030F0122D5AFD0DC002C003C0048904ECB1
:1020AA002DF582C007C006C004C003C002C001C02B
:1020BA0000122588AD82D000D001D002D003D0040E
:1020CA00D006D00788828F838EF0ED122B4609D076
:1020DA0004D003D002808A7402252BFDE4352CFE3D
:1020EA00AF2D7403252BF532E4352CF533852D34C9
:1020FA0079008532828533838534F0122D5AF8C3EC
:10210A00E99840030222658D828E838FF0122D5A40
:10211A00F808C005C006C0078907EF28F889067FB6
:10212A000074032EFEE43FFFEE2AFEEF3BFF8C0510
:10213A008E828F838DF0122D5AFE9001E8F08882EC
:10214A00C007C006C005C004C003C002C0011225F2
:10215A0052D001D002D003D004D005D006D007094E
:10216A00D007D006D005808A7402252BFDE4352CD1
:10217A00FEAF2D8D828E838FF0122D5AFD740325AA
:10218A002BFCE4352CFEAF2D8C828E838FF0122D22
:10219A005AB40100920490015DB3E433F08D8212C7
:1021AA000DBFAE82AF837404252BFBE4352CFCAD46
:1021BA002D8F028B828C838DF0EA122B46740525B3
:1021CA002BFBE4352CFCAD2D8B828C838DF0EE122B
:1021DA002B460222657402252BFDE4352CFEAF2D19
:1021EA008D828E838FF0122D5AFD7403252BFCE409
:1021FA00352CFEAF2D8C828E838FF0122D5AB401AE
:10220A0000B392047404252BFCE4352CFEAF2D8C0C
:10221A00828E838FF0122D5AFF7C007405252BFACB
:10222A00E4352CFBAE2D8A828B838EF0122D5A7EDA
:10223A00004204EE420790015FA204E433F09001E9
:10224A0060ECF0EFA3F08D82120E22800E852B82B5
:10225A00852C83852DF074FF122B469001C5E0FD75
:10226A00A3E0FEA3E0FF9001C4E09001D5F08D82C7
:07227A008E838FF002234C5C
:10228200AF83E5829001C8F0EFA3F09001C8E0FEB1
:10229200A3E0FF900261E0FCA3E0FDEEB50405EFD0
:1022A200B5050122900261EEF0EFA3F09001CA742D
:1022B20002F09001CBEEF0EFA3F090010A7404F06B
:1022C2009001CA75F000020118AF83E5829001CD3A
:1022D200F0EFA3F09001CDE0FEA3E0FF900263E0F7
:1022E200FCA3E0FDEEB50405EFB505012290026303
:1022F200EEF0EFA3F09001CF7403F09001D0EEF076
:10230200EFA3F090010A7404F09001CF75F000027F
:102312000118020266AFF0AE83E5829001D2F0EEC0
:10232200A3F0EFA3F09001D2E0FDA3E0FEA3E0FF53
:102332008D828E838FF07401122B4690010A7409EC
:10234200F08D828E838FF0020118AFF0AE83E582AA
:102352009001D6F0EEA3F0EFA3F09001D6E0FDA33A
:10236200E0FEA3E0FF9001D5E090010EF08D828E99
:06237200838FF00201D18F
:10237800AFF0AE83E5829001DAF0EEA3F0EFA3F0C0
:102388009001DAE0FDA3E0FEA3E0FF74032DFDE475
:102398003EFE9001D9E0FC7B00BB0600501CEB2DF3
:1023A800F8E43EF98F02888289838AF0122D5AF860
:1023B800B50404758201220B80DF75820022AFF01C
:1023C800AE83E5829001DEF0EEA3F0EFA3F090017A
:1023D800E174FFF09001DDE0FF7E00BE0600505082
:1023E8009001DEE0FBA3E0FCA3E0FD74032BF8E41E
:1023F8003CF98D02EE28F8E439F9888289838AF05D
:10240800122D5AF8B50701229001E1E0FABAFF1D32
:1024180074032BFBE43CFCEE2BFBE43CFC8B828C32
:10242800838DF0122D5A70059001E1EEF00E80AB0D
:102438009001E1E0FEBEFF01229001DEE0FBA3E097
:10244800FCA3E0FD74032BFBE43CFCEE2BFBE43C1B
:10245800FC8B828C838DF0EF022B46AFF0AE83E5C8
:10246800829001E3F0EEA3F0EFA3F09001E3E0FD2A
:10247800A3E0FEA3E0FF74032DF541E43EF5428F8F
:10248800439001E2E0F97800B80600504DC005C05D
:1024980006C007E82541FDE43542FEAF438D828E34
:1024A800838FF0122D5AFDB501028008D007D0069F
:1024B800D0058023D007D006D005C00174032DF9BC
:1024C800E43EFB8F04E829F9E43BFB89828B838C8B
:1024D800F0E4122B46D0010880AE22E5829001E696
:1024E800F0E0FFBFA502800ABFA6028009BFA70EC1
:1024F8008008900081229000822290008322900020
:102508000022E5829001E7F0E0FF7E00BE1B00504C
:1025180034EE75F003A4FCADF02465F582ED343299
:10252800F583E493FBEFB50319EC2465FCED343235
:10253800FD8C828D83A3E493FCA3E493FD8C828DB0
:0925480083220E80C790000022DE
:10255200AF82BF800040012275A15575A1AA43B187
:102562000475A1007585C0EF2FF5849001E8E0F5B0
:102572008EE58630E60375869A75A15575A1AA5334
:10258200B1FB75A10022AF827585C0EF2FF584756E
:06259200868E858E822278
:10259800C021C0E0C0F0C082C083C007C006C0052B
:1025A800C004C003C002C001C000C0D075D0001272
:1025B80006DAD0D0D000D001D002D003D004D005A4
:1025C800D006D007D083D082D0F0D0E0D02132C05E
:1025D80021C0E0C0F0C082C083C007C006C005C0EB
:1025E80004C003C002C001C000C0D075D00030983C
:1025F80005122D76C298309905122DB6C299D0D001
:10260800D000D001D002D003D004D005D006D00726
:10261800D083D082D0F0D0E0D02132C021C0E0C039
:10262800F0C082C083C007C006C005C004C003C094
:1026380002C001C000C0D075D00030C005122E0401
:10264800C2C030C105122E44C2C1D0D0D000D001C2
:10265800D002D003D004D005D006D007D083D082D2
:10266800D0F0D0E0D02132C021C0E0C0F0C082C09C
:1026780083C007C006C005C004C003C002C001C0B3
:1026880000C0D075D000900267E0FEA3E0FFC0074D
:10269800C0068E828F83120069D006D007D0D0D0B2
:1026A80000D001D002D003D004D005D006D007D086
:1026B80083D082D0F0D0E0D02132C021C0E0C0F079
:1026C800C082C083C007C006C005C004C003C002E2
:1026D800C001C000C0D075D000900269E0FEA3E040
:1026E800FFC007C0068E828F83120069D006D0070C
:1026F800D0D0D000D001D002D003D004D005D0066D
:10270800D007D083D082D0F0D0E0D02132C021C011
:10271800E0C0F0C082C083C007C006C005C004C0C6
:1027280003C002C001C000C0D075D000900265E0AF
:10273800FEA3E04E600E900265E0F8A3E0F5838802
:1027480082120069D0D0D000D001D002D003D004CA
:10275800D005D006D007D083D082D0F0D0E0D021E9
:1027680032122B111200E21200E580FB7582002262
:10277800E582FF90330693FEEF9032DE93FF7001FF
:10278800229001E9E0FD701BBF0209EEF4FC5292B1
:10279800EC529322BF0402800122EEF4FC5296EC24
:1027A800529722BD0214BF0207EE4292EE429322D4
:1027B800BF0439EE4296EE429722BD0116BF0208C9
:1027C800EEF45292EE429322BF0421EEF45296EEBA
:1027D800429722BD0316BF0208EE4292EEF45293CE
:1027E80022BF0408EE4296EEF4FE529722AF82BF53
:1027F8000102800FBF02028013BF03028017BF04CB
:1028080025801BE5C620E21E539DFB22E5C620E37A
:1028180015539DF722E5C630E20C539DFB22E5C611
:1028280030E303539DF722E582FF9032B693FEEF23
:1028380090330693FDEF9032DE93FF7003F582220A
:10284800EE600D8E82C007C0051227F5D005D007AF
:102858007E00BF0202800ABF03028009BF040C8009
:1028680008AE908006AEA08002AEB0ED5E60047542
:1028780082012275820022E582FF9032B693FEEF34
:1028880090330693FDEF9032DE93FFEE600D8E825B
:10289800C007C0051227F5D005D007A2AFE433FE64
:1028A800C2AFBF0202800ABF03028017BF0436808E
:1028B800249001EAE07007EDF4FF52908027ED4282
:1028C8009080229001EAE07007EDF4FF52A0801595
:1028D800ED42A080109001EAE07007EDF4FF52B0DD
:0B28E8008003ED42B0EE6002D2AF2290
:1028F400AFF0AE83E5829001F0F0EEA3F0EFA3F029
:102904009001F0E0F541A3E0F542A3E0F543AA41CC
:10291400AB42AC439001EBE0F8A3E0F9A3E0FF90F5
:1029240001EEE0F544A3E0F545AD44AE451544742D
:10293400FFB544021545ED4E6020888289838FF0EF
:10294400122D5AFEA3A882A9838A828B838CF0EE6F
:10295400122B46A3AA82AB8380CF85418285428312
:042964008543F02295
:10296800C0D075D00808B8000D09B900090ABA0026
:10297800050BBB00010CD0D032A2AFC2AFA808A98A
:1029880009AA0AAB0BAC8A8588F092AF30F51274AD
:10299800012C600D08B8000909B900050ABA000140
:1029A8000BC3EC9406FCECC313FC75F07DE8A4F8AB
:1029B800ADF075F07DE9A42DF9E435F0FD75F07DF5
:1029C800EAA42DFAE435F0FD75F07DEBA42DFB7D2E
:1029D80000EC28F582E93DF583EA3DF5F0EB3D2270
:1029E800A2AFC2AFA808A909AA0AAB0BAC0C92AF58
:1029F80075F020E8A4A8F075F020E9A428F582A8CD
:102A0800F075F020EAA428F583A8F075F020EBA46F
:102A180028F9A8F075F020ECA42889F022858235E1
:102A280085833685F037F538122981858239858383
:102A38003A85F03BF53CE535453645374538700174
:102A480022A835A936AA37AB3885393D853A3E855F
:102A58003B3F853C40E8494A4B60DBC003C002C0AD
:102A680001C000122981AC82AD83AEF0FFD000D046
:102A780001D002D003ECC3953DFCED953EFDEE95EB
:102A88003FFEEF9540FFC3EC94E8ED9403EE94000D
:102A9800EF940040A118B8FF0919B9FF051ABAFF49
:102AA800011B883589368A378B3874E8253DF53D12
:102AB8007403353EF53EE4353FF53FE43540F540D7
:102AC800853D39853E3A853F3B85403C8087AE82CF
:102AD800AF83C374019EE49F40022200C374029E28
:102AE800FE74009FFF00BE0005BF00020022000028
:102AF8000000000000000000000000000000000EC0
:102B0800BE00EB0FBF00ED002275A15575A1AA7498
:102B1800F855B94406F5B975A100901388122AD65C
:102B2800759E5D759D0074F055894402F58953C9F9
:0D2B3800EF758C06C28DD2A9D28CD2AF22CF
:102B460020F71130F6138883A88220F509F6A883AA
:102B56007583002280FEF280F5F022C01F85811F5A
:102B6600C082C083E5812405F581AF1F0FE51F24D0
:102B760003F8A607087600087640E51F24FCFD7ECC
:102B8600007F40E51F2406F9A81F088604E51F24D8
:102B9600FCF886038CF0EBA4F709A7F0E51F2406E2
:102BA60004F98704A81F08860374012DFAE43EFE83
:102BB6008A828E838FF0122D5A8BF0A4FBE51F2498
:102BC60003F8740126FDE40836FE0886078D828E1A
:102BD600838FF0122D5AFDE51F24FCF886078DF031
:102BE600EFA42B2CF7E51F2406F987060987078E25
:0A2BF600828F83851F81D01F2232D9
:102C0100AFF0AE83E5829001F9F0EEA3F0EFA3F00F
:102C11009001F7E0FEA3E0FF9001F7E0F5F0A3E0FB
:102C210045F07004900000221EBEFF011FEE4F60B0
:102C310075C006C0079001F9E0FBA3E0FCA3E0FD2D
:102C41008B008C018D02888289838AF0122D5AF8BB
:102C51009001F4E0F541A3E0F542A3E0F543A94179
:102C6100AA42AF4389828A838FF0122D5AF9E8B5BF
:102C710001028006D007D006802CD007D0060BBBFE
:102C810000010C9001F9EBF0ECA3F0EDA3F0AB41E6
:102C9100AC42AD430BBB00010C9001F4EBF0ECA393
:102CA100F0EDA3F080829001F9E0FDA3E0FEA3E046
:102CB100FF8D828E838FF0122D5AFD7F009001F4DB
:102CC100E0FBA3E0FCA3E0FE8B828C838EF0122D4F
:102CD1005AFB7E00EDC39BFDEF9E8D82F583223270
:102CE20022AF82BF0200503EEF75F002A42467FDBE
:102CF200740235F0FE9001FCE0FBA3E0FC8D828EB5
:102D020083EBF0ECA3F0BF00028005BF0118800B3B
:102D12009001FEE024FF9288D2A8229001FEE0FFFB
:102D220024FF928AD2AA22AF82BF02005028BF009B
:102D3200028005BF01088004C2A88002C2AAEF7502
:102D4200F002A42467FE740235F0FF8E828F837432
:072D5200E2F0742CA3F02253
:102D5A0020F71430F6148883A88220F507E6A883A2
:0C2D6A0075830022E280F7E49322E0224F
:102D760090026BE0FF7E000FBF00010E7410C0E0F2
:102D8600E4C0E08F828E83122F58AE8215811581A2
:102D960090026CE0FFEEB507012290026BE024FF83
:102DA600F582E43401F583E599F090026BEEF022AA
:102DB60030054A90026DE0FF90026EE0FEEFB50628
:102DC60005A205C2052290026EE0240FF582E434C6
:102DD60002F583E0F59990026EE0FF7E000FBF00DA
:102DE600010E7410C0E0E4C0E08F828E83122F586B
:0E2DF600AE82AF831581158190026EEEF02241
:102E040090026FE0FF7E000FBF00010E7410C0E05F
:102E1400E4C0E08F828E83122F58AE821581158113
:102E2400900270E0FFEEB507012290026FE0241FCC
:102E3400F582E43402F583E5C1F090026FEEF022EE
:102E440030064A900271E0FF900272E0FEEFB50690
:102E540005A206C20622900272E0242FF582E43411
:102E640002F583E0F5C1900272E0FF7E000FBF001F
:102E7400010E7410C0E0E4C0E08F828E83122F58DC
:0E2E8400AE82AF8315811581900272EEF022AE
:102E9200C01F85811FAE82E583FF33E433FD6009E5
:102EA200C3E49EFBE49FFC80048E038F04E51F2491
:102EB200FCF808E633E433FF600FE51F24FCF8C397
:102EC200E496FA08E496FE800AE51F24FCF88602DE
:102ED200088606C007C005C002C0068B828C83121A
:102EE2002F08AC82AE8315811581D005D007EF6D16
:102EF200600DC3E49CFDE49EFF8D828F8380048C71
:102F0200828E83D01F22C01F85811FAE82AF837C39
:102F1200007D007B10EF235401FAEE2EFEEF33FF0B
:102F2200EC2CFCED33FDEA6003430401E51F24FCB5
:102F3200F8C3EC96ED08964010E51F24FCF8ECC3AC
:102F420096FCED0896FD430601DBCA8E828F83D084
:102F52001F2275820022C01F85811FAE82E583FF7A
:102F620033E433FD6009C3E49EFBE49FFC80048EDE
:102F7200038F04E51F24FCF808E630E70FE51F2461
:102F8200FCF8C3E496FE08E496FF800AE51F24FCE1
:102F9200F88606088607C005C006C0078B828C83A8
:102FA200122FC6AE82AF8315811581D005ED600D5B
:102FB200C3E49EFCE49FFD8C828D8380048E828F0D
:102FC20083D01F22C01F85811FAE82AF837D007C0C
:102FD20000E51F24FCF808E6235401FB702FE51FCF
:102FE20024FCF8E626F608E633F6E51F24FCF8C3CF
:102FF200EE96EF08965011E51F24FCF808E618C378
:1030020013C613C608F680050C8C0580C4E51F2480
:10301200FCF8C3EE96EF0896400DE51F24FCF8EE8F
:10302200C396FEEF0896FFE51F24FCF808E618C3D6
:1030320013C613C608F68D041DEC70D18E828F83E1
:03304200D01F227A
:1030450053005400550056005F00600061005700B2
:103055005C005D005E00000059005A005B00000046
:0C3065006200630058000000DA00D9008F
:103071001201100100000008625217520100010202
:1030810003010902490002010080640904000002F1
:1030910003010100092110012101227800070581A6
:1030A100030900010705010309000A0904010002DF
:1030B10003000000092110010001222200070582FE
:1030C1000320000A0705020320000A05010906A1E1
:1030D100018501050719E029E71500250195087506
:1030E1000181029501750881039506750815002671
:1030F100FF000507190029E78100050819012905C5
:10310100150025019505750191029501750391033E
:10311100C005010980A101850219012AB700150125
:1031210026B700950175108100C0050C0901A101A8
:10313100850319012AA002150126A0029501751027
:103141008100C00660FF0961A1010962150026FF27
:10315100009520750881060963150026FF0095205A
:1031610075089183C0040309041A0343004800351C
:10317100003500780051004D004B004C006900748F
:1031810000650052005000310037000A0352005020
:10319100003100370052006F0062006900740004C2
:0B31A1000352006F0062006900740020
:0931AC00200E22210B1E1F111040
:1031B500000000007E0F00D4FFFFFFC7000000786D
:1031C50000000000000000000000000000000000FA
:1031D50000000000000000000000000000000000EA
:1031E50000000000000000002A2B2800000000005D
:1031F50000000000000000000000002900000000A1
:103205002C1E3420212224342627252E362D37380E
:10321500271E1F202122232425263333362E373817
:103225001F0405060708090A0B0C0D0E0F101112D5
:10323500131415161718191A1B1C1D2F3130232DA1
:10324500350405060708090A0B0C0D0E0F1011129F
:10325500131415161718191A1B1C1D2F3130354C50
:10326500A8E200A9E900AAEA00ABB500ACB600BB2C
:10327500B300BCB400ADB700B0CC00AECD00AF8399
:1032850001B18A01B29201B39401BF9F01C0CB0184
:10329500B42102B52302B62402B72502B82602B925
:1032A5002702BD6F00BE7000BA2A02C19F02C2A0EC
:0132B5000216
:1032B6000000000000000000000000000000000107
:1032C60000000000000000000000000000000304F1
:1032D60000000200000000000101010101010101DE
:1032E60000000202020202020202000003030303BC
:1032F600030303030000040404040404040400009C
:103306000102040810204080000001020408102079
:1033160040800000010204081020408000000102E5
:103326000408102040800000FFFFFFFFFFFFFFFFA3
:10333600FFFFFF00FFFF0102FFFFFFFFFFFFFFFF91
:10334600FFFFFFFFFFFFFFFF03FFFFFFFFFFFFFF83
:023356006927E5
:0333580000000072
:01335B000071
:04335C00000000006D
:0233600000006B
:01336200006A
:103363000C0D00FF0100010000FFFF000001000140
:05337300FF0000000056
:043378000000000051
:02337C0000004F
:04337E00E22CE22C2F
:043382000000000047
:043386000000000043
:00000001FF
