:0400000002004B327D
:03000B00022FF0D1
:0100130032BA
:01001B0032B2
:0100230032AA
:01002B0032A2
:01003300329A
:03003B00022D9DF6
:03004300022D5E2D
:03004600022DF197
:0F004900E4737581BC123468E5826003020046DF
:10005800790BE94400601B7A019037D278FE75A0CD
:1000680001E493F2A308B8000205A0D9F4DAF27506
:02007800A0FFE7
:06007A00E478FFF6D8FD5A
:100080007800E84400600A790A75A001E4F309D811
:10009000FC78F4E84400600C790190010AE4F0A3D4
:0400A000D8FCD9FAB5
:0900A400751000751100751200C1
:0900AE00E4F51AF51BF51CF51D23
:0600B800751E00751F001B
:1000BE0078A876FF78A9760078AA760078AB7600D5
:0C00CE00753EFFE4F53FF540F541F542BA
:0600DA0078AEE4F608F622
:0600E000754600754700A3
:0900E6007552FF755300755403B7
:1000F0007808E4F608F608F608F6780C76000200B0
:0101000046B8
:0F0102009003E8E4F5F01230AD0201120201188B
:0901120012024A02156C0216E308
:10011C0075D30074FC55D24402F5D2751000223010
:10012C00DE1190000AE0FFBF010990000BE0FF9088
:10013C000200F022E58290010AF07E007F00E510BB
:10014C0060240EBE00010F900005C007C0061231DE
:10015C005ED006D0078E048F05C3EC9420ED944E30
:10016C0040DC7582002290010AE09001EDF0E4A3DE
:10017C00F07440A3F09001F0E513F0E4A3F09000CC
:10018C004A75F000122F7C8513D375100153D2FCE5
:10019C007582012275D50074FC55D44402F5D475D2
:1001AC0011002230DE0375120122E512602C900141
:1001BC00ED748AF07400A3F0E4A3F09001F07420C5
:1001CC00F0E4A3F090007675F040122F7C78B576B1
:1001DC002075827612261175120022E58290010B91
:1001EC00F07E007F00E51160200EBE00010F900034
:1001FC0005C007C00612315ED006D007C3EE94507E
:10020C00EF94C340E07582002290010BE09001ED69
:10021C00F0E4A3F07440A3F09001F0E514F0E4A333
:10022C00F09000CA75F000122F7C8514D575110161
:10023C0053D4FC75820122900200E0F58222120652
:10024C00D81207021206F175DD0075D30075D500C2
:01025C00227F
:10025E00AFDBBF08028003020597900007E0FE7F28
:10026E0000900006E0FD7C004FF515EC4EF5167F74
:10027E0000900001E0F517900201E4F0900000E01C
:10028E00FE546060057FFF020599E51724F45003C4
:10029E00020593E517240B83F582E517241083F5E9
:1002AE0083E473752693B093F0C993FD1A9999055B
:1002BE000405040503020503040505900003E0FE92
:1002CE00BE01028012BE02028018BE0302801EBE54
:1002DE002202806602038075186C7519347F120233
:1002EE00038275187E7519347F49020382900002CD
:1002FE00E070087518C97519358034900002E0FE5B
:10030E00BE01087518037519368024900002E0FEB0
:10031E00BE02087518EF7519358014900002E0FEC4
:10032E00BE03087518CD75193580047FFF8045858D
:10033E001882851983E493FF803A900002E0702EB4
:10034E00900004E0700E7518C7751934903497E458
:10035E0093FF8020900004E0FEBE010E7518A77575
:10036E0019359034B7E493FF800A7FFF80067FFF34
:10037E0080027FFFBFFF030205998F057E00C3ED4C
:10038E009515EE951650048D158E16AD15AE16C339
:10039E00ED9408EE9400920040067B087C008004E9
:1003AE00AB15AC168B077C00C3EC9F50198C027BEF
:1003BE0000EC2518F582E43519F583E493F98A8269
:1003CE008B83F00C80E28F037C00EDC39BFDEE9CD3
:1003DE00FE8D158E16EF2518F518E43519F5190250
:1003EE000599900002E0FE8E157516000205999093
:1003FE00010CE0900000F0AD15AE16C3ED9401EEC9
:10040E00940050030205997F01020599900002E0C5
:10041E00FE90010CF0020599900000E0541F702F21
:10042E00900003E0FD7E00900002E0FC7B0042069F
:10043E00EB4205BE0114BD0011903485E493FE30ED
:10044E00E5030205997FFF0205997FFF020599904A
:10045E000000E0FE53061F7D00BE0241BD003E902F
:10046E000004E0FEBE01028029BE02028013BE819E
:10047E00028014BE822274BC55D44402F5D4020507
:10048E009953D47302059974BC55D24402F5D20225
:10049E00059953D2730205997FFF0205997FFF02DA
:1004AE000599900000E0541F702F900003E0FD7E30
:1004BE0000900002E0FC7B004206EB4205BE0114F8
:1004CE00BD0011903485E493FE30E5030205997F5B
:1004DE00FF0205997FFF020599900000E0FE53068A
:1004EE001F7D00BE0205BD000280028076900003D3
:1004FE00E0FD7E00900002E0FC7B004206EB420530
:10050E00EE4D705B900005E0FD7E00900004E0FC77
:10051E007B004206EB4205BE0105BD00028034BEE3
:10052E000205BD00028018BE8105BD0002801ABE04
:10053E008229BD002674BF55D44403F5D4804C7473
:10054E007F55D4440CF5D4804274BF55D24403F584
:10055E00D28038747F55D2440CF5D27FFF802C7F29
:10056E00FF80287FFF8024900000E4F0900001F0CF
:10057E00AD15AE16C3ED9402EE940040047F0280DA
:10058E000AAF1580067FFF80027FFFBFFF0775173A
:10059E00FF75DCCF22EF24F740068FDD75DCC0221D
:1005AE0075DD0075DCC0227405B51702805D74061A
:1005BE00B51766AE15AF16C3EE9408EF9400920110
:1005CE0040067C087D008004AC15AD167D00C3EDA1
:1005DE009C50198D027B00ED2518F582E43519F536
:1005EE0083E493F98A828B83F00D80E28C037D0085
:1005FE00EEC39BFEEF9DFF8E158F16EC2518F5189A
:10060E00E43519F5198CDD63DC4022E5E35480FFF7
:10061E00E5154FF5E375DC022275DD0075DC02226F
:10062E0075DD0043DC022220D9030206ABE5D95466
:10063E000FFFADD95305307E00BD0005BE00028010
:10064E0018BD1005BE00028052BD2005BE000280FE
:10065E0026BD3047BE0044803CBF0002800ABF0169
:10066E0002800ABF0235800A12062E802E12012B3E
:10067E0080291201AF8024BF0002800ABF010280D0
:10068E000ABF0217800A1205B5801012011C800BDA
:10069E001201A08006BF000312025EC2D930D81D1F
:1006AE0075DC0275D21275D41275E300C2DAC2D9A6
:1006BE00C2D875100075110090010CE4F010DA012B
:1006CE0022E5DA20E20375D8FF2275E20053E27FBD
:1006DE0043E22975E30053E2BF53D1FB75D180434A
:1006EE00D1012243E10443E10243E10143D81FD289
:1006FE00EAD2AF227E007F008EEC8FED7E0A7F0065
:10070E008EEE8FEF7E8A7F008EE48FE575D21275A6
:0C071E00D41275EAC075EB0C75DC0222E9
:10072A0012307085821A85831B85F01CF51D220202
:10073A00073C123070AC82AD83AEF0FFECC3951A61
:10074A00FCED951BFDEE951CFEEF951D8C828D83AD
:10075A008EF022AF83E58290010DF0EFA3F012072D
:10076A0039AE82AF8390010DE0FCA3E0FDEEC39C9D
:10077A00FEEF9D8E82F58322900114E06003120C35
:10078A002A9001ED740FF07401A3F0E4A3F0900134
:10079A00F07406F0E4A3F090011575F000122F7CB6
:1007AA00900119E0700302132090011575F00012F0
:1007BA001A71E5827001227D827E017F009001ED2F
:1007CA007415F07401A3F0E4A3F09001F07402F040
:1007DA00E4A3F08D828E838FF0122F7C75E01DC00A
:1007EA00E075E001C0E075E000C0E01216F0158186
:1007FA00158115819001ED741DF07401A3F0E4A335
:10080A00F09001F07402F0E4A3F090011B75F0007F
:10081A00122F7C7D1F7E017F009001ED7415F0740C
:10082A0001A3F0E4A3F09001F07406F0E4A3F08DC4
:10083A00828E838FF0122F7C7D257E017F009001AE
:10084A00ED741BF07401A3F0E4A3F09001F07402BC
:10085A00F0E4A3F08D828E838FF0122F7C02086A57
:10086A00900126E0C4540FFF6012BF0102800DBF41
:10087A000403020915BF050302095F22900126E05D
:10088A0054F07009900126E0540FFF800B90012666
:10089A00E0540FFEC454F0FF900124E06034EF608E
:1008AA0028900125E0FEBEE0004009900125E0FE07
:1008BA0024185006900125E070078F82120C0080E0
:1008CA00058F82120C15120BA7900125E0F5820202
:1008DA00097D900125E0F582C007120A2DD007EFA5
:1008EA00700122900125E0FEBEE00040099001253A
:1008FA00E0FE24185006900125E070078F82120C42
:10090A000A80058F82120C1F020BA7900126E003B2
:10091A00035403FF6005BF0159801D900124E06064
:10092A000C900125E0FEA3E05403FF80047E007FC3
:10093A00008E828F830228B6900124E0600C900119
:10094A0025E0FEA3E05403FF80047E007F008E8230
:10095A008F830228F6900124E0600B900125E0F5D0
:10096A0082120B208009900125E0F582120B3402D5
:10097A000B5922E582900127F0E0FF700122BF04A3
:10098A0000402FEF245B402A9001D4EFF0900096AC
:10099A0075F040C007122986E582D00760088F8269
:1009AA00120AF8120BA7900127E0F582120AE40254
:1009BA000BA7900127E0FFBFE000401DEF2418407D
:1009CA001874075FF5F005F07401800225E0D5F090
:1009DA00FBF582120C00020BA7900127E0FFBFA5CE
:1009EA0000400FEF2458400A8F82122ACEAF8302AA
:1009FA0028B6900127E0FFBFA800400FEF243D4032
:100A0A000A8F82122AF5AF830228F6900127E0FFA7
:100A1A00BFCD00400DEF242040088F82120B200228
:100A2A000B5922E582900128F0E0FF700122BF04F1
:100A3A0000400DEF245B40088F82120AF8020BA7D0
:100A4A00900128E0FFBFE000401DEF241840187411
:100A5A00075FF5F005F07401800225E0D5F0FBF59B
:100A6A0082120C0A020BA7900128E0FFBFA50040E2
:100A7A000BEF245840069000000228B6900128E0A7
:100A8A00FFBFA800400BEF243D400690000002285B
:100A9A00F6900128E0FFBFCD00400DEF242040086A
:100AAA008F82120B34020B5922E582900129F0E061
:100ABA00FFF582C00712097DD007BF390B9000509D
:100ACA00E4F5F01230AD8009900000E4F5F0123040
:0A0ADA00AD900129E0F582020A2D1B
:100AE400E58290012AF0E09001D8F090009675F02C
:100AF400400229D4E58290012BF0E09001DCF090D3
:100B0400009675F040022A4E7F00BF09005009EF9D
:100B14002496F876000F80F2751E0022E58290017B
:100B24002CF0E09001E2F090009F75F040022B3C25
:100B3400E58290012DF0E09001E6F090009F75F0C1
:100B440040022C5378A1760078A2760078A3760030
:100B540078A07600229001F6742EF07401A3F0E4DC
:100B6400A3F09001F97405F0E4A3F090009F75F0F0
:100B740040123287E5828583F045F060259001EDCF
:100B8400749FF0E4A3F07440A3F09001F07405F0B6
:100B9400E4A3F090012E75F000122F7C75829F0261
:100BA400295E227897A61EE51F451E7897F69001C8
:100BB400F67433F07401A3F0E4A3F09001F974091E
:100BC400F0E4A3F090009675F040123287E5828538
:100BD40083F045F060259001ED7496F0E4A3F07481
:100BE40040A3F09001F07409F0E4A3F09001337590
:100BF400F000122F7C75829602293922E582900139
:100C04003CF0E0421E22E58290013DF0E0F4521EE9
:100C140022E58290013EF0E0421F22E58290013FEE
:100C2400F0E0F4521F22751F0022AF83E582900189
:100C340040F0EFA3F0900140E0FEA3E0FFBE00050A
:100C4400BF7E02801FBE0105BF7E028008BE021B5C
:100C5400BF7E18800778A5E64401F62278A576C8F9
:100C64000876002278A576380876FF22AF83E582DD
:100C7400900142F0EFA3F0900142E0FEA3E0FFBE3A
:100C84000005BF7E028017BE0105BF7E028008BE3C
:100C94000213BF7E10800778A5E654FEF62278A5DD
:100CA4007600087600229001F67444F07401A3F0F3
:100CB400E4A3F09001F97404F0E4A3F09000A475A7
:100CC400F040123287E5828583F045F0602490017C
:100CD400ED74A4F0E4A3F07440A3F09001F0C4F028
:100CE400E4A3F090014475F000122F7C7582A402F5
:030CF40029722240
:100CF800E523FF7027852426852425852427E5817B
:100D080024FCF886820886830886F0E5251231CE11
:100D1800A3E5261231CEA3E5270231CE8F2A752B03
:100D28000085242C752D00AB228B027F00C003C0E8
:100D380002C0079000061231E9AE82AF8315811513
:100D48008174FFC0E0E4C0E08E828F831233A6AEC8
:100D58008215811581D0038E28EB2BFBE52875F0D1
:100D680055A4D39BF475F003A4F52974FFC3952A01
:100D7800FAE4952BFFC002C007852C82852D8312CB
:100D880031E9AF8315811581AA297B00C007C0020C
:100D9800C003852A82852B831231E9AB831581151F
:100DA800818B027B0074FFC39AFAE49BFBC002C0EC
:100DB80003852C82852D831231E9AB83158115813A
:100DC800AA297E0074FFC39AFAE49EFEAC2AAD2BD2
:100DD800C003C002C0068C828D831231E9AE831530
:100DE8008115818E057E0074FFC39DFDE49EFEAAD9
:100DF8002CAC2DC005C0068A828C831231E9AD82E5
:100E0800AE8315811581D003D007E52824F9404E1B
:100E1800E52875F003A4900E2273020E34020E3EEC
:100E2800020E48020E52020E5C020E66AC2C8C2694
:100E38008E258F2780308B26AC2C8C258F278026FB
:100E48008F26AC2C8C258E27801C8F268B25AC2CCE
:100E58008C2780128E268F25AC2C8C278008AC2CF2
:100E68008C268F258B27E58124FCF88682088683CB
:100E78000886F0E5251231CEA3E5261231CEA3E58A
:100E8800270231CEAFF0AE83E58290014FF0EEA39A
:100E9800F0EFA3F0900152E4F090014EE06016905C
:100EA80002027401F0120739E5828583F090014847
:100EB800F0E5F0A3F0900202E07003020F7A9001CF
:100EC80048E0FEA3E0FF8E828F8312075DAE82AFFB
:100ED80083C3EE9405EF94005003020F7A90014A01
:100EE800E0FDA3E0FEA3E0FF8D318E328F33900149
:100EF8004FE0F52EA3E0F52FA3E0F530A82EA92F9B
:100F0800AC3090014DE0FA7B009001F6E8F0E9A3DF
:100F1800F0ECA3F09001F9EAF0EBA3F085318285BB
:100F280032838533F0C007C006C005C003C0021273
:100F38003287E5828583F0D002D003D005D006D071
:100F48000745F06028A82EA92FAC309001EDE8F0F5
:100F5800E9A3F0ECA3F09001F0EAF0EBA3F08D82A6
:100F68008E838FF0122F7C9001527401F090020250
:090F7800E4F0900152E0F5822240
:100F8200E582900155F0E025E0240BFF900153E04B
:100F920025E02FFF900154E025E02FFFF582C007E6
:100FA200122D4EAE82D0078E057E000F8F82C006B4
:100FB200C005122D4EAF82D005D006E4FCEF2EFE06
:100FC200EC3D8E82F58322E58290015AF0E025E025
:100FD200240BFF900156E025E02FFF900157E025FA
:100FE200E02FFF900158E0FDA3E0FE9001EAF08FB0
:100FF20082C007C006C005122D18D005D006D00742
:101002000F9001EAEDF08F82022D187F00BF0100E0
:10101200400122EFFE75F002A4240FFC743635F075
:10102200FD7B00BB0100506BEBFA25E02CF8E43DA0
:10103200F975340074FF25344056C004C005E53408
:10104200253428F582E439F583E493FCA3E493FD87
:10105200900156EAF0900157E534F0900158ECF017
:10106200EDA3F08E82C007C006C005C004C003C055
:1010720002C001C000120FC9D000D001D002D003BB
:10108200D004D005D006D0070534D005D00480A402
:071092000B80900F02100F0C
:10109A007F00BF6D0050178F0674132EFE9001EA71
:1010AA00E4F08E82C007122D18D0070F80E4227F49
:1010BA0000BF050050148F060E9001EAE4F08E82FC
:1010CA00C007122D18D0070F80E722120B0C120B43
:1010DA00A7120B48020B59E58290015BF0E0FF7EF4
:1010EA0000BE0900502CEE75F002A4FCADF02411EC
:1010FA00F582ED3436F583E493FBB50712EC24113F
:10110A00FCED3436FD8C828D83A3E493F582220EA6
:10111A0080CF90015BE0F58222E58290015CF012BB
:10112A0010D578A8860790015CE0FEEFB506057831
:10113A00A876FF2278A9767F78A986078F82C006CB
:10114A00122D4EE582D00660012278A8A60678AC58
:10115A0076000876008E070F8F82C006122D4EE5A4
:10116A0082D00678ABF678A976138E07EF602D78D1
:10117A00A98606BE800578A876FF2278A986068EFB
:10118A0082C007122D4EE582D00770061F90015CBF
:10119A00EFF078A9E6FE0478A9F680D078A9860748
:1011AA0078AAA60722753500753600753700753896
:1011BA0000753900753A00753B00753C00753D00B5
:1011CA0078A9E6FF0478A9F68F82122D4EAF828F96
:1011DA0035AE35EF700475820222BE010280030229
:1011EA00131778A9E6FF0478A9F68F82122D4EAF5D
:1011FA00828F36AD36EF7003F58222BD0102800878
:10120A00BD02028003BD034F78A9E6FF0478A9F660
:10121A008F82122D4EE582F5377003F582228537CB
:10122A00821210E1E582F537AF36BF0102800DBFA9
:10123A0002028011BF0302801502131C8537821235
:10124A000AB302131C85378212097D02131C8537E3
:10125A0082120A2D02131CBD0402800302131C7F92
:10126A0002EF2435F978A9E6FD0478A9F68D82C043
:10127A0007C001122D4EAD82D001D007A705ED702F
:10128A0003F582228705BD7C02800ABF07047582A6
:10129A0000220F80CC90015DE4F0A3F090015FE59D
:1012AA0037F07F0290015FE0FDBD30009202404CB2
:1012BA00ED24C69202404590015DE0FCA3E0FDC02A
:1012CA0007C004C00590000A1231E9AC82AD83154B
:1012DA00811581D00790015FE07A0024D0FBEA34BF
:1012EA00FFFAEB2CFCEA3DFD90015DECF0EDA3F07A
:1012FA000FEF2435F990015FE7F080A890015DE0D7
:10130A00FDA3E0FF78ACA60508A60780058E821229
:10131A0022987582012278A88607BFFF012278AC3D
:10132A008606088607EE4F600D1EBEFF011F78ACC9
:10133A00A60608A607221211AFAF82BF022178AB18
:10134A00E6FE6013BEFF028005EE1478ABF678AABB
:10135A00860578A9A60522EE700F78A876FF22EFF7
:0A136A00700778A876FF0210D52264
:10137400E582900161F0E075F006A4240DFF900170
:1013840060E025E02FFFF582C007122D4EAE82D01B
:10139400078E057E000F8F82C006C005122D4EAF4A
:1013A40082D005D006E4FCEF2EFEEC3D8E82F58360
:1013B40022E582900165F0E075F006A4240DFF900B
:1013C4000162E025E02FFF900163E0FDA3E0FE90C1
:1013D40001EAF08F82C007C006C005122D18D0059F
:1013E400D006D0070F9001EAEDF08F82022D187F0E
:1013F40000BF060050178F06740D2EFE9001EAE41C
:10140400F08E82C007122D18D0070F80E422E582E7
:10141400900168F0E024F090016AF0900166E01415
:10142400900169F0900167E090016EF0120739AE07
:1014340082AF8390016BEEF0EFA3F090016D740125
:10144400F07D0F7E017F009001ED7469F07401A3BB
:10145400F0E4A3F09001F07406F0E4A3F08D828E22
:10146400838FF0122F7C020782753EFF753F007553
:1014740040002274FFB53E012285418285428312D9
:10148400075DAE82AF83C374C89EE49F5052E53FAC
:10149400FF701AE54070499001667403F09001678B
:1014A4007401F0853E8212141275400122EF24FD6E
:1014B400402B900166EFF09001677401F0853E8245
:1014C40012141290000AE4F5F01230AD900166E5B2
:1014D4003FF0900167E4F0853E8212141202146D0D
:1014E40022AF83E582900172F0EFA3F0900172E0E5
:1014F400FEA3E0FF8E048F05C3EC9407ED947E40B9
:1015040062740B9C747E9D405AEE24F9FF90016F27
:10151400E0FCA3E0FDA3E0FE74052CFCE43DFD8C9F
:10152400828D838EF012338A60048F3E8024E540DE
:1015340060169001667403F0900167E4F0853E82C2
:1015440012141212146D800AEFB53E06E53FFF0433
:10155400F53F120739E5828583F0F54185F0427540
:0715640082002275820122C2
:10156C0012072A12196F122376021E3E120739AE89
:10157C0082AF8378AEEEC396FCEF08964C700122D6
:10158C00900174E4F0900175F0900174F090017585
:10159C00F0900176F0A3F0900178F0900179F0C012
:1015AC0007C006120739AC82AD83900176ECF0EDE2
:1015BC00A3F0900178E4F0900179F07B0F7C017D31
:1015CC00009001ED7474F07401A3F0E4A3F09001A9
:1015DC00F07406F0E4A3F08B828C838DF0122F7CD8
:1015EC00D006D007C007C006120782D006D00778F5
:1015FC00AEA60608A60722121989E5827003021509
:10160C00787F00BF0100400122EF24B2F9870690D9
:10161C00017AEEF0EF24B0F98705EE6205ED700368
:10162C000216DF90017B7401F08F437B00BB01003D
:10163C0040030216D690017BE0FA5D70030216CAD5
:10164C00C005EE5202EA24FFE433FA90017DE54333
:10165C00F090017CEBF0900181EAF0C007C006C06D
:10166C0003120739AA82AD83D00390017EEAF0ED14
:10167C00A3F09001807401F07A0F7C017D00900141
:10168C00ED747CF07401A3F0E4A3F09001F0740607
:10169C00F0E4A3F08A828C838DF0C005C003122F76
:1016AC007CD003D005D006D007C007C006C005C04B
:1016BC0003120782D003D005D006D007D0050B90BB
:1016CC00017BE025E0FCF0021639EF24B0F9900123
:1016DC007AE0F70F02160F1216031201B6121477E6
:0316EC00021BD10D
:1016F0007D847E017F009001ED7482F07401A3F07F
:10170000E4A3F09001F07402F0E4A3F08D828E83E4
:101710008FF0122F7C1217FAAE82AF838E048F05E2
:10172000C3EC9404ED9400400774A49CE49D501015
:10173000C3EC94E0ED9400400E74E79CE49D4007F8
:101740008E448F450217E2C3EC94A5ED9400401B34
:1017500074A79CE49D40148E038B82122ACEAA8229
:10176000AB834303408A448B458077C3EC94A8ED58
:101770009400401B74C29CE49D40148E038B821223
:101780002AF5AA82AB834303448A448B458053C322
:10179000EC94CDED9400401374DF9CE49D400C8CE0
:1017A0000274504DFB8A448B458037BC010BBD0051
:1017B00008754401754500802974FF2D501FC374BE
:1017C000FF9C741F9D40168F0653061F8E07E4FE74
:1017D000FDEC4206ED42078E448F458005E4F5445A
:1017E000F545E58124FCF886820886830886F0E5C5
:1017F000441231CEA3E5450231CE900185E0FFBF12
:101800000100501A900184E0FEBE010050109001CA
:1018100053EFF0900154EEF0854682020F82BFF044
:10182000004016EF24054011EF2410FF900184E0E2
:0D183000900160F08F82021374900000227E
:10183E00E582900186F0E0FF9001EB7401F08F825B
:10184E00C007122E00D0079001ECE4F08F82022F19
:10185E0007E582900187F0E0FF9001EC7401F08FB4
:10186E0082C007122F07D0079001EB7402F08F820F
:10187E00022E00E582900188F0E0F582122EB7E587
:10188E00827004FEFF80047E017F008E82227F0024
:10189E00BF0100503BEF2423FDE43436FE7C00BC38
:1018AE0001005029EC2DF582E43EF583E493FB9084
:1018BE0001EB7402F08B82C007C006C005C0041293
:1018CE002E00D004D005D006D0070C80D20F80C0D9
:1018DE0022AFF0AE83E58290018AF0EEA3F0EFA383
:1018EE00F090018DE4F090018E04F0900189E0FFFC
:1018FE002423FDE43436FE7C00BC01005043EC2D65
:10190E00F582E43EF583E493F582C007C006C00578
:10191E00C004121881E582D004D005D006D007602D
:10192E00067A007B00800890018EE0F9FA7B009029
:10193E00018DE0F94AF00C90018EE025E0FBF0807D
:10194E00B890018AE0FCA3E0FDA3E0FEEF2CFFE4DB
:10195E003DFB8E0290018DE08F828B838AF00231E7
:10196E00CE12189C7F00BF0100500FEF24B2F87604
:10197E0000EF24B1F876000F80EC2290018FE4F096
:10198E007F00BF01005015900189EFF090018F7517
:10199E00F000C0071218DFD0070F80E69001F67432
:1019AE008FF07401A3F0E4A3F09001F904F0E4A326
:1019BE00F09000B175F040123287AE82AF83EE4FD9
:1019CE00B401009203900190B3E433F0900190E0E3
:1019DE00FFE060229001ED748FF07401A3F0E4A398
:1019EE00F09001F004F0E4A3F09000B175F040C067
:1019FE0007122F7CD00790014A74B2F0E4A3F07462
:101A0E0040A3F090014D7401F090014EEFF0900064
:071A1E00B175F040020E8CCF
:101A2600AF83E582900194F0EFA3F0900191E0FD81
:101A3600A3E0FEA3E0FF74052DFDE43EFE8D828E3D
:101A4600838FF012338A6011900194E0FEA3E0FFC9
:101A56008E828F83120C2E800F900194E0FEA3E0FD
:101A6600FF8E828F83120C70020CAAAFF0AE83E554
:101A760082900196F0EEA3F0EFA3F0900196E0FDC0
:101A8600A3E0FEA3E0FF7A847B017C009001EDEDEC
:101A9600F0EEA3F0EFA3F09001F07402F0E4A3F0EF
:101AA6008A828B838CF0122F7C1217FAAE82AF8358
:101AB600900196E0FBA3E0FCA3E0FD90016FEBF044
:101AC600ECA3F0EDA3F08E828F83C007C00612143C
:101AD600E5E582D006D0077003F582228E048F05D5
:101AE60074822D502AC374029C747E9D40219001FD
:101AF60096E0FBA3E0FCA3E0FD900191EBF0ECA3E4
:101B0600F0EDA3F08E828F83121A26758200229042
:101B16000196E0FBA3E0FCA3E0FD9001C4EBF0EC32
:101B2600A3F0EDA3F08E828F83C007C0061223AD0B
:101B3600E582D006D0077003F58222900196E0FB7D
:101B4600A3E0FCA3E0FD9001A0EBF0ECA3F0EDA375
:101B5600F08E828F83121CD5E5827003F582227582
:031B6600820122D7
:101B6A0078B3865008865175540122E5829001990E
:101B7A00F07F00E0FEB55203D38001C3B39204782C
:101B8A0053A204E433F6BE00028005BE0716800D98
:101B9A0090005375F040121E74AF828016121EB068
:101BAA00AF82800FBE0100400AEE24F940051220E0
:101BBA0082AF82EF7010755402E553700990019953
:101BCA00E0700375540322120739E5828583F078A1
:101BDA00B3F608A6F0E55424FC4042E55475F00338
:101BEA00A4901BEF73021BFB021BFE021C04021CC7
:101BFA000E021B6A854882021B75854852122223EF
:101C0A007554032285508285518312075DAE82AFD7
:101C1A0083C3EE9414EF9400400375540022E582C6
:101C2A0090019AF0E0FF8F489001EAEFF075820682
:101C3A00022D18E58290019BF0E0F5482275820694
:101C4A00122D4EE582F54822E58290019DF0E0F5DD
:101C5A004990019CE0F54A9001EAE549F07582074E
:101C6A00122D189001EAE54AF0758208022D18E54E
:101C7A008290019EF0E0FF8F4B9001EAEFF07582AF
:101C8A0009022D18E58290019FF0E0FF8F4C900128
:101C9A00EAEFF075820A022D1890362DE493FF9030
:101CAA00362EE49390019CF08F82121C5290362FAC
:101CBA00E493F582121C79903630E493F582121C73
:101CCA008E903629E493F582021C28AF83E5829030
:101CDA0001A3F0EFA3F09001A0E0FDA3E0FEA3E0D2
:101CEA00FF74052DFDE43EFE8D828E838FF0123344
:101CFA008A7003021E3A9001A3E0FEA3E0FFC3EE3E
:101D0A00940CEF947E5003021E3AC374149E747EA0
:101D1A009F5003021E3ABE0C05BF7E028023BE11ED
:101D2A0005BF7E028031BE1205BF7E028041BE130E
:101D3A0005BF7E028053BE1405BF7E028063021D6A
:101D4A00C5AD480D8D48BD0700400375480085485C
:101D5A0082121C28021E36AD4BBDF5004003021E3E
:101D6A0036740A2DF54B854B82121C79021E36E514
:101D7A004BFD24F55007ED24F6F54B8003754B0017
:101D8A00854B82121C79021E36AD4CBDF50040030C
:101D9A00021E36740A2DF54C854C82121C8E021EC8
:101DAA0036E54CFD24F55007ED24F6F54C80037515
:101DBA004C00854C82121C8E021E36BE0D05BF7E5B
:101DCA00028018BE0E05BF7E028023BE0F05BF7EAD
:101DDA0002802EBE104ABF7E478039AF49BFFA0043
:101DEA00500774052FF54980377549FF8032E54958
:101DFA00FF24FA5007EF24FBF54980247549008037
:101E0A001FAF4ABFF5005007740A2FF54A801175B3
:101E1A004AFF800CE54AFF24F55005EF24F6F54AFF
:101E2A0090019CE54AF0854982121C527582002273
:101E3A007582012212220C758206122D4EE582F558
:101E4A0048758207122D4EE582F549758208122DD2
:101E5A004EE582F54A758209122D4EE582F54B75DB
:101E6A00820A122D4EE582F54C22AFF0AE83E5824E
:101E7A009001A5F0EEA3F0EFA3F09001A5E0FDA379
:101E8A00E0FEA3E0FF8D828E838FF012338A700307
:101E9A00F582229001BEE4F09001BFF07582001233
:101EAA00225F7582002275820022AFF0AE83E5823E
:101EBA009001A8F0EEA3F0EFA3F09001A8E0FDA333
:101ECA00E0FEA3E0FF74022DFAE43EFB8F048A824F
:101EDA008B838CF012338AF56CC3940A500774070B
:101EEA00B5480280249001A8E0F56FA3E0F570A33D
:101EFA00E0F571056FE4B56F020570856F82857034
:101F0A00838571F074FE0231CE74012DFAE43EFB32
:101F1A008F048A828B838CF012338AF56F756D0376
:101F2A00756E00C3E56E956C400122E56F75F0038E
:101F3A00A424BBF572740135F0F57374012572F5AA
:101F4A0074E43573F575E56D2DFAE43EFB8F048A6A
:101F5A00828B838CF012338A857482857583F0852F
:101F6A006D7475750074012574FAE43575FCEA2DF3
:101F7A00FAEC3EFC8F038A828C838BF012338A85BB
:101F8A007282857383F074022572F572E43573F5F3
:101F9A007374022574FAE43575FCEA2DFAEC3EFCFA
:101FAA008F038A828C838BF012338AFA8572828538
:101FBA007383F0056E056FAB6D74032BF56D021F0D
:011FCA002DE9
:101FCC00E5829001ACF0E0FF9001ABE0FE7D000EED
:101FDC00BE00010D7C00C006C0058F828C831231BF
:101FEC00E9AF83158115818F068E8222AF83E5823E
:101FFC009001AEF0EFA3F09001ADE0FF7E000FBFBB
:10200C0000010E9001AEE0FCA3E0FDC007C0068C01
:10201C00828D831231E9AF83158115818F067F0084
:10202C008E828F8322E5829001B0F0E0FF30E707CB
:10203C009001B0C3E49FF09001B0E0F58222E582FC
:10204C009001B2F0E0FF7E009001B1E07C002FFF28
:10205C00EC3EFE9001B3EFF0EEA3F0C374FF9FE4EF
:10206C009E50099001B374FFF0E4A3F09001B3E02B
:10207C00FEA3E08E8222854A56854B57E54C03031E
:10208C00543FFF9001B17401F08F8212204AAF824D
:10209C009001ADEFF0855082855183121FF8AE820E
:1020AC007F00BF01004003022208E548FD24F950DF
:1020BC0003022182ED2D2D9020C773022182022074
:1020CC00DC0220E20220E70220F502210C0221545E
:1020DC008549550221828E55022182EF2F90362799
:1020EC0093FDC39EF555022182EF2F2427FDE43486
:1020FC0036FC8D828C83A3E493FDC39EF5558076CC
:10210C00AD49EF2F2427FCE43436FB8C828B83A360
:10211C00E493FAC007903625E493FFEAC39FF58257
:10212C00C006C005C004C003122031AF82D003D05A
:10213C0004D005D006EF2DFF8C828B83E493C39ED5
:10214C00FC2FF555D007802EAD49EF2F90362793F5
:10215C00C39EF582C007C006C005122031AC829028
:10216C0001AB7430F08C82121FCCAC82D005D0063F
:10217C00D007EC2DF5557B227C007D409001ED7451
:10218C0055F0E4A3F0EDA3F09001F07403F0E4A398
:10219C00F08B828C838DF0C007C006122F7C75E00B
:1021AC00B8C0E075E001C0E075E000C0E0120CF8CA
:1021BC001581158115819001ED74B8F07401A3F0AF
:1021CC00E4A3F09001F07403F0E4A3F09001B57572
:1021DC00F000122F7CD006D0079001B6E0F5589095
:1021EC0001B5E0F5599001B7E0F55A8F82C007C0F0
:1021FC0006122238D006D0070F0220AE75820022BC
:10220C009001EB7401F0758221122E009001ECE428
:10221C00F0758221022F077EBB7F017D007C00437D
:10222C0005038E828F838DF0EC023366E58275F0A8
:10223C0003A424BBFE740135F0FF8E828F83A3E5CB
:10224C0058F08E828F83E559F08E828F83A3A3E59D
:10225C005AF022E5829001C0F0E0FF9001BEE0FE52
:10226C009001BFE0FD7C00BC0100501E8F588E59C0
:10227C008D5A8C82C007C006C005C004122238D00B
:0B228C0004D005D006D0070C80DD2236
:10229800E5829001C1F0E0FF90366193FE7D00C0B9
:1022A80007C006C0057408C0E0E4C0E08F828D83D3
:1022B8001233A6AB82AC8315811581D005D006D028
:1022C80007EB2431F582EC3436F583E493FA5307AF
:1022D800078FF005F0EA8002C313D5F0FB5401F52F
:1022E8005BEB2441F582EC3436F583E493FA8FF006
:1022F80005F0EA8002C313D5F0FB5401F55CEB242A
:1023080051F582EC3436F583E493FC8FF005F0EC5C
:102318008002C313D5F0FB5401FFE55B600E7582A4
:10232800E1C007C00612097DD006D007E55C600E43
:102338007582E6C007C00612097DD006D0078E82D6
:10234800C007120AB3D007E55C600A7582E6C007C9
:10235800120A2DD007E55B600A7582E1C007120AF0
:0D2368002DD007EF600675822C020AB3220B
:10237600758200122D4EAF82BF5A012202238512AA
:10238600100D12109A1210B9121CA31213F3900119
:10239600EA745AF0758200022D1875E200C2AF7514
:1023A600890012380080FEAF83E5829001C7F0EF06
:1023B600A3F09001C4E0FDA3E0FEA3E0FF74052DA9
:1023C600FDE43EFE8D828E838FF012338A60239069
:1023D60001C7E0FEA3E0FF8E048F0574892D50121D
:1023E600C3747F9C74779D40098E82121123758277
:1023F600002275820122E5829001C9F0E0F92402EB
:10240600F8740329FF8706BE0702800CBE08030284
:10241600249EBE09028001229001C2E0FDA3E0FED7
:102426008D828E83C007C00012075DAD82AE83D059
:1024360000D007C3ED94F4EE94015001228606BE47
:102446000102801ABE0202800ABE0302801BBE047D
:10245600368021A80786068E82121C288029A807A6
:1024660086068E82121C79801EA80786068E821228
:102476001C8E8013A8078606EF04FD90019CA80514
:10248600E6F08E82121C52120739E5828583F0909F
:1024960001C2F0E5F0A3F0228606BE0102801FBE4F
:1024A6000202800ABE03028025BE04568030758271
:1024B60006C007122D4EE582D007A807F6227582C0
:1024C60009C007122D4EE582D007A807F6227582AD
:1024D6000AC007122D4EE582D007A807F62275829C
:1024E60007C007C001122D4EE582D001D007A8070C
:1024F600F6E92404F9758208C001122D4EE582D052
:1025060001F722E5829001CAF0E0F904F874022985
:10251600FF740329FE8605BD053C8704BC070280BF
:1025260008BC0802801DBC092CA8078604BC010053
:102536004023EC24FA401E9001EAA806E6F08C82BD
:10254600022D18A80786048C82C006122D4EE5823D
:10255600D006A806F622BD06288704BC0702800816
:10256600BC08028017BC0918A8078604BC010280B3
:1025760005BC020C80030223850223A0A806760070
:1025860022BD030589820223FCBD070280030226C1
:102596000E8705BD07028008BD08028043BD096796
:1025A600A8078605BD0100405EED24FA4059EE04F9
:1025B600F886047B008C5E8B5D74022EF886027CA6
:1025C60000E55D4202E55E42041D900162A806E652
:1025D600F0900163EAF0ECA3F08D821213B5802728
:1025E600A80786071F900160A806E6F08F82C00143
:1025F600121374AE82AF83D001740429F88F05A636
:1026060005740529F8A6062277FF22E5829001CBFC
:10261600F0E0F904F8E7FF24D950030228A3EF24D9
:102626000A83F582EF242B83F583E473A3A1A5A582
:10263600ACE6262C2C2CA5A534394797E6ECF14CB4
:10264600A3A3A3A3A3A3A3A3A3A3A3A3A3A3A3A354
:1026560080929B28262828262627272727282827CA
:1026660027272727272728282828282828282828EA
:102676002828282828282826262689077E007D40FF
:102686008F828E838DF0121EB40228A575820712E2
:102696001C3D0228A5121C470228A57600740229B3
:1026A600F8760C0228A58607740229FE900153A825
:1026B60006E6F0740329FE900154A806E6F08F8220
:1026C600C001120F82AE82AF83D001740429FD8F40
:1026D60004A805A604740529FDA805A6060228A5D2
:1026E6008607740229FE900156A806E6F0740329AF
:1026F600FE900157A806E6F0740429F886068E05B2
:102706007E00740529F886047B00EC4206EB420540
:10271600900158EEF0EDA3F08F82120FC90228A5A2
:1027260012100D0228A589821225090228A5760510
:102736000228A57600740229FF746DA807F6022800
:10274600A5740229FF740329FE7D00A9068704C328
:10275600ED9C40030228A58D037C0074032BFBE44B
:102766003CEB28FCA907870374132BFB8D02EA2B8D
:10277600F582C007C006C005C004C000122D4EE594
:1027860082D000D004D005D006D007A904F70D806A
:10279600BA740229FF740329FE7D00A9068704C3C3
:1027A600ED9C40030228A5A907870474132CFC8D11
:1027B60003EB2CFC8D027B0074032AFAE43BEA2827
:1027C600FB9001EAA903E7F08C82C007C006C005AA
:1027D600C000122D18D000D005D006D0070D80BB42
:1027E60012109A0228A576010228A57F00740229F4
:1027F600FEC000A8068606D000EE4207740329FE36
:102806007D00A9068704C3ED9C40030228A58D031D
:102816007C0074032BFBE43CEB28FC8F03740B2B2E
:10282600FB8D02EA2BF582C007C006C005C004C0B6
:1028360000122D4EE582D000D004D005D006D00778
:10284600A904F70D80BC7F00740229FEC000A8060B
:102856008606D000EE4207740329FE7D00A906878E
:1028660004C3ED9C50398F04740B2CFC8D03EB2CA8
:10287600FC8D027B0074032AFAE43BEA28FB9001F4
:10288600EAA903E7F08C82C007C006C005C00012A3
:102896002D18D000D005D006D0070D80C077FF9048
:0F28A60001CBE0FF78B579BCE6F78F8202294DB0
:1028B600AF83E5829001CCF0EFA3F09001CCE0FE6F
:1028C600A3E0FF900203E0FCA3E0FDEEB50405EFF4
:1028D600B5050122900203EEF0EFA3F078B676027A
:1028E60078B7A60608A6077513047582B6020140D6
:1028F600AF83E5829001CEF0EFA3F09001CEE0FE2B
:10290600A3E0FF900205E0FCA3E0FDEEB50405EFB1
:10291600B5050122900205EEF0EFA3F078B9760333
:1029260078BAA60608A6077513047582B90201408F
:10293600020243E5829001D0F0E0F977018907753C
:1029460013098F82020140E5829001D1F0E0FF7801
:10295600BC86148F820201E7E5829001D2F0E0F98D
:10296600770489077513058F82020140E58290017D
:10297600D3F0E0F9770589077513038F82020140CA
:10298600AFF0AE83E5829001D5F0EEA3F0EFA3F0B1
:102996009001D5E0FDA3E0FEA3E0FF74032DFDE466
:1029A6003EFE9001D4E0FC7B00BB0600501CEB2DE4
:1029B600F8E43EF98F02888289838AF012338AF816
:1029C600B50404758201220B80DF75820022AFF008
:1029D600AE83E5829001D9F0EEA3F0EFA3F07F007D
:1029E600BF060050629001D9E0FCA3E0FDA3E0FE23
:1029F60074032CF9E43DFA8E03EF29F9E43AFA89D7
:102A0600828A838BF012338AF99001D8E0FBE9B50C
:102A160003012274032CF8E43DF98E02EF28F8E452
:102A260039F9888289838AF012338A701774032CE5
:102A3600FCE43DFDEF2CFCE43DFD8C828D838EF0A5
:102A4600EB0231CE0F809922AFF0AE83E582900182
:102A5600DDF0EEA3F0EFA3F09001DDE0FDA3E0FED4
:102A6600A3E0FF74032DF56CE43EF56D8F6E9001C7
:102A7600DCE0F97800B80600504DC005C006C00776
:102A8600E8256CFDE4356DFEAF6E8D828E838FF08A
:102A960012338AFDB501028008D007D006D0058022
:102AA60023D007D006D005C00174032DF9E43EFB00
:102AB6008F04E829F9E43BFB89828B838CF0E412CE
:102AC60031CED0010880AE22E5829001E0F0E0FF31
:102AD600BFA502800ABFA6028009BFA70E80089084
:102AE600008122900082229000832290000022E53D
:102AF600829001E1F0E0FF7E00BE1B005034EE75CF
:102B0600F003A4FCADF024E1F582ED3436F583E460
:102B160093FBEFB50319EC24E1FCED3436FD8C8212
:102B26008D83A3E493FCA3E493FD8C828D83220E14
:102B360080C790000022AFF0AE83E5829001E3F0FB
:102B4600EEA3F0EFA3F09001E2E0FFBFCD1D9001F0
:102B5600E3E0FCA3E0FDA3E0FE74032CFCE43DFDF2
:102B66008C828D838EF074FF0231CEBFCE1D900114
:102B7600E3E0FCA3E0FDA3E0FE74032CFCE43DFDD2
:102B86008C828D838EF074010231CEBFCF1D9001F1
:102B9600E3E0FCA3E0FDA3E0FE74022CFCE43DFDB3
:102BA6008C828D838EF074FF0231CEBFD01D9001D2
:102BB600E3E0FCA3E0FDA3E0FE74022CFCE43DFD93
:102BC6008C828D838EF074010231CEBFD91D9001A7
:102BD600E3E0FCA3E0FDA3E0FE74042CFCE43DFD71
:102BE6008C828D838EF074010231CEBFDA1D900186
:102BF600E3E0FCA3E0FDA3E0FE74042CFCE43DFD51
:102C06008C828D838EF074FF0231CEBFD100403CA2
:102C1600EF242740379001E3E0FCA3E0FDA3E0FEAC
:102C26000CBC00010D8C828D838EF012338AFBEF73
:102C3600242FF5F005F07401800225E0D5F0FBFFA6
:102C460042038C828D838EF0EB0231CE22AFF0AE42
:102C560083E5829001E7F0EEA3F0EFA3F09001E6A2
:102C6600E0FFBFCD028003BFCE1C9001E7E0FCA3CE
:102C7600E0FDA3E0FE74032CFCE43DFD8C828D8315
:102C86008EF0E40231CEBFCF028003BFD01C90018C
:102C9600E7E0FCA3E0FDA3E0FE74022CFCE43DFDAE
:102CA6008C828D838EF0E40231CEBFD9028003BFC1
:102CB600DA1C9001E7E0FCA3E0FDA3E0FE74042C1F
:102CC600FCE43DFD8C828D838EF0E40231CEBFD1D3
:102CD60000403DEF242740389001E7E0FCA3E0FDEB
:102CE600A3E0FE0CBC00010D8C828D838EF01233A6
:102CF6008AFBEF242FF5F005F07401800225E0D55C
:102D0600F0FBF4FF52038C828D838EF0EB0231CE02
:012D1600229A
:102D1800AF82BF800040012275A15575A1AA43B1B9
:102D28000475A1007585C0EF2FF5849001EAE0F5E0
:102D38008EE58630E60375869A75A15575A1AA5366
:102D4800B1FB75A10022AF827585C0EF2FF58475A0
:062D5800868E858E8222AA
:102D5E00C021C0E0C0F0C082C083C007C006C0055D
:102D6E00C004C003C002C001C000C0D075D00012A4
:102D7E000635D0D0D000D001D002D003D004D0057B
:102D8E00D006D007D083D082D0F0D0E0D02132C090
:102D9E0021C0E0C0F0C082C083C007C006C005C01D
:102DAE0004C003C002C001C000C0D075D0009002A4
:102DBE0007E0FEA3E04E600E900207E0F8A3E0F5F8
:102DCE00838882120049D0D0D000D001D002D00327
:102DDE00D004D005D006D007D083D082D0F0D0E07A
:102DEE00D0213212319912010212010E80FB75822E
:022DFE000022B1
:102E0000E582FF90378293FEEF90375A93FF70016F
:102E1000229001EBE0FD701BBF0209EEF4FC529220
:102E2000EC529322BF0402800122EEF4FC5296EC95
:102E3000529722BD0214BF0207EE4292EE42932245
:102E4000BF0439EE4296EE429722BD0116BF02083A
:102E5000EEF45292EE429322BF0421EEF45296EE2B
:102E6000429722BD0316BF0208EE4292EEF452933F
:102E700022BF0408EE4296EEF4FE529722AF82BFC4
:102E80000102800FBF02028013BF03028017BF043C
:102E900025801BE5C620E21E539DFB22E5C620E3EC
:102EA00015539DF722E5C630E20C539DFB22E5C683
:102EB00030E303539DF722E582FF90373293FEEF14
:102EC00090378293FDEF90375A93FF7003F582227B
:102ED000EE600D8E82C007C005122E7DD005D00792
:102EE0007E00BF0202800ABF03028009BF040C807B
:102EF00008AE908006AEA08002AEB0ED5E600475B4
:102F000082012275820022E582FF90373293FEEF24
:102F100090378293FDEF90375A93FFEE600D8E82CB
:102F2000C007C005122E7DD005D007A2AFE433FE46
:102F3000C2AFBF0202800ABF03028017BF043680FF
:102F4000249001ECE07007EDF4FF52908027ED42F1
:102F50009080229001ECE07007EDF4FF52A0801504
:102F6000ED42A080109001ECE07007EDF4FF52B04C
:0B2F70008003ED42B0EE6002D2AF2201
:102F7C00AFF0AE83E5829001F2F0EEA3F0EFA3F098
:102F8C009001F2E0F56CA3E0F56DA3E0F56EAA6C90
:102F9C00AB6DAC6E9001EDE0F8A3E0F9A3E0FF900F
:102FAC0001F0E0F56FA3E0F570AD6FAE70156F74C6
:102FBC00FFB56F021570ED4E6020888289838FF00B
:102FCC0012338AFEA3A882A9838A828B838CF0EEAB
:102FDC001231CEA3AA82AB8380CF856C82856D83A0
:042FEC00856EF022DC
:102FF000C0D075D00808B8000D09B900090ABA0098
:10300000050BBB00010CD0D032A2AFC2AFA808A9FB
:1030100009AA0AAB0BAC8A8588F092AF30F512741E
:10302000012C600D08B8000909B900050ABA0001B1
:103030000BC3EC9406FCECC313FC75F07DE8A4F81C
:10304000ADF075F07DE9A42DF9E435F0FD75F07D66
:10305000EAA42DFAE435F0FD75F07DEBA42DFB7D9F
:1030600000EC28F582E93DF583EA3DF5F0EB3D22E1
:10307000A2AFC2AFA808A909AA0AAB0BAC0C92AFC9
:1030800075F020E8A4A8F075F020E9A428F582A83E
:10309000F075F020EAA428F583A8F075F020EBA4E1
:1030A00028F9A8F075F020ECA42889F02285825F29
:1030B00085836085F061F5621230098582638583BE
:1030C0006485F065F566E55F4560456145627001C0
:1030D00022A85FA960AA61AB628563678564688581
:1030E000656985666AE8494A4B60DBC003C002C077
:1030F00001C000123009AC82AD83AEF0FFD000D029
:1031000001D002D003ECC39567FCED9568FDEE9508
:1031100069FEEF956AFFC3EC94E8ED9403EE94002A
:10312000EF940040A118B8FF0919B9FF051ABAFFBA
:10313000011B885F89608A618B6274E82567F56787
:1031400074033568F568E43569F569E4356AF56A4C
:10315000856763856864856965856A668087AE82F0
:10316000AF83C374019EE49F40022200C374029E99
:10317000FE74009FFF00BE0005BF00020022000099
:103180000000000000000000000000000000000E31
:10319000BE00EB0FBF00ED002275A15575A1AA740A
:1031A000F855B94406F5B975A10090138812315E3F
:1031B000759E5D759D0074F055894402F58953C96B
:0D31C000EF758C06C28DD2A9D28CD2AF2241
:1031CE0020F71130F6138883A88220F509F6A8831C
:1031DE007583002280FEF280F5F022C06B85816B34
:1031EE00C082C083E5812405F581AF6B0FE56B24AA
:1031FE0003F8A607087600087640E56B24FCFD7EF2
:10320E00007F40E56B2406F9A86B088604E56B2465
:10321E00FCF886038CF0EBA4F709A7F0E56B240607
:10322E0004F98704A86B08860374012DFAE43EFEA8
:10323E008A828E838FF012338A8BF0A4FBE56B2487
:10324E0003F8740126FDE40836FE0886078D828E8B
:10325E00838FF012338AFDE56B24FCF886078DF020
:10326E00EFA42B2CF7E56B2406F987060987078E4A
:10327E00828F83856B81D06B22AFF0AE83E5829017
:10328E0001FBF0EEA3F0EFA3F09001F9E0FEA3E056
:10329E00FF9001F9E0F5F0A3E045F0700490000016
:1032AE00221EBEFF011FEE4F6075C006C0079001C3
:1032BE00FBE0FBA3E0FCA3E0FD8B008C018D0288FC
:1032CE008289838AF012338AF89001F6E0F56CA3B6
:1032DE00E0F56DA3E0F56EA96CAA6DAF6E89828ADA
:1032EE00838FF012338AF9E8B501028006D007D039
:1032FE0006802CD007D0060BBB00010C9001FBEB17
:10330E00F0ECA3F0EDA3F0AB6CAC6DAD6E0BBB00AF
:10331E00010C9001F6EBF0ECA3F0EDA3F08082909F
:10332E0001FBE0FDA3E0FEA3E0FF8D828E838FF014
:10333E0012338AFD7F009001F6E0FBA3E0FCA3E0D0
:10334E00FE8B828C838EF012338AFB7E00EDC39B44
:08335E00FDEF9E8D82F5832234
:10336600ABF0A2AFE433FEC2AFE0A37A0833D2B328
:103376004002C2B37905D9FEC2B3DAF1DBEBEE60E7
:0433860002D2AF229E
:10338A0020F71430F6148883A88220F507E6A8836C
:10339A0075830022E280F7E49322E022C06B8581E4
:1033AA006BAE82E583FF33E433FD6009C3E49EFB21
:1033BA00E49FFC80048E038F04E56B24FCF808E686
:1033CA0033E433FF600FE56B24FCF8C3E496FA0894
:1033DA00E496FE800AE56B24FCF88602088606C09D
:1033EA0007C005C002C0068B828C8312341CAC82D3
:1033FA00AE8315811581D005D007EF6D600DC3E44A
:10340A009CFDE49EFF8D828F8380048C828E83D004
:10341A006B22C06B85816BAE82AF837C007D007BA3
:10342A0010EF235401FAEE2EFEEF33FFEC2CFCEDE5
:10343A0033FDEA6003430401E56B24FCF8C3EC9610
:10344A00ED08964010E56B24FCF8ECC396FCED08F9
:10345A0096FD430601DBCA8E828F83D06B2275826A
:02346A0000223E
:10346C0012011001000000086252454E01000102D9
:10347C0003010902490002010080640904000002F2
:10348C000301010009211001210122E0000705813F
:10349C00030900010705010309000A0904010002E0
:1034AC0003000000092110010001222200070582FF
:1034BC00032000140705020320001405010906A1CE
:1034CC00018501050719E029E71500250195087507
:1034DC000181029501750881039506750815002672
:1034EC00FF000507190029E78100050819012905C6
:1034FC001500250195057501910295017503910340
:10350C00C005010980A101850219012AB700150126
:10351C0026B700950175108100C0050C0901A101A9
:10352C00850319012AA002150126A0029501751028
:10353C008100C005010902A1010901A10085040552
:10354C000919012908150025019508750181020545
:10355C00010930093109381581257F7508950381DA
:10356C0006C0C00501090EA1018505050D0921A1A3
:10357C000005090901950175011500250181020558
:10358C000109379501750F550F651436F0F146108A
:10359C000E16F0F126100E8106C0C00660FF096100
:1035AC00A1010962150026FF009520750881060906
:1035BC0063150026FF00952075089183C00403094C
:1035CC00041A034300480035003500780051004DC3
:1035DC00004B004C006900740065004E004B006508
:1035EC000079000A034E004B006500790052006F11
:1035FC0000620069007400040352006F00620069ED
:03360C0000740047
:02360F000708AA
:1036110068D169D26AD36BCD6CCE6DCF6ED06FD9C4
:0236210070DA5D
:013623000B9B
:0D3624007020000000000000000AFF64326A
:10363100000000007E0F00D4FFFFFFC700000078EC
:103641000000000000000000000000000000000079
:103651000000000000000000000000000000000069
:1036610000000000000000002A2B280000000000DC
:103671000000000000000000000000290000000020
:103681002C1E3420212224342627252E362D37388E
:10369100271E1F202122232425263333362E373897
:1036A1001F0405060708090A0B0C0D0E0F10111255
:1036B100131415161718191A1B1C1D2F3130232D21
:1036C100350405060708090A0B0C0D0E0F1011121F
:1036D100131415161718191A1B1C1D2F3130354CD0
:1036E100A8E200A9E900AAEA00ABB500ACB600BBAC
:1036F100B300BCB400ADB700B0CC00AECD00AF8319
:1037010001B18A01B29201B39401BF9F01C0CB0103
:10371100B42102B52302B62402B72502B82602B9A4
:103721002702BD6F00BE7000BA2A02C19F02C2A06B
:013731000295
:103732000000000000000000000000000000000186
:103742000000000000000000000000000000030470
:10375200000002000000000001010101010101015D
:10376200000002020202020202020000030303033B
:10377200030303030000040404040404040400001B
:1037820001020408102040800000010204081020F9
:103792004080000001020408102040800000010265
:1037A2000408102040800000FFFFFFFFFFFFFFFF23
:1037B200FFFFFF00FFFF0102FFFFFFFFFFFFFFFF11
:1037C200FFFFFFFFFFFFFFFF03FFFFFFFFFFFFFF03
:0237D200F12DD7
:0137D40000F4
:0137D50000F3
:0137D60000F2
:0437D70000000000EE
:0237DB000000EC
:00000001FF
