:0400000002004B327D
:03000B00022FC6FB
:0100130032BA
:01001B0032B2
:0100230032AA
:01002B0032A2
:01003300329A
:03003B00022D7320
:03004300022D3457
:03004600022DC7C1
:0F004900E4737581BC12343EE582600302004609
:10005800790BE94400601B7A019037A078FE75A0FF
:1000680001E493F2A308B8000205A0D9F4DAF27506
:02007800A0FFE7
:06007A00E478FFF6D8FD5A
:100080007800E84400600A790A75A001E4F309D811
:10009000FC78F4E84400600C790190010AE4F0A3D4
:0400A000D8FCD9FAB5
:0900A400751000751100751200C1
:0900AE00E4F51AF51BF51CF51D23
:0600B800751E00751F001B
:1000BE0078A876FF78A9760078AA760078AB7600D5
:0C00CE00753EFFE4F53FF540F541F542BA
:0600DA0078AEE4F608F622
:0600E000754600754700A3
:0900E6007552FF755300755403B7
:1000F0007808E4F608F608F608F6780C76000200B0
:0101000046B8
:0601020002010802010EDB
:090108001202400215620216D930
:1001120075D30074FC55D24402F5D275100022301A
:10012200DE1190000AE0FFBF010990000BE0FF9092
:100132000200F022E58290010AF07E007F00E510C5
:1001420060240EBE00010F900005C007C0061231E8
:1001520034D006D0078E048F05C3EC9420ED944E64
:1001620040DC7582002290010AE09001EDF0E4A3E8
:10017200F07440A3F09001F0E513F0E4A3F09000D6
:100182004A75F000122F528513D375100153D2FC19
:100192007582012275D50074FC55D44402F5D475DC
:1001A20011002230DE0375120122E512602C90014B
:1001B200ED748AF07400A3F0E4A3F09001F07420CF
:1001C200F0E4A3F090007675F040122F5278B576E5
:1001D200207582761225E775120022E58290010BC6
:1001E200F07E007F00E51160200EBE00010F90003E
:1001F20005C007C006123134D006D007C3EE9450B2
:10020200EF94C340E07582002290010BE09001ED73
:10021200F0E4A3F07440A3F09001F0E514F0E4A33D
:10022200F09000CA75F000122F528514D575110195
:1002320053D4FC75820122900200E0F5822212065C
:10024200CE1206F81206E775DD0075D30075D500EB
:010252002289
:10025400AFDBBF0802800302058D900007E0FE7F3C
:1002640000900006E0FD7C004FF515EC4EF5167F7E
:1002740000900001E0F517900201E4F0900000E026
:10028400FE546060057FFF02058FE51724F45003D8
:10029400020589E517240B83F582E517241083F5FD
:1002A40083E4736B1C89A689E6BF89F3108F8F05DD
:1002B4000405040503020503040505900003E0FE9C
:1002C400BE01028012BE02028018BE0302801EBE5E
:1002D400220280660203767518427519347F120271
:1002E40003787518547519347F4902037890000215
:1002F400E0700875189F7519358034900002E0FE8F
:10030400BE01087518D97519358024900002E0FEE5
:10031400BE02087518C57519358014900002E0FEF8
:10032400BE03087518A375193580047FFF804585C1
:100334001882851983E493FF803A900002E0702EBE
:10034400900004E0700E75189D75193490346DE4B6
:1003540093FF8020900004E0FEBE010E75187D75A9
:10036400193590348DE493FF800A7FFF80067FFF68
:1003740080027FFFBFFF0302058F8F057E00C3ED60
:100384009515EE951650048D158E16AD15AE16C343
:10039400ED9408EE9400920040067B087C008004F3
:1003A400AB15AC168B077C00C3EC9F50198C027BF9
:1003B40000EC2518F582E43519F583E493F98A8273
:1003C4008B83F00C80E28F037C00EDC39BFDEE9CDD
:1003D400FE8D158E16EF2518F518E43519F519025A
:1003E400058F900002E0FE8E1575160002058F90B1
:1003F400010CE0900000F0AD15AE16C3ED9401EED3
:100404009400500302058F7F0102058F900002E0E3
:10041400FE90010CF002058F900000E0541F702F35
:10042400900003E0FD7E00900002E0FC7B004206A9
:10043400EB4205BE0114BD001190345BE493FE3021
:10044400E50302058F7FFF02058F7FFF02058F9072
:100454000000E0FE53061F7D00BE0241BD003E9039
:100464000004E0FEBE01028029BE02028013BE81A8
:10047400028014BE822274BC55D44402F5D4020511
:100484008F53D47302058F74BC55D24402F5D20243
:10049400058F53D27302058F7FFF02058F7FFF0202
:1004A400058F900000E0541F702F900003E0FD7E44
:1004B40000900002E0FC7B004206EB4205BE011402
:1004C400BD001190345BE493FE30E50302058F7F99
:1004D400FF02058F7FFF02058F900000E0FE5306A8
:1004E4001F7D00BE0205BD000280028076900003DD
:1004F400E0FD7E00900002E0FC7B004206EB42053A
:10050400EE4D705B900005E0FD7E00900004E0FC81
:100514007B004206EB4205BE0105BD00028034BEED
:100524000205BD00028018BE8105BD0002801ABE0E
:100534008229BD002674BF55D44403F5D4804C747D
:100544007F55D4440CF5D4804274BF55D24403F58E
:10055400D28038747F55D2440CF5D27FFF802C7F33
:10056400FF80287FFF8024900000E4F0900001F0D9
:10057400AD15AE16C3ED9402EE940040047F0280E4
:100584000AAF1580067FFF80027FFFBFFF07751744
:10059400FF75DCCF22EF24F740068FDD75DCC02227
:1005A40075DD0075DCC0227405B51702805D740624
:1005B400B51766AE15AF16C3EE9408EF940092011A
:1005C40040067C087D008004AC15AD167D00C3EDAB
:1005D4009C50198D027B00ED2518F582E43519F540
:1005E40083E493F98A828B83F00D80E28C037D008F
:1005F400EEC39BFEEF9DFF8E158F16EC2518F518A4
:10060400E43519F5198CDD63DC4022E5E35480FF01
:10061400E5154FF5E375DC022275DD0075DC022279
:1006240075DD0043DC022220D9030206A1E5D9547A
:100634000FFFADD95305307E00BD0005BE0002801A
:1006440018BD1005BE00028052BD2005BE00028008
:1006540026BD3047BE0044803CBF0002800ABF0173
:1006640002800ABF0235800A120624802E1201215C
:1006740080291201A58024BF0002800ABF010280E4
:100684000ABF0217800A1205AB8010120112800BF8
:100694001201968006BF0003120254C2D930D81D3D
:1006A40075DC0275D21275D41275E300C2DAC2D9B0
:1006B400C2D875100075110090010CE4F010DA0135
:1006C40022E5DA20E20375D8FF2275E20053E27FC7
:1006D40043E22975E30053E2BF53D1FB75D1804354
:1006E400D1012243E10443E10243E10143D81FD293
:1006F400EAD2AF227E007F008EEC8FED7E0A7F006F
:100704008EEE8FEF7E8A7F008EE48FE575D21275B0
:0C071400D41275EAC075EB0C75DC0222F3
:1007200012304685821A85831B85F01CF51D220236
:100730000732123046AC82AD83AEF0FFECC3951A9F
:10074000FCED951BFDEE951CFEEF951D8C828D83B7
:100750008EF022AF83E58290010DF0EFA3F0120737
:100760002FAE82AF8390010DE0FCA3E0FDEEC39CB1
:10077000FEEF9D8E82F58322900114E06003120C3F
:10078000209001ED740FF07401A3F0E4A3F0900148
:10079000F07406F0E4A3F090011575F000122F52EA
:1007A000900119E0700302131690011575F0001204
:1007B0001A67E5827001227D827E017F009001ED43
:1007C0007415F07401A3F0E4A3F09001F07402F04A
:1007D000E4A3F08D828E838FF0122F5275E01DC03E
:1007E000E075E001C0E075E000C0E01216E615819A
:1007F000158115819001ED741DF07401A3F0E4A33F
:10080000F09001F07402F0E4A3F090011B75F00089
:10081000122F527D1F7E017F009001ED7415F07440
:1008200001A3F0E4A3F09001F07406F0E4A3F08DCE
:10083000828E838FF0122F527D257E017F009001E2
:10084000ED741BF07401A3F0E4A3F09001F07402C6
:10085000F0E4A3F08D828E838FF0122F5202086095
:10086000900126E0C4540FFF6012BF0102800DBF4B
:10087000040302090BBF050302095522900126E07B
:1008800054F07009900126E0540FFF800B90012670
:10089000E0540FFEC454F0FF900124E06034EF6098
:1008A00028900125E0FEBEE0004009900125E0FE11
:1008B00024185006900125E070078F82120BF680F5
:1008C000058F82120C0B120B9D900125E0F5820220
:1008D0000973900125E0F582C007120A23D007EFC3
:1008E000700122900125E0FEBEE000400990012544
:1008F000E0FE24185006900125E070078F82120C4C
:100900000080058F82120C15020B9D900126E003DA
:10091000035403FF6005BF0159801D900124E0606E
:100920000C900125E0FEA3E05403FF80047E007FCD
:10093000008E828F8302288C900124E0600C90014D
:1009400025E0FEA3E05403FF80047E007F008E823A
:100950008F830228CC900124E0600B900125E0F504
:1009600082120B168009900125E0F582120B2A02F3
:100970000B4F22E582900127F0E0FF700122BF04B7
:1009800000402FEF245B402A9001D4EFF0900096B6
:1009900075F040C00712295CE582D00760088F829D
:1009A000120AEE120B9D900127E0F582120ADA027C
:1009B0000B9D900127E0FFBFE000401DEF24184091
:1009C0001874075FF5F005F07401800225E0D5F09A
:1009D000FBF582120BF6020B9D900127E0FFBFA5ED
:1009E00000400FEF2458400A8F82122AA4AF8302DE
:1009F000288C900127E0FFBFA800400FEF243D4066
:100A00000A8F82122ACBAF830228CC900127E0FF05
:100A1000BFCD00400DEF242040088F82120B16023C
:100A20000B4F22E582900128F0E0FF700122BF0405
:100A300000400DEF245B40088F82120AEE020B9DEE
:100A4000900128E0FFBFE000401DEF24184018741B
:100A5000075FF5F005F07401800225E0D5F0FBF5A5
:100A600082120C00020B9D900128E0FFBFA5004000
:100A70000BEF2458400690000002288C900128E0DB
:100A8000FFBFA800400BEF243D4006900000022865
:100A9000CC900128E0FFBFCD00400DEF242040089E
:100AA0008F82120B2A020B4F22E582900129F0E07F
:100AB000FFF582C007120973D007BF390B900050B1
:100AC000E4F5F01230838009900000E4F5F0123074
:0A0AD00083900129E0F582020A2359
:100ADA00E58290012AF0E09001D8F090009675F036
:100AEA00400229AAE58290012BF0E09001DCF09007
:100AFA00009675F040022A247F00BF09005009EFD2
:100B0A002496F876000F80F2751E0022E582900185
:100B1A002CF0E09001E2F090009F75F040022B1259
:100B2A00E58290012DF0E09001E6F090009F75F0CB
:100B3A0040022C2978A1760078A2760078A3760064
:100B4A0078A07600229001F6742EF07401A3F0E4E6
:100B5A00A3F09001F97405F0E4A3F090009F75F0FA
:100B6A004012325DE5828583F045F060259001ED03
:100B7A00749FF0E4A3F07440A3F09001F07405F0C0
:100B8A00E4A3F090012E75F000122F5275829F0295
:100B9A002934227897A61EE51F451E7897F69001FC
:100BAA00F67433F07401A3F0E4A3F09001F9740928
:100BBA00F0E4A3F090009675F04012325DE582856C
:100BCA0083F045F060259001ED7496F0E4A3F0748B
:100BDA0040A3F09001F07409F0E4A3F0900133759A
:100BEA00F000122F5275829602290F22E582900197
:100BFA003CF0E0421E22E58290013DF0E0F4521EF4
:100C0A0022E58290013EF0E0421F22E58290013FF8
:100C1A00F0E0F4521F22751F0022AF83E582900193
:100C2A0040F0EFA3F0900140E0FEA3E0FFBE000514
:100C3A00BF7E02801FBE0105BF7E028008BE021B66
:100C4A00BF7E18800778A5E64401F62278A576C803
:100C5A000876002278A576380876FF22AF83E582E7
:100C6A00900142F0EFA3F0900142E0FEA3E0FFBE44
:100C7A000005BF7E028017BE0105BF7E028008BE46
:100C8A000213BF7E10800778A5E654FEF62278A5E7
:100C9A007600087600229001F67444F07401A3F0FD
:100CAA00E4A3F09001F97404F0E4A3F09000A475B1
:100CBA00F04012325DE5828583F045F060249001B0
:100CCA00ED74A4F0E4A3F07440A3F09001F0C4F032
:100CDA00E4A3F090014475F000122F527582A40229
:030CEA0029482274
:100CEE00E523FF7027852426852425852427E58185
:100CFE0024FCF886820886830886F0E5251231A446
:100D0E00A3E5261231A4A3E5270231A48F2A752B61
:100D1E000085242C752D00AB228B027F00C003C0F2
:100D2E0002C0079000061231BFAE82AF8315811547
:100D3E008174FFC0E0E4C0E08E828F8312337CAEFC
:100D4E008215811581D0038E28EB2BFBE52875F0DB
:100D5E0055A4D39BF475F003A4F52974FFC3952A0B
:100D6E00FAE4952BFFC002C007852C82852D8312D5
:100D7E0031BFAF8315811581AA297B00C007C00240
:100D8E00C003852A82852B831231BFAB8315811553
:100D9E00818B027B0074FFC39AFAE49BFBC002C0F6
:100DAE0003852C82852D831231BFAB83158115816E
:100DBE00AA297E0074FFC39AFAE49EFEAC2AAD2BDC
:100DCE00C003C002C0068C828D831231BFAE831564
:100DDE008115818E057E0074FFC39DFDE49EFEAAE3
:100DEE002CAC2DC005C0068A828C831231BFAD8219
:100DFE00AE8315811581D003D007E52824F9404E26
:100E0E00E52875F003A4900E1873020E2A020E3414
:100E1E00020E3E020E48020E52020E5CAC2C8C26C6
:100E2E008E258F2780308B26AC2C8C258F27802605
:100E3E008F26AC2C8C258E27801C8F268B25AC2CD8
:100E4E008C2780128E268F25AC2C8C278008AC2CFC
:100E5E008C268F258B27E58124FCF88682088683D5
:100E6E000886F0E5251231A4A3E5261231A4A3E5E8
:100E7E00270231A4AFF0AE83E58290014FF0EEA3CE
:100E8E00F0EFA3F0900152E4F090014EE060169066
:100E9E0002027401F012072FE5828583F09001485B
:100EAE00F0E5F0A3F0900202E07003020F709001E3
:100EBE0048E0FEA3E0FF8E828F83120753AE82AF0F
:100ECE0083C3EE9405EF94005003020F7090014A15
:100EDE00E0FDA3E0FEA3E0FF8D318E328F33900153
:100EEE004FE0F52EA3E0F52FA3E0F530A82EA92FA5
:100EFE00AC3090014DE0FA7B009001F6E8F0E9A3EA
:100F0E00F0ECA3F09001F9EAF0EBA3F085318285C5
:100F1E0032838533F0C007C006C005C003C002127D
:100F2E00325DE5828583F0D002D003D005D006D0A5
:100F3E000745F06028A82EA92FAC309001EDE8F0FF
:100F4E00E9A3F0ECA3F09001F0EAF0EBA3F08D82B0
:100F5E008E838FF0122F529001527401F090020284
:090F6E00E4F0900152E0F582224A
:100F7800E582900155F0E025E0240BFF900153E055
:100F880025E02FFF900154E025E02FFFF582C007F0
:100F9800122D24AE82D0078E057E000F8F82C006E8
:100FA800C005122D24AF82D005D006E4FCEF2EFE3A
:100FB800EC3D8E82F58322E58290015AF0E025E02F
:100FC800240BFF900156E025E02FFF900157E02504
:100FD800E02FFF900158E0FDA3E0FE9001EAF08FBA
:100FE80082C007C006C005122CEED005D006D00777
:100FF8000F9001EAEDF08F82022CEE7F00BF010016
:10100800400122EFFE75F002A424E5FC743535F0AA
:10101800FD7B00BB0100506BEBFA25E02CF8E43DAA
:10102800F975340074FF25344056C004C005E53412
:10103800253428F582E439F583E493FCA3E493FD91
:10104800900156EAF0900157E534F0900158ECF021
:10105800EDA3F08E82C007C006C005C004C003C05F
:1010680002C001C000120FBFD000D001D002D003CF
:10107800D004D005D006D0070534D005D00480A40C
:071088000B80900F02100520
:101090007F00BF6D0050178F0674132EFE9001EA7B
:1010A000E4F08E82C007122CEED0070F80E4227F7E
:1010B00000BF050050148F060E9001EAE4F08E8206
:1010C000C007122CEED0070F80E722120B02120B82
:1010D0009D120B3E020B4FE58290015BF0E0FF7E1C
:1010E00000BE0900502CEE75F002A4FCADF024E720
:1010F000F582ED3435F583E493FBB50712EC24E774
:10110000FCED3435FD8C828D83A3E493F582220EB1
:1011100080CF90015BE0F58222E58290015CF012C5
:1011200010CB78A8860790015CE0FEEFB506057845
:10113000A876FF2278A9767F78A986078F82C006D5
:10114000122D24E582D00660012278A8A60678AC8C
:1011500076000876008E070F8F82C006122D24E5D8
:1011600082D00678ABF678A976138E07EF602D78DB
:10117000A98606BE800578A876FF2278A986068E05
:1011800082C007122D24E582D00770061F90015CF3
:10119000EFF078A9E6FE0478A9F680D078A9860752
:1011A00078AAA607227535007536007537007538A0
:1011B00000753900753A00753B00753C00753D00BF
:1011C00078A9E6FF0478A9F68F82122D24AF828FCA
:1011D00035AE35EF700475820222BE010280030233
:1011E000130D78A9E6FF0478A9F68F82122D24AF9B
:1011F000828F36AD36EF7003F58222BD0102800882
:10120000BD02028003BD034F78A9E6FF0478A9F66A
:101210008F82122D24E582F5377003F582228537FF
:10122000821210D7E582F537AF36BF0102800DBFBD
:1012300002028011BF030280150213128537821249
:101240000AA9021312853782120973021312853715
:1012500082120A23021312BD040280030213127FBA
:1012600002EF2435F978A9E6FD0478A9F68D82C04D
:1012700007C001122D24AD82D001D007A705ED7063
:1012800003F582228705BD7C02800ABF07047582B0
:1012900000220F80CC90015DE4F0A3F090015FE5A7
:1012A00037F07F0290015FE0FDBD30009202404CBC
:1012B000ED24C69202404590015DE0FCA3E0FDC034
:1012C00007C004C00590000A1231BFAC82AD83157F
:1012D000811581D00790015FE07A0024D0FBEA34C9
:1012E000FFFAEB2CFCEA3DFD90015DECF0EDA3F084
:1012F0000FEF2435F990015FE7F080A890015DE0E1
:10130000FDA3E0FF78ACA60508A60780058E821233
:10131000226E7582012278A88607BFFF012278AC71
:101320008606088607EE4F600D1EBEFF011F78ACD3
:10133000A60608A607221211A5AF82BF022178AB2C
:10134000E6FE6013BEFF028005EE1478ABF678AAC5
:10135000860578A9A60522EE700F78A876FF22EF01
:0A136000700778A876FF0210CB2278
:10136A00E582900161F0E075F006A4240DFF90017A
:10137A0060E025E02FFFF582C007122D24AE82D04F
:10138A00078E057E000F8F82C006C005122D24AF7E
:10139A0082D005D006E4FCEF2EFEEC3D8E82F5836A
:1013AA0022E582900165F0E075F006A4240DFF9015
:1013BA000162E025E02FFF900163E0FDA3E0FE90CB
:1013CA0001EAF08F82C007C006C005122CEED005D4
:1013DA00D006D0070F9001EAEDF08F82022CEE7F43
:1013EA0000BF060050178F06740D2EFE9001EAE426
:1013FA00F08E82C007122CEED0070F80E422E5821D
:10140A00900168F0E024F090016AF0900166E0141F
:10141A00900169F0900167E090016EF012072FAE1B
:10142A0082AF8390016BEEF0EFA3F090016D74012F
:10143A00F07D0F7E017F009001ED7469F07401A3C5
:10144A00F0E4A3F09001F07406F0E4A3F08D828E2C
:10145A00838FF0122F52020778753EFF753F007591
:10146A0040002274FFB53E012285418285428312E3
:10147A000753AE82AF83C374C89EE49F5052E53FC0
:10148A00FF701AE54070499001667403F090016795
:10149A007401F0853E8212140875400122EF24FD82
:1014AA00402B900166EFF09001677401F0853E824F
:1014BA0012140890000AE4F5F0123083900166E5F0
:1014CA003FF0900167E4F0853E821214080214632B
:1014DA0022AF83E582900172F0EFA3F0900172E0EF
:1014EA00FEA3E0FF8E048F05C3EC9407ED947E40C3
:1014FA0062740B9C747E9D405AEE24F9FF90016F32
:10150A00E0FCA3E0FDA3E0FE74052CFCE43DFD8CA9
:10151A00828D838EF012336060048F3E8024E54012
:10152A0060169001667403F0900167E4F0853E82CC
:10153A00121408121463800AEFB53E06E53FFF0451
:10154A00F53F12072FE5828583F0F54185F0427554
:07155A0082002275820122CC
:1015620012072012196512234C021E2012072FAEF9
:1015720082AF8378AEEEC396FCEF08964C700122E0
:10158200900174E4F0900175F0900174F09001758F
:10159200F0900176F0A3F0900178F0900179F0C01C
:1015A20007C00612072FAC82AD83900176ECF0EDF6
:1015B200A3F0900178E4F0900179F07B0F7C017D3B
:1015C200009001ED7474F07401A3F0E4A3F09001B3
:1015D200F07406F0E4A3F08B828C838DF0122F520C
:1015E200D006D007C007C006120778D006D0077809
:1015F200AEA60608A6072212197FE582700302151D
:101602006E7F00BF0100400122EF24B2F9870690ED
:10161200017AEEF0EF24B0F98705EE6205ED700372
:101622000216D590017B7401F08F437B00BB010051
:1016320040030216CC90017BE0FA5D70030216C0F3
:10164200C005EE5202EA24FFE433FA90017DE5433D
:10165200F090017CEBF0900181EAF0C007C006C077
:101662000312072FAA82AD83D00390017EEAF0ED28
:10167200A3F09001807401F07A0F7C017D0090014B
:10168200ED747CF07401A3F0E4A3F09001F0740611
:10169200F0E4A3F08A828C838DF0C005C003122F80
:1016A20052D003D005D006D007C007C006C005C07F
:1016B20003120778D003D005D006D007D0050B90CF
:1016C200017BE025E0FCF002162FEF24B0F9900137
:1016D2007AE0F70F0216051215F91201AC12146D19
:0316E200021BC721
:1016E6007D847E017F009001ED7482F07401A3F089
:1016F600E4A3F09001F07402F0E4A3F08D828E83EF
:101706008FF0122F521217F0AE82AF838E048F0520
:10171600C3EC9404ED9400400774A49CE49D50101F
:10172600C3EC94E0ED9400400E74E79CE49D400702
:101736008E448F450217D8C3EC94A5ED9400401B48
:1017460074A79CE49D40148E038B82122AA4AA825D
:10175600AB834303408A448B458077C3EC94A8ED62
:101766009400401B74C29CE49D40148E038B82122D
:101776002ACBAA82AB834303448A448B458053C356
:10178600EC94CDED9400401374DF9CE49D400C8CEA
:101796000274504DFB8A448B458037BC010BBD005B
:1017A60008754401754500802974FF2D501FC374C8
:1017B600FF9C741F9D40168F0653061F8E07E4FE7E
:1017C600FDEC4206ED42078E448F458005E4F54464
:1017D600F545E58124FCF886820886830886F0E5CF
:1017E600441231A4A3E5450231A4900185E0FFBF70
:1017F6000100501A900184E0FEBE010050109001D5
:1018060053EFF0900154EEF0854682020F78BFF058
:10181600004016EF24054011EF2410FF900184E0EC
:0D182600900160F08F8202136A9000002292
:10183400E582900186F0E0FF9001EB7401F08F8265
:10184400C007122DD6D0079001ECE4F08F82022E4F
:10185400DDE582900187F0E0FF9001EC7401F08FE8
:1018640082C007122EDDD0079001EB7402F08F8244
:10187400022DD6E582900188F0E0F582122E8DE5E6
:10188400827004FEFF80047E017F008E82227F002E
:10189400BF0100503BEF24F9FDE43435FE7C00BC6D
:1018A40001005029EC2DF582E43EF583E493FB908E
:1018B40001EB7402F08B82C007C006C005C004129D
:1018C4002DD6D004D005D006D0070C80D20F80C00E
:1018D40022AFF0AE83E58290018AF0EEA3F0EFA38D
:1018E400F090018DE4F090018E04F0900189E0FF06
:1018F40024F9FDE43435FE7C00BC01005043EC2D9A
:10190400F582E43EF583E493F582C007C006C00582
:10191400C004121877E582D004D005D006D0076041
:10192400067A007B00800890018EE0F9FA7B009033
:10193400018DE0F94AF00C90018EE025E0FBF08087
:10194400B890018AE0FCA3E0FDA3E0FEEF2CFFE4E5
:101954003DFB8E0290018DE08F828B838AF00231F1
:10196400A41218927F00BF0100500FEF24B2F87642
:1019740000EF24B1F876000F80EC2290018FE4F0A0
:101984007F00BF01005015900189EFF090018F7521
:10199400F000C0071218D5D0070F80E69001F67446
:1019A4008FF07401A3F0E4A3F09001F904F0E4A330
:1019B400F09000B175F04012325DAE82AF83EE4F0D
:1019C400B401009203900190B3E433F0900190E0ED
:1019D400FFE060229001ED748FF07401A3F0E4A3A2
:1019E400F09001F004F0E4A3F09000B175F040C071
:1019F40007122F52D00790014A74B2F0E4A3F07496
:101A040040A3F090014D7401F090014EEFF090006E
:071A1400B175F040020E82E3
:101A1C00AF83E582900194F0EFA3F0900191E0FD8B
:101A2C00A3E0FEA3E0FF74052DFDE43EFE8D828E47
:101A3C00838FF01233606011900194E0FEA3E0FFFD
:101A4C008E828F83120C24800F900194E0FEA3E011
:101A5C00FF8E828F83120C66020CA0AFF0AE83E572
:101A6C0082900196F0EEA3F0EFA3F0900196E0FDCA
:101A7C00A3E0FEA3E0FF7A847B017C009001EDEDF6
:101A8C00F0EEA3F0EFA3F09001F07402F0E4A3F0F9
:101A9C008A828B838CF0122F521217F0AE82AF8396
:101AAC00900196E0FBA3E0FCA3E0FD90016FEBF04E
:101ABC00ECA3F0EDA3F08E828F83C007C006121446
:101ACC00DBE582D006D0077003F582228E048F05E9
:101ADC0074822D502AC374029C747E9D4021900107
:101AEC0096E0FBA3E0FCA3E0FD900191EBF0ECA3EE
:101AFC00F0EDA3F08E828F83121A1C758200229057
:101B0C000196E0FBA3E0FCA3E0FD9001C4EBF0EC3C
:101B1C00A3F0EDA3F08E828F83C007C0061223833F
:101B2C00E582D006D0077003F58222900196E0FB87
:101B3C00A3E0FCA3E0FD9001A0EBF0ECA3F0EDA37F
:101B4C00F08E828F83121CB7E5827003F5822275AA
:031B5C00820122E1
:101B600078B3865008865175540122E58290019918
:101B7000F07F00E0FEB55203D38001C3B392047836
:101B800053A204E433F6BE00028005BE0716800DA2
:101B900090005375F040121E56AF828016121E92AE
:101BA000AF82800FBE0100400AEE24F940051220EA
:101BB00064AF82EF7010755402E55370099001997B
:101BC000E070037554032212072FE5828583F078B5
:101BD000B3F608A6F0E55424FC4042E55475F00342
:101BE000A4901BE573021BF1021BF4021BFA021CFA
:101BF00004021B60854882021B6B8548521221FA41
:101C000075540322855082855183120753AE82AFEB
:101C100083C3EE9414EF9400400375540022E582D0
:101C200090019AF0E0FF8F489001EAEFF07582068C
:101C3000022CEEE58290019BF0E0F54822758206C9
:101C4000122D24E582F54822E58290019DF0E0F511
:101C50004990019CE0F54A9001EAE549F075820758
:101C6000122CEE9001EAE54AF0758208022CEEE5AE
:101C70008290019EF0E0FF8F4B9001EAEFF07582B9
:101C800009022CEEE58290019FF0E0FF8F4C90015D
:101C9000EAEFF075820A022CEE90019C74FFF07559
:101CA000820A121C48758264121C6F758232121CE3
:101CB00084758202021C1EAF83E5829001A3F0EFBF
:101CC000A3F09001A0E0FDA3E0FEA3E0FF74052DCA
:101CD000FDE43EFE8D828E838FF01233607003022E
:101CE0001E1C9001A3E0FEA3E0FFC3EE940CEF9452
:101CF0007E5003021E1CC374149E747E9F50030208
:101D00001E1CBE0C05BF7E028023BE1105BF7E02D5
:101D10008031BE1205BF7E028041BE1305BF7E0228
:101D20008053BE1405BF7E028063021DA7AD480D1F
:101D30008D48BD07004003754800854882121C1E6F
:101D4000021E18AD4BBDF5004003021E18740A2D8B
:101D5000F54B854B82121C6F021E18E54BFD24F5D6
:101D60005007ED24F6F54B8003754B00854B82122E
:101D70001C6F021E18AD4CBDF5004003021E187406
:101D80000A2DF54C854C82121C84021E18E54CFD70
:101D900024F55007ED24F6F54C8003754C00854C76
:101DA00082121C84021E18BE0D05BF7E028018BE62
:101DB0000E05BF7E028023BE0F05BF7E02802EBEB1
:101DC000104ABF7E478039AF49BFFA0050077405FB
:101DD0002FF54980377549FF8032E549FF24FA50D5
:101DE00007EF24FBF5498024754900801FAF4ABFE7
:101DF000F5005007740A2FF54A8011754AFF800CD0
:101E0000E54AFF24F55005EF24F6F54A90019CE5DC
:101E10004AF0854982121C4875820022758201228F
:101E20001221EE758206122D24E582F5487582078F
:101E3000122D24E582F549758208122D24E582F5DC
:101E40004A758209122D24E582F54B75820A122DFE
:101E500024E582F54C22AFF0AE83E5829001A5F037
:101E6000EEA3F0EFA3F09001A5E0FDA3E0FEA3E058
:101E7000FF8D828E838FF01233607003F582229083
:101E800001BEE4F09001BFF0758200122236758227
:101E9000002275820022AFF0AE83E5829001A8F0A7
:101EA000EEA3F0EFA3F09001A8E0FDA3E0FEA3E015
:101EB000FF74022DFAE43EFB8F048A828B838CF040
:101EC000123360F56CC3940A50077407B54802805A
:101ED000249001A8E0F56FA3E0F570A3E0F571058B
:101EE0006FE4B56F020570856F828570838571F030
:101EF00074FE0231A474012DFAE43EFB8F048A8241
:101F00008B838CF0123360F56F756D03756E00C3B3
:101F1000E56E956C400122E56F75F003A424BBF5D6
:101F200072740135F0F57374012572F574E435733C
:101F3000F575E56D2DFAE43EFB8F048A828B838C68
:101F4000F0123360857482857583F0856D747575C4
:101F50000074012574FAE43575FCEA2DFAEC3EFCB8
:101F60008F038A828C838BF0123360857282857333
:101F700083F074022572F572E43573F573740225EB
:101F800074FAE43575FCEA2DFAEC3EFC8F038A8284
:101F90008C838BF0123360FA857282857383F0052F
:0D1FA0006E056FAB6D74032BF56D021F0F06
:101FAE00E5829001ACF0E0FF9001ABE0FE7D000E0B
:101FBE00BE00010D7C00C006C0058F828C831231DD
:101FCE00BFAF83158115818F068E8222AF83E58286
:101FDE009001AEF0EFA3F09001ADE0FF7E000FBFD9
:101FEE0000010E9001AEE0FCA3E0FDC007C0068C20
:101FFE00828D831231BFAF83158115818F067F00CD
:10200E008E828F8322E5829001B0F0E0FF30E707E9
:10201E009001B0C3E49FF09001B0E0F58222E5821A
:10202E009001B2F0E0FF7E009001B1E07C002FFF46
:10203E00EC3EFE9001B3EFF0EEA3F0C374FF9FE40D
:10204E009E50099001B374FFF0E4A3F09001B3E049
:10205E00FEA3E08E8222854A56854B57E54C03033C
:10206E00543FFF9001B17401F08F8212202CAF8289
:10207E009001ADEFF0855082855183121FDAAE824A
:10208E007F00BF010040030221EAE548FD24F9501C
:10209E0003022164ED2D2D9020A9730221640220EC
:1020AE00BE0220C40220C90220D70220EE02213631
:1020BE008549550221648E55022164EF2F9035FD1E
:1020CE0093FDC39EF555022164EF2F24FDFDE434EC
:1020DE0035FC8D828C83A3E493FDC39EF5558076EB
:1020EE00AD49EF2F24FDFCE43435FB8C828B83A3AA
:1020FE00E493FAC0079035FBE493FFEAC39FF582A1
:10210E00C006C005C004C003122013AF82D003D096
:10211E0004D005D006EF2DFF8C828B83E493C39EF3
:10212E00FC2FF555D007802EAD49EF2F9035FD933E
:10213E00C39EF582C007C006C005122013AC829064
:10214E0001AB7430F08C82121FAEAC82D005D0067B
:10215E00D007EC2DF5557B227C007D409001ED746F
:10216E0055F0E4A3F0EDA3F09001F07403F0E4A3B6
:10217E00F08B828C838DF0C007C006122F5275E053
:10218E00B8C0E075E001C0E075E000C0E0120CEEF2
:10219E001581158115819001ED74B8F07401A3F0CD
:1021AE00E4A3F09001F07403F0E4A3F09001B57590
:1021BE00F000122F52D006D0079001B6E0F55890DD
:1021CE0001B5E0F5599001B7E0F55A8F82C007C00E
:1021DE000612220FD006D0070F0220907582002221
:1021EE009001EB7401F0758221022DD67EBB7F012A
:1021FE007D007C004305038E828F838DF0EC0233CD
:10220E003CE58275F003A424BBFE740135F0FF8E0D
:10221E00828F83A3E558F08E828F83E559F08E82EC
:10222E008F83A3A3E55AF022E5829001C0F0E0FF70
:10223E009001BEE0FE9001BFE0FD7C00BC010050AD
:10224E001E8F588E598D5A8C82C007C006C005C08D
:10225E000412220FD004D005D006D0070C80DD2248
:10226E00E5829001C1F0E0FF90362F93FE7D00C015
:10227E0007C006C0057408C0E0E4C0E08F828D83FD
:10228E0012337CAB82AC8315811581D005D006D07C
:10229E0007EB24FFF582EC3435F583E493FA53070C
:1022AE00078FF005F0EA8002C313D5F0FB5401F559
:1022BE005BEB240FF582EC3436F583E493FA8FF062
:1022CE0005F0EA8002C313D5F0FB5401F55CEB2454
:1022DE001FF582EC3436F583E493FC8FF005F0ECB9
:1022EE008002C313D5F0FB5401FFE55B600E7582CF
:1022FE00E1C007C006120973D006D007E55C600E78
:10230E007582E6C007C006120973D006D0078E820A
:10231E00C007120AA9D007E55C600A7582E6C007FD
:10232E00120A23D007E55B600A7582E1C007120A24
:0D233E0023D007EF600675822C020AA92249
:10234C00758200122D24AF82BF5A012202235B1228
:10235C0010031210901210AF121C991213E9900175
:10236C00EA745AF0758200022CEE75E200C2AF7569
:10237C00890012380080FEAF83E5829001C7F0EF30
:10238C00A3F09001C4E0FDA3E0FEA3E0FF74052DD3
:10239C00FDE43EFE8D828E838FF0123360602390BD
:1023AC0001C7E0FEA3E0FF8E048F0574892D501247
:1023BC00C3747F9C74779D40098E821211197582AB
:1023CC00002275820122E5829001C9F0E0F9240215
:1023DC00F8740329FF8706BE0702800CBE080302AF
:1023EC002474BE09028001229001C2E0FDA3E0FE2C
:1023FC008D828E83C007C000120753AD82AE83D08E
:10240C0000D007C3ED94F4EE94015001228606BE71
:10241C000102801ABE0202800ABE0302801BBE04A7
:10242C00368021A80786068E82121C1E8029A807DA
:10243C0086068E82121C6F801EA80786068E82125C
:10244C001C848013A8078606EF04FD90019CA80548
:10245C00E6F08E82121C4812072FE5828583F090DD
:10246C0001C2F0E5F0A3F0228606BE0102801FBE79
:10247C000202800ABE03028025BE0456803075829B
:10248C0006C007122D24E582D007A807F622758214
:10249C0009C007122D24E582D007A807F622758201
:1024AC000AC007122D24E582D007A807F6227582F0
:1024BC0007C007C001122D24E582D001D007A80760
:1024CC00F6E92404F9758208C001122D24E582D0A6
:1024DC0001F722E5829001CAF0E0F904F8740229B0
:1024EC00FF740329FE8605BD053C8704BC070280EA
:1024FC0008BC0802801DBC092CA8078604BC01007E
:10250C004023EC24FA401E9001EAA806E6F08C82E7
:10251C00022CEEA80786048C82C006122D24E582BC
:10252C00D006A806F622BD06288704BC0702800840
:10253C00BC08028017BC0918A8078604BC010280DD
:10254C0005BC020C800302235B022376A8067600EE
:10255C0022BD030589820223D2BD07028003022516
:10256C00E48705BD07028008BD08028043BD0967EA
:10257C00A8078605BD0100405EED24FA4059EE0423
:10258C00F886047B008C5E8B5D74022EF886027CD0
:10259C0000E55D4202E55E42041D900162A806E67C
:1025AC00F0900163EAF0ECA3F08D821213AB80275C
:1025BC00A80786071F900160A806E6F08F82C0016D
:1025CC0012136AAE82AF83D001740429F88F05A66A
:1025DC0005740529F8A6062277FF22E5829001CB27
:1025EC00F0E0F904F8E7FF24D95003022879EF242E
:1025FC000A83F582EF242B83F583E47379777B7B55
:10260C0082BCFC0202027B7B0A0F1D6DBCC2C7227E
:10261C00797979797979797979797979797979791E
:10262C005668712826282826262627272728282773
:10263C002727272727272828282828282828282814
:10264C002828282828282826262689077E007D4029
:10265C008F828E838DF0121E9602287B7582071254
:10266C001C3302287B121C3D02287B760074022945
:10267C00F8760C02287B8607740229FE900153A879
:10268C0006E6F0740329FE900154A806E6F08F824A
:10269C00C001120F78AE82AF83D001740429FD8F74
:1026AC0004A805A604740529FDA805A60602287B26
:1026BC008607740229FE900156A806E6F0740329D9
:1026CC00FE900157A806E6F0740429F886068E05DC
:1026DC007E00740529F886047B00EC4206EB42056B
:1026EC00900158EEF0EDA3F08F82120FBF02287B01
:1026FC0012100302287B89821224DF02287B7605C4
:10270C0002287B7600740229FF746DA807F6022854
:10271C007B740229FF740329FE7D00A9068704C37C
:10272C00ED9C400302287B8D037C0074032BFBE49F
:10273C003CEB28FCA907870374132BFB8D02EA2BB7
:10274C00F582C007C006C005C004C000122D24E5E8
:10275C0082D000D004D005D006D007A904F70D8094
:10276C00BA740229FF740329FE7D00A9068704C3ED
:10277C00ED9C400302287BA907870474132CFC8D65
:10278C0003EB2CFC8D027B0074032AFAE43BEA2851
:10279C00FB9001EAA903E7F08C82C007C006C005D4
:1027AC00C000122CEED000D005D006D0070D80BB97
:1027BC0012109002287B760102287B7F007402297C
:1027CC00FEC000A8068606D000EE4207740329FE60
:1027DC007D00A9068704C3ED9C400302287B8D0372
:1027EC007C0074032BFBE43CEB28FC8F03740B2B59
:1027FC00FB8D02EA2BF582C007C006C005C004C0E1
:10280C0000122D24E582D000D004D005D006D007CC
:10281C00A904F70D80BC7F00740229FEC000A80635
:10282C008606D000EE4207740329FE7D00A90687B8
:10283C0004C3ED9C50398F04740B2CFC8D03EB2CD2
:10284C00FC8D027B0074032AFAE43BEA28FB90011E
:10285C00EAA903E7F08C82C007C006C005C00012CD
:10286C002CEED000D005D006D0070D80C077FF909D
:0F287C0001CBE0FF78B579BCE6F78F8202292304
:10288C00AF83E5829001CCF0EFA3F09001CCE0FE99
:10289C00A3E0FF900203E0FCA3E0FDEEB50405EF1E
:1028AC00B5050122900203EEF0EFA3F078B67602A4
:1028BC0078B7A60608A6077513047582B60201360A
:1028CC00AF83E5829001CEF0EFA3F09001CEE0FE55
:1028DC00A3E0FF900205E0FCA3E0FDEEB50405EFDC
:1028EC00B5050122900205EEF0EFA3F078B976035E
:1028FC0078BAA60608A6077513047582B9020136C4
:10290C00020239E5829001D0F0E0F9770189077570
:10291C0013098F82020136E5829001D1F0E0FF7835
:10292C00BC86148F820201DDE5829001D2F0E0F9C1
:10293C00770489077513058F82020136E5829001B1
:10294C00D3F0E0F9770589077513038F82020136FE
:10295C00AFF0AE83E5829001D5F0EEA3F0EFA3F0DB
:10296C009001D5E0FDA3E0FEA3E0FF74032DFDE490
:10297C003EFE9001D4E0FC7B00BB0600501CEB2D0E
:10298C00F8E43EF98F02888289838AF0123360F86A
:10299C00B50404758201220B80DF75820022AFF032
:1029AC00AE83E5829001D9F0EEA3F0EFA3F07F00A7
:1029BC00BF060050629001D9E0FCA3E0FDA3E0FE4D
:1029CC0074032CF9E43DFA8E03EF29F9E43AFA8901
:1029DC00828A838BF0123360F99001D8E0FBE9B561
:1029EC0003012274032CF8E43DF98E02EF28F8E47D
:1029FC0039F9888289838AF0123360701774032C3A
:102A0C00FCE43DFDEF2CFCE43DFD8C828D838EF0CF
:102A1C00EB0231A40F809922AFF0AE83E5829001D6
:102A2C00DDF0EEA3F0EFA3F09001DDE0FDA3E0FEFE
:102A3C00A3E0FF74032DF56CE43EF56D8F6E9001F1
:102A4C00DCE0F97800B80600504DC005C006C007A0
:102A5C00E8256CFDE4356DFEAF6E8D828E838FF0B4
:102A6C00123360FDB501028008D007D006D0058076
:102A7C0023D007D006D005C00174032DF9E43EFB2A
:102A8C008F04E829F9E43BFB89828B838CF0E412F8
:102A9C0031A4D0010880AE22E5829001E0F0E0FF85
:102AAC00BFA502800ABFA6028009BFA70E800890AE
:102ABC00008122900082229000832290000022E567
:102ACC00829001E1F0E0FF7E00BE1B005034EE75F9
:102ADC00F003A4FCADF024AFF582ED3436F583E4BD
:102AEC0093FBEFB50319EC24AFFCED3436FD8C826F
:102AFC008D83A3E493FCA3E493FD8C828D83220E3F
:102B0C0080C790000022AFF0AE83E5829001E3F025
:102B1C00EEA3F0EFA3F09001E2E0FFBFCD1D90011A
:102B2C00E3E0FCA3E0FDA3E0FE74032CFCE43DFD1C
:102B3C008C828D838EF074FF0231A4BFCE1D900168
:102B4C00E3E0FCA3E0FDA3E0FE74032CFCE43DFDFC
:102B5C008C828D838EF074010231A4BFCF1D900145
:102B6C00E3E0FCA3E0FDA3E0FE74022CFCE43DFDDD
:102B7C008C828D838EF074FF0231A4BFD01D900126
:102B8C00E3E0FCA3E0FDA3E0FE74022CFCE43DFDBD
:102B9C008C828D838EF074010231A4BFD91D9001FB
:102BAC00E3E0FCA3E0FDA3E0FE74042CFCE43DFD9B
:102BBC008C828D838EF074010231A4BFDA1D9001DA
:102BCC00E3E0FCA3E0FDA3E0FE74042CFCE43DFD7B
:102BDC008C828D838EF074FF0231A4BFD100403CF7
:102BEC00EF242740379001E3E0FCA3E0FDA3E0FED7
:102BFC000CBC00010D8C828D838EF0123360FBEFC8
:102C0C00242FF5F005F07401800225E0D5F0FBFFD0
:102C1C0042038C828D838EF0EB0231A422AFF0AE96
:102C2C0083E5829001E7F0EEA3F0EFA3F09001E6CC
:102C3C00E0FFBFCD028003BFCE1C9001E7E0FCA3F8
:102C4C00E0FDA3E0FE74032CFCE43DFD8C828D833F
:102C5C008EF0E40231A4BFCF028003BFD01C9001E0
:102C6C00E7E0FCA3E0FDA3E0FE74022CFCE43DFDD8
:102C7C008C828D838EF0E40231A4BFD9028003BF15
:102C8C00DA1C9001E7E0FCA3E0FDA3E0FE74042C49
:102C9C00FCE43DFD8C828D838EF0E40231A4BFD127
:102CAC0000403DEF242740389001E7E0FCA3E0FD15
:102CBC00A3E0FE0CBC00010D8C828D838EF01233D0
:102CCC0060FBEF242FF5F005F07401800225E0D5B0
:102CDC00F0FBF4FF52038C828D838EF0EB0231A457
:012CEC0022C5
:102CEE00AF82BF800040012275A15575A1AA43B1E4
:102CFE000475A1007585C0EF2FF5849001EAE0F50B
:102D0E008EE58630E60375869A75A15575A1AA5390
:102D1E00B1FB75A10022AF827585C0EF2FF58475CA
:062D2E00868E858E8222D4
:102D3400C021C0E0C0F0C082C083C007C006C00587
:102D4400C004C003C002C001C000C0D075D00012CE
:102D5400062BD0D0D000D001D002D003D004D005AF
:102D6400D006D007D083D082D0F0D0E0D02132C0BA
:102D740021C0E0C0F0C082C083C007C006C005C047
:102D840004C003C002C001C000C0D075D0009002CE
:102D940007E0FEA3E04E600E900207E0F8A3E0F522
:102DA400838882120049D0D0D000D001D002D00351
:102DB400D004D005D006D007D083D082D0F0D0E0A4
:102DC400D0213212316F12010212010580FB75828B
:022DD4000022DB
:102DD600E582FF90375093FEEF90372893FF7001FE
:102DE600229001EBE0FD701BBF0209EEF4FC52924B
:102DF600EC529322BF0402800122EEF4FC5296ECC0
:102E0600529722BD0214BF0207EE4292EE4293226F
:102E1600BF0439EE4296EE429722BD0116BF020864
:102E2600EEF45292EE429322BF0421EEF45296EE55
:102E3600429722BD0316BF0208EE4292EEF4529369
:102E460022BF0408EE4296EEF4FE529722AF82BFEE
:102E56000102800FBF02028013BF03028017BF0466
:102E660025801BE5C620E21E539DFB22E5C620E316
:102E760015539DF722E5C630E20C539DFB22E5C6AD
:102E860030E303539DF722E582FF90370093FEEF70
:102E960090375093FDEF90372893FF7003F5822209
:102EA600EE600D8E82C007C005122E53D005D007E6
:102EB6007E00BF0202800ABF03028009BF040C80A5
:102EC60008AE908006AEA08002AEB0ED5E600475DE
:102ED60082012275820022E582FF90370093FEEF81
:102EE60090375093FDEF90372893FFEE600D8E825A
:102EF600C007C005122E53D005D007A2AFE433FE9B
:102F0600C2AFBF0202800ABF03028017BF04368029
:102F1600249001ECE07007EDF4FF52908027ED421B
:102F26009080229001ECE07007EDF4FF52A080152E
:102F3600ED42A080109001ECE07007EDF4FF52B076
:0B2F46008003ED42B0EE6002D2AF222B
:102F5200AFF0AE83E5829001F2F0EEA3F0EFA3F0C2
:102F62009001F2E0F56CA3E0F56DA3E0F56EAA6CBA
:102F7200AB6DAC6E9001EDE0F8A3E0F9A3E0FF9039
:102F820001F0E0F56FA3E0F570AD6FAE70156F74F0
:102F9200FFB56F021570ED4E6020888289838FF035
:102FA200123360FEA3A882A9838A828B838CF0EEFF
:102FB2001231A4A3AA82AB8380CF856C82856D83F4
:042FC200856EF02206
:102FC600C0D075D00808B8000D09B900090ABA00C2
:102FD600050BBB00010CD0D032A2AFC2AFA808A926
:102FE60009AA0AAB0BAC8A8588F092AF30F5127449
:102FF600012C600D08B8000909B900050ABA0001DC
:103006000BC3EC9406FCECC313FC75F07DE8A4F846
:10301600ADF075F07DE9A42DF9E435F0FD75F07D90
:10302600EAA42DFAE435F0FD75F07DEBA42DFB7DC9
:1030360000EC28F582E93DF583EA3DF5F0EB3D220B
:10304600A2AFC2AFA808A909AA0AAB0BAC0C92AFF3
:1030560075F020E8A4A8F075F020E9A428F582A868
:10306600F075F020EAA428F583A8F075F020EBA40B
:1030760028F9A8F075F020ECA42889F02285825F53
:1030860085836085F061F562122FDF858263858313
:103096006485F065F566E55F4560456145627001EA
:1030A60022A85FA960AA61AB6285636785646885AB
:1030B600656985666AE8494A4B60DBC003C002C0A1
:1030C60001C000122FDFAC82AD83AEF0FFD000D07E
:1030D60001D002D003ECC39567FCED9568FDEE9533
:1030E60069FEEF956AFFC3EC94E8ED9403EE940055
:1030F600EF940040A118B8FF0919B9FF051ABAFFE5
:10310600011B885F89608A618B6274E82567F567B1
:1031160074033568F568E43569F569E4356AF56A76
:10312600856763856864856965856A668087AE821A
:10313600AF83C374019EE49F40022200C374029EC3
:10314600FE74009FFF00BE0005BF000200220000C3
:103156000000000000000000000000000000000E5B
:10316600BE00EB0FBF00ED002275A15575A1AA7434
:10317600F855B94406F5B975A10090138812313493
:10318600759E5D759D0074F055894402F58953C995
:0D319600EF758C06C28DD2A9D28CD2AF226B
:1031A40020F71130F6138883A88220F509F6A88346
:1031B4007583002280FEF280F5F022C06B85816B5E
:1031C400C082C083E5812405F581AF6B0FE56B24D4
:1031D40003F8A607087600087640E56B24FCFD7E1C
:1031E400007F40E56B2406F9A86B088604E56B2490
:1031F400FCF886038CF0EBA4F709A7F0E56B240632
:1032040004F98704A86B08860374012DFAE43EFED2
:103214008A828E838FF01233608BF0A4FBE56B24DB
:1032240003F8740126FDE40836FE0886078D828EB5
:10323400838FF0123360FDE56B24FCF886078DF074
:10324400EFA42B2CF7E56B2406F987060987078E74
:10325400828F83856B81D06B22AFF0AE83E5829041
:1032640001FBF0EEA3F0EFA3F09001F9E0FEA3E080
:10327400FF9001F9E0F5F0A3E045F0700490000040
:10328400221EBEFF011FEE4F6075C006C0079001ED
:10329400FBE0FBA3E0FCA3E0FD8B008C018D028826
:1032A4008289838AF0123360F89001F6E0F56CA30A
:1032B400E0F56DA3E0F56EA96CAA6DAF6E89828A04
:1032C400838FF0123360F9E8B501028006D007D08D
:1032D40006802CD007D0060BBB00010C9001FBEB41
:1032E400F0ECA3F0EDA3F0AB6CAC6DAD6E0BBB00DA
:1032F400010C9001F6EBF0ECA3F0EDA3F0808290CA
:1033040001FBE0FDA3E0FEA3E0FF8D828E838FF03E
:10331400123360FD7F009001F6E0FBA3E0FCA3E024
:10332400FE8B828C838EF0123360FB7E00EDC39B98
:08333400FDEF9E8D82F583225E
:10333C00ABF0A2AFE433FEC2AFE0A37A0833D2B352
:10334C004002C2B37905D9FEC2B3DAF1DBEBEE6011
:04335C0002D2AF22C8
:1033600020F71430F6148883A88220F507E6A88396
:1033700075830022E280F7E49322E022C06B85810E
:103380006BAE82E583FF33E433FD6009C3E49EFB4B
:10339000E49FFC80048E038F04E56B24FCF808E6B0
:1033A00033E433FF600FE56B24FCF8C3E496FA08BE
:1033B000E496FE800AE56B24FCF88602088606C0C7
:1033C00007C005C002C0068B828C831233F2AC8228
:1033D000AE8315811581D005D007EF6D600DC3E474
:1033E0009CFDE49EFF8D828F8380048C828E83D02F
:1033F0006B22C06B85816BAE82AF837C007D007BCE
:1034000010EF235401FAEE2EFEEF33FFEC2CFCED0F
:1034100033FDEA6003430401E56B24FCF8C3EC963A
:10342000ED08964010E56B24FCF8ECC396FCED0823
:1034300096FD430601DBCA8E828F83D06B22758294
:02344000002268
:1034420012011001000000086252454E0100010203
:10345200030109024900020100806409040000021C
:103462000301010009211001210122E00007058169
:10347200030900010705010309000A09040100020A
:103482000300000009211001000122220007058229
:10349200032000140705020320001405010906A1F8
:1034A200018501050719E029E71500250195087531
:1034B200018102950175088103950675081500269C
:1034C200FF000507190029E78100050819012905F0
:1034D200150025019505750191029501750391036A
:1034E200C005010980A101850219012AB700150151
:1034F20026B700950175108100C0050C0901A101D4
:10350200850319012AA002150126A0029501751052
:103512008100C005010902A1010901A1008504057C
:10352200091901290815002501950875018102056F
:10353200010930093109381581257F750895038104
:1035420006C0C00501090EA1018505050D0921A1CD
:103552000005090901950175011500250181020582
:103562000109379501750F550F651436F0F14610B4
:103572000E16F0F126100E8106C0C00660FF09612A
:10358200A1010962150026FF009520750881060930
:1035920063150026FF00952075089183C004030976
:1035A200041A034300480035003500780051004DED
:1035B200004B004C006900740065004E004B006532
:1035C2000079000A034E004B006500790052006F3B
:1035D20000620069007400040352006F0062006917
:0335E20000740072
:0235E5000708D5
:1035E70068D169D26AD36BCD6CCE6DCF6ED06FD9EF
:0235F70070DA88
:0135F9000BC6
:0535FA0070200000003C
:1035FF00000000007E0F00D4FFFFFFC7000000781F
:10360F0000000000000000000000000000000000AB
:10361F00000000000000000000000000000000009B
:10362F0000000000000000002A2B2800000000000E
:10363F000000000000000000000000290000000052
:10364F002C1E3420212224342627252E362D3738C0
:10365F00271E1F202122232425263333362E3738C9
:10366F001F0405060708090A0B0C0D0E0F10111287
:10367F00131415161718191A1B1C1D2F3130232D53
:10368F00350405060708090A0B0C0D0E0F10111251
:10369F00131415161718191A1B1C1D2F3130354C02
:1036AF00A8E200A9E900AAEA00ABB500ACB600BBDE
:1036BF00B300BCB400ADB700B0CC00AECD00AF834B
:1036CF0001B18A01B29201B39401BF9F01C0CB0136
:1036DF00B42102B52302B62402B72502B82602B9D7
:1036EF002702BD6F00BE7000BA2A02C19F02C2A09E
:0136FF0002C8
:1037000000000000000000000000000000000001B8
:1037100000000000000000000000000000000304A2
:10372000000002000000000001010101010101018F
:10373000000002020202020202020000030303036D
:10374000030303030000040404040404040400004D
:10375000010204081020408000000102040810202B
:103760004080000001020408102040800000010297
:103770000408102040800000FFFFFFFFFFFFFFFF55
:10378000FFFFFF00FFFF0102FFFFFFFFFFFFFFFF43
:10379000FFFFFFFFFFFFFFFF03FFFFFFFFFFFFFF35
:0237A000C72D33
:0137A2000026
:0137A3000025
:0137A4000024
:0437A5000000000020
:0237A90000001E
:00000001FF
