:0400000002004B327D
:03000B00022E942E
:0100130032BA
:01001B0032B2
:0100230032AA
:01002B0032A2
:01003300329A
:03003B00022C4153
:03004300022C028A
:03004600022C95F4
:0F004900E4737581B812330CE582600302004640
:10005800790BE94400601B7A01903668781A75A01C
:1000680002E493F2A308B8000205A0D9F4DAF27505
:02007800A0FFE7
:06007A00E478FFF6D8FD5A
:100080007800E84400600A790A75A001E4F309D811
:10009000FC7810E84401600C790290010AE4F0A3B6
:0400A000D8FCD9FAB5
:0900A400751000751100751200C1
:0900AE00E4F51AF51BF51CF51D23
:0600B800751E00751F001B
:1000BE0078A476FF78A5760078A6760078A77600E5
:0C00CE00753EFFE4F53FF540F541F542BA
:0600DA0078AAE4F608F626
:0600E000754600754700A3
:0900E6007552FF755300755403B7
:1000F0007808E4F608F608F608F6780C76000200B0
:0101000046B8
:0F0102009003E8E4F5F0122F51020112020118E8
:0901120012024A0214A20216199D
:10011C0075D30074FC55D24402F5D2751000223010
:10012C00DE1190000AE0FFBF010990000BE0FF9088
:10013C00021CF022E58290010AF07E007F00E5109F
:10014C0060240EBE00010F900005C007C0061230DF
:10015C0002D006D0078E048F05C3EC9420ED944E8C
:10016C0040DC7582002290010AE0900209F0E4A3C1
:10017C00F07440A3F090020CE513F0E4A3F09000AF
:10018C004A75F000122E208513D375100153D2FC42
:10019C007582012275D50074FC55D44402F5D475D2
:1001AC0011002230DE0375120122E512602C900240
:1001BC0009748AF07400A3F0E4A3F090020C74208C
:1001CC00F0E4A3F090007675F040122E2078B17612
:1001DC00207582761224C975120022E58290010BDB
:1001EC00F07E007F00E51160200EBE00010F900034
:1001FC0005C007C006123002D006D007C3EE9450DB
:10020C00EF94C340E07582002290010BE09002094C
:10021C00F0E4A3F07440A3F090020CE514F0E4A316
:10022C00F09000CA75F000122E208514D5751101BE
:10023C0053D4FC7582012290021CE0F58222120636
:10024C00D81207021206F175DD0075D30075D500C2
:01025C00227F
:10025E00AFDBBF08028003020597900007E0FE7F28
:10026E0000900006E0FD7C004FF515EC4EF5167F74
:10027E0000900001E0F51790021DE4F0900000E000
:10028E00FE546060057FFF020599E51724F45003C4
:10029E00020593E517240B83F582E517241083F5E9
:1002AE0083E473752693B093F0C993FD1A9999055B
:1002BE000405040503020503040505900003E0FE92
:1002CE00BE01028012BE02028018BE0302801EBE54
:1002DE00220280660203807518107519337F120290
:1002EE0003827518227519337F490203829000022A
:1002FE00E070087518357519348034900002E0FEF0
:10030E00BE010875186F7519348024900002E0FE46
:10031E00BE020875185B7519348014900002E0FE59
:10032E00BE030875183975193480047FFF80458522
:10033E001882851983E493FF803A900002E0702EB4
:10034E00900004E0700E75186B75193390333BE412
:10035E0093FF8020900004E0FEBE010E7518137509
:10036E00193490335BE493FF800A7FFF80067FFF92
:10037E0080027FFFBFFF030205998F057E00C3ED4C
:10038E009515EE951650048D158E16AD15AE16C339
:10039E00ED9408EE9400920040067B087C008004E9
:1003AE00AB15AC168B077C00C3EC9F50198C027BEF
:1003BE0000EC2518F582E43519F583E493F98A8269
:1003CE008B83F00C80E28F037C00EDC39BFDEE9CD3
:1003DE00FE8D158E16EF2518F518E43519F5190250
:1003EE000599900002E0FE8E157516000205999093
:1003FE00010CE0900000F0AD15AE16C3ED9401EEC9
:10040E00940050030205997F01020599900002E0C5
:10041E00FE90010CF0020599900000E0541F702F21
:10042E00900003E0FD7E00900002E0FC7B0042069F
:10043E00EB4205BE0114BD0011903329E493FE304A
:10044E00E5030205997FFF0205997FFF020599904A
:10045E000000E0FE53061F7D00BE0241BD003E902F
:10046E000004E0FEBE01028029BE02028013BE819E
:10047E00028014BE822274BC55D44402F5D4020507
:10048E009953D47302059974BC55D24402F5D20225
:10049E00059953D2730205997FFF0205997FFF02DA
:1004AE000599900000E0541F702F900003E0FD7E30
:1004BE0000900002E0FC7B004206EB4205BE0114F8
:1004CE00BD0011903329E493FE30E5030205997FB8
:1004DE00FF0205997FFF020599900000E0FE53068A
:1004EE001F7D00BE0205BD000280028076900003D3
:1004FE00E0FD7E00900002E0FC7B004206EB420530
:10050E00EE4D705B900005E0FD7E00900004E0FC77
:10051E007B004206EB4205BE0105BD00028034BEE3
:10052E000205BD00028018BE8105BD0002801ABE04
:10053E008229BD002674BF55D44403F5D4804C7473
:10054E007F55D4440CF5D4804274BF55D24403F584
:10055E00D28038747F55D2440CF5D27FFF802C7F29
:10056E00FF80287FFF8024900000E4F0900001F0CF
:10057E00AD15AE16C3ED9402EE940040047F0280DA
:10058E000AAF1580067FFF80027FFFBFFF0775173A
:10059E00FF75DCCF22EF24F740068FDD75DCC0221D
:1005AE0075DD0075DCC0227405B51702805D74061A
:1005BE00B51766AE15AF16C3EE9408EF9400920110
:1005CE0040067C087D008004AC15AD167D00C3EDA1
:1005DE009C50198D027B00ED2518F582E43519F536
:1005EE0083E493F98A828B83F00D80E28C037D0085
:1005FE00EEC39BFEEF9DFF8E158F16EC2518F5189A
:10060E00E43519F5198CDD63DC4022E5E35480FFF7
:10061E00E5154FF5E375DC022275DD0075DC02226F
:10062E0075DD0043DC022220D9030206ABE5D95466
:10063E000FFFADD95305307E00BD0005BE00028010
:10064E0018BD1005BE00028052BD2005BE000280FE
:10065E0026BD3047BE0044803CBF0002800ABF0169
:10066E0002800ABF0235800A12062E802E12012B3E
:10067E0080291201AF8024BF0002800ABF010280D0
:10068E000ABF0217800A1205B5801012011C800BDA
:10069E001201A08006BF000312025EC2D930D81D1F
:1006AE0075DC0275D21275D41275E300C2DAC2D9A6
:1006BE00C2D875100075110090010CE4F010DA012B
:1006CE0022E5DA20E20375D8FF2275E20053E27FBD
:1006DE0043E22975E30053E2BF53D1FB75D180434A
:1006EE00D1012243E10443E10243E10143D81FD289
:1006FE00EAD2AF227E007F008EEC8FED7E0A7F0065
:10070E008EEE8FEF7E8A7F008EE48FE575D21275A6
:0C071E00D41275EAC075EB0C75DC0222E9
:10072A00122F1485821A85831B85F01CF51D22025F
:10073A00073C122F14AC82AD83AEF0FFECC3951ABE
:10074A00FCED951BFDEE951CFEEF951D8C828D83AD
:10075A008EF022AF83E58290010DF0EFA3F012072D
:10076A0039AE82AF8390010DE0FCA3E0FDEEC39C9D
:10077A00FEEF9D8E82F58322900114E06003120C35
:10078A002A900209740FF07401A3F0E4A3F0900216
:10079A000C7406F0E4A3F090011575F000122E20F7
:1007AA00900119E0700302125690011575F00012BB
:1007BA00195CE5827001227D7A7E017F0090020930
:1007CA007415F07401A3F0E4A3F090020C7402F023
:1007DA00E4A3F08D828E838FF0122E2075E01DC067
:1007EA00E075E001C0E075E000C0E0121626158150
:1007FA0015811581900209741DF07401A3F0E4A318
:10080A00F090020C7402F0E4A3F090011B75F00062
:10081A00122E207D1F7E017F009002097415F0744C
:10082A0001A3F0E4A3F090020C7406F0E4A3F08DA7
:10083A00828E838FF0122E207D257E017F0090020A
:10084A0009741BF07401A3F0E4A3F090020C740283
:10085A00F0E4A3F08D828E838FF0122E2002086AB4
:10086A00900126E0C4540FFF6012BF0102800DBF41
:10087A000403020915BF050302095F22900126E05D
:10088A0054F07009900126E0540FFF800B90012666
:10089A00E0540FFEC454F0FF900124E06034EF608E
:1008AA0028900125E0FEBEE0004009900125E0FE07
:1008BA0024185006900125E070078F82120C0080E0
:1008CA00058F82120C15120BA7900125E0F5820202
:1008DA00097D900125E0F582C007120A2DD007EFA5
:1008EA00700122900125E0FEBEE00040099001253A
:1008FA00E0FE24185006900125E070078F82120C42
:10090A000A80058F82120C1F020BA7900126E003B2
:10091A00035403FF6005BF0159801D900124E06064
:10092A000C900125E0FEA3E05403FF80047E007FC3
:10093A00008E828F8302276E900124E0600C900162
:10094A0025E0FEA3E05403FF80047E007F008E8230
:10095A008F830227AE900124E0600B900125E0F519
:10096A0082120B208009900125E0F582120B3402D5
:10097A000B5922E582900127F0E0FF700122BF04A3
:10098A0000402FEF245B402A9001F0EFF090009690
:10099A0075F040C00712282AE582D00760088F82C6
:1009AA00120AF8120BA7900127E0F582120AE40254
:1009BA000BA7900127E0FFBFE000401DEF2418407D
:1009CA001874075FF5F005F07401800225E0D5F090
:1009DA00FBF582120C00020BA7900127E0FFBFA5CE
:1009EA0000400FEF2458400A8F82122972AF830207
:1009FA00276E900127E0FFBFA800400FEF243D407B
:100A0A000A8F82122999AF830227AE900127E0FF4D
:100A1A00BFCD00400DEF242040088F82120B200228
:100A2A000B5922E582900128F0E0FF700122BF04F1
:100A3A0000400DEF245B40088F82120AF8020BA7D0
:100A4A00900128E0FFBFE000401DEF241840187411
:100A5A00075FF5F005F07401800225E0D5F0FBF59B
:100A6A0082120C0A020BA7900128E0FFBFA50040E2
:100A7A000BEF2458400690000002276E900128E0F0
:100A8A00FFBFA800400BEF243D400690000002275C
:100A9A00AE900128E0FFBFCD00400DEF24204008B2
:100AAA008F82120B34020B5922E582900129F0E061
:100ABA00FFF582C00712097DD007BF390B9000509D
:100ACA00E4F5F0122F518009900000E4F5F0122F9E
:0A0ADA0051900129E0F582020A2D77
:100AE400E58290012AF0E09001F4F090009675F010
:100AF40040022878E58290012BF0E09001F8F09014
:100B0400009675F0400228F27F00BF09005009EFFB
:100B14002496F876000F80F2751E0022E58290017B
:100B24002CF0E09001FEF090009F75F0400229E067
:100B3400E58290012DF0E0900202F090009F75F0A4
:100B440040022AF778A1760078A2760078A376008E
:100B540078A0760022900212742EF07401A3F0E4BF
:100B6400A3F09002157405F0E4A3F090009F75F0D3
:100B74004012312BE5828583F045F060259002090F
:100B8400749FF0E4A3F07440A3F090020C7405F099
:100B9400E4A3F090012E75F000122E2075829F02BE
:100BA4002816227897A61EE51F451E7897F6900210
:100BB400127433F07401A3F0E4A3F09002157409E5
:100BC400F0E4A3F090009675F04012312BE5828595
:100BD40083F045F060259002097496F0E4A3F07464
:100BE40040A3F090020C7409F0E4A3F09001337573
:100BF400F000122E207582960227F122E5829001E0
:100C04003CF0E0421E22E58290013DF0E0F4521EE9
:100C140022E58290013EF0E0421F22E58290013FEE
:100C2400F0E0F4521F22751F0022E523FF70278590
:100C34002426852425852427E58124FCF88682083A
:100C440086830886F0E525123072A3E526123072F9
:100C5400A3E5270230728F2A752B0085242C752D6D
:100C640000AB228B027F00C003C002C007900006C5
:100C740012308DAE82AF831581158174FFC0E0E41C
:100C8400C0E08E828F8312324AAE8215811581D0E4
:100C9400038E28EB2BFBE52875F055A4D39BF47544
:100CA400F003A4F52974FFC3952AFAE4952BFFC039
:100CB40002C007852C82852D8312308DAF83158168
:100CC4001581AA297B00C007C002C003852A82853A
:100CD4002B8312308DAB83158115818B027B0074BD
:100CE400FFC39AFAE49BFBC002C003852C82852DC6
:100CF4008312308DAB8315811581AA297E0074FF80
:100D0400C39AFAE49EFEAC2AAD2BC003C002C0060F
:100D14008C828D8312308DAE83158115818E057E74
:100D24000074FFC39DFDE49EFEAA2CAC2DC005C03B
:100D3400068A828C8312308DAD82AE831581158133
:100D4400D003D007E52824F9404EE52875F003A424
:100D5400900D5873020D6A020D74020D7E020D8807
:100D6400020D92020D9CAC2C8C268E258F27803090
:100D74008B26AC2C8C258F2780268F26AC2C8C259B
:100D84008E27801C8F268B25AC2C8C2780128E26D8
:100D94008F25AC2C8C278008AC2C8C268F258B2798
:100DA400E58124FCF886820886830886F0E525120E
:100DB4003072A3E526123072A3E527023072AFF039
:100DC400AE83E582900147F0EEA3F0EFA3F090012B
:100DD4004AE4F0900146E0601690021E7401F0129D
:100DE4000739E5828583F0900140F0E5F0A3F090A7
:100DF400021EE07003020EB0900140E0FEA3E0FF8B
:100E04008E828F8312075DAE82AF83C3EE9405EFAB
:100E140094005003020EB0900142E0FDA3E0FEA353
:100E2400E0FF8D318E328F33900147E0F52EA3E041
:100E3400F52FA3E0F530A82EA92FAC30900145E0A2
:100E4400FA7B00900212E8F0E9A3F0ECA3F0900220
:100E540015EAF0EBA3F08531828532838533F0C047
:100E640007C006C005C003C00212312BE58285838A
:100E7400F0D002D003D005D006D00745F06028A8F2
:100E84002EA92FAC30900209E8F0E9A3F0ECA3F00E
:100E940090020CEAF0EBA3F08D828E838FF0122E79
:100EA4002090014A7401F090021EE4F090014AE09F
:030EB400F58222A2
:100EB800E58290014DF0E025E0240BFF90014BE026
:100EC80025E02FFF90014CE025E02FFFF582C007B9
:100ED800122BF2AE82D0078E057E000F8F82C006DD
:100EE800C005122BF2AF82D005D006E4FCEF2EFE2F
:100EF800EC3D8E82F58322E582900152F0E025E0F8
:100F0800240BFF90014EE025E02FFF90014FE025D4
:100F1800E02FFF900150E0FDA3E0FE900206F08F65
:100F280082C007C006C005122BBCD005D006D0076A
:100F38000F900206EDF08F82022BBC7F00BF0100EC
:100F4800400122EFFE75F002A4247BFC743435F0D6
:100F5800FD7B00BB0100506BEBFA25E02CF8E43D6B
:100F6800F975340074FF25344056C004C005E534D3
:100F7800253428F582E439F583E493FCA3E493FD52
:100F880090014EEAF090014FE534F0900150ECF0FA
:100F9800EDA3F08E82C007C006C005C004C003C020
:100FA80002C001C000120EFFD000D001D002D00351
:100FB800D004D005D006D0070534D005D00480A4CD
:070FC8000B80900F020F45A2
:100FD0007F00BF6D0050178F0674132EFE9002061F
:100FE000E4F08E82C007122BBCD0070F80E4227F72
:100FF00000BF050050148F060E900206E4F08E82AA
:10100000C007122BBCD0070F80E722120B0C120B6B
:10101000A7120B48020B59E582900153F0E0FF7EC6
:1010200000BE0900502CEE75F002A4FCADF0247D4A
:10103000F582ED3434F583E493FBB50712EC247D9F
:10104000FCED3434FD8C828D83A3E493F582220E73
:1010500080CF900153E0F58222E582900154F01296
:10106000100B78A48607900154E0FEEFB5060578D2
:10107000A476FF2278A5767F78A586078F82C006A2
:10108000122BF2E582D00660012278A4A60678A889
:1010900076000876008E070F8F82C006122BF2E5CD
:1010A00082D00678A7F678A576138E07EF602D78A4
:1010B000A58606BE800578A476FF2278A586068ED2
:1010C00082C007122BF2E582D00770061F900154F0
:1010D000EFF078A5E6FE0478A5F680D078A586071F
:1010E00078A6A60722753500753600753700753865
:1010F00000753900753A00753B00753C00753D0080
:1011000078A5E6FF0478A5F68F82122BF2AF828FC6
:1011100035AE35EF700475820222BE0102800302F3
:10112000124D78A5E6FF0478A5F68F82122BF2AF58
:10113000828F36AD36EF7003F58222BD0102800842
:10114000BD02028003BD034F78A5E6FF0478A5F633
:101150008F82122BF2E582F5377003F582228537F4
:1011600082121017E582F537AF36BF0102800DBF3E
:1011700002028011BF0302801502125285378212CB
:101180000AB302125285378212097D021252853744
:1011900082120A2D021252BD040280030212527FF3
:1011A00002EF2435F978A5E6FD0478A5F68D82C016
:1011B00007C001122BF2AD82D001D007A705ED7058
:1011C00003F582228705BD7C02800ABF0704758271
:1011D00000220F80CC900155E4F0A3F0900157E578
:1011E00037F07F02900157E0FDBD30009202404C85
:1011F000ED24C692024045900155E0FCA3E0FDC0FD
:1012000007C004C00590000A12308DAC82AD831572
:10121000811581D007900157E07A0024D0FBEA3491
:10122000FFFAEB2CFCEA3DFD900155ECF0EDA3F04C
:101230000FEF2435F9900157E7F080A8900155E0B1
:10124000FDA3E0FF78A8A60508A60780058E8212F8
:1012500021507582012278A48607BFFF012278A859
:101260008606088607EE4F600D1EBEFF011F78A898
:10127000A60608A607221210E5AF82BF022178A7B2
:10128000E6FE6013BEFF028005EE1478A7F678A68E
:10129000860578A5A60522EE700F78A476FF22EFCA
:0A12A000700778A476FF02100B22FD
:1012AA00E582900159F0E075F006A4240DFF900143
:1012BA0058E025E02FFFF582C007122BF2AE82D04C
:1012CA00078E057E000F8F82C006C005122BF2AF73
:1012DA0082D005D006E4FCEF2EFEEC3D8E82F5832B
:1012EA0022E58290015DF0E075F006A4240DFF90DE
:1012FA00015AE025E02FFF90015BE0FDA3E0FE909C
:10130A000206F08F82C007C006C005122BBCD005AA
:10131A00D006D0070F900206EDF08F82022BBC7F19
:10132A0000BF060050178F06740D2EFE900206E4C9
:10133A00F08E82C007122BBCD0070F80E422E58210
:10134A00900160F0E024F0900162F090015EE014F8
:10135A00900161F090015FE0900166F0120739AEEA
:10136A0082AF83900163EEF0EFA3F0900165740100
:10137A00F07D0F7E017F009002097461F07401A371
:10138A00F0E4A3F090020C7406F0E4A3F08D828ED0
:10139A00838FF0122E20020782753EFF753F00757B
:1013AA0040002274FFB53E012285418285428312A4
:1013BA00075DAE82AF83C374C89EE49F5052E53F77
:1013CA00FF701AE540704990015E7403F090015F66
:1013DA007401F0853E8212134875400122EF24FD04
:1013EA00402B90015EEFF090015F7401F0853E8220
:1013FA0012134890000AE4F5F0122F5190015EE5AD
:10140A003FF090015FE4F0853E821213480213A375
:10141A0022AF83E58290016AF0EFA3F090016AE0BF
:10142A00FEA3E0FF8E048F05C3EC9407ED947E4083
:10143A0062740B9C747E9D405AEE24F9FF900167FA
:10144A00E0FCA3E0FDA3E0FE74052CFCE43DFD8C6A
:10145A00828D838EF012322E60048F3E8024E54006
:10146A00601690015E7403F090015FE4F0853E829D
:10147A001213481213A3800AEFB53E06E53FFF0494
:10148A00F53F120739E5828583F0F54185F042750B
:07149A00820022758201228D
:1014A20012072A1218A512222E021CF6120739AEB2
:1014B20082AF8378AAEEC396FCEF08964C700122A5
:1014C20090016CE4F090016DF090016CF090016D70
:1014D200F090016EF0A3F0900170F0900171F0C0F5
:1014E20007C006120739AC82AD8390016EECF0EDB5
:1014F200A3F0900170E4F0900171F07B0F7C017D0C
:1015020000900209746CF07401A3F0E4A3F090025D
:101512000C7406F0E4A3F08B828C838DF0122E20E3
:10152200D006D007C007C006120782D006D00778BF
:10153200AAA60608A607221218BFE58270030214A3
:10154200AE7F00BF0100400122EF24AEF987069072
:101552000172EEF0EF24ACF98705EE6205ED70033F
:101562000216159001737401F08F437B00BB0100DA
:10157200400302160C900173E0FA5D70030216003C
:10158200C005EE5202EA24FFE433FA900175E54306
:10159200F0900174EBF0900179EAF0C007C006C048
:1015A20003120739AA82AD83D003900176EAF0EDE7
:1015B200A3F09001787401F07A0F7C017D00900213
:1015C200097474F07401A3F0E4A3F090020C7406A1
:1015D200F0E4A3F08A828C838DF0C005C003122E42
:1015E20020D003D005D006D007C007C006C005C072
:1015F20003120782D003D005D006D007D0050B9086
:101602000173E025E0FCF002156FEF24ACF99001C4
:1016120072E0F70F0215451215391201B61213AD19
:03162200021A8920
:101626007D7C7E017F00900209747AF07401A3F03C
:10163600E4A3F090020C7402F0E4A3F08D828E8392
:101646008FF0122E20121730AE82AF838E048F05D4
:10165600C3EC9404ED9400400774A49CE49D5010E0
:10166600C3EC94E0ED9400400E74E79CE49D4007C3
:101676008E448F45021718C3EC94A5ED9400401BC9
:1016860074A79CE49D40148E038B82122972AA8251
:10169600AB834303408A448B458077C3EC94A8ED23
:1016A6009400401B74C29CE49D40148E038B8212EE
:1016B6002999AA82AB834303448A448B458053C34A
:1016C600EC94CDED9400401374DF9CE49D400C8CAB
:1016D6000274504DFB8A448B458037BC010BBD001C
:1016E60008754401754500802974FF2D501FC37489
:1016F600FF9C741F9D40168F0653061F8E07E4FE3F
:10170600FDEC4206ED42078E448F458005E4F54424
:10171600F545E58124FCF886820886830886F0E58F
:1017260044123072A3E54502307290017DE0FFBF9E
:101736000100501A90017CE0FEBE0100501090019D
:101746004BEFF090014CEEF0854682020EB8BFF0EA
:10175600004016EF24054011EF2410FF90017CE0B5
:0D176600900158F08F820212AA900000221C
:10177400E58290017EF0E0FF9002077401F08F8211
:10178400C007122CA4D007900208E4F08F82022D27
:10179400ABE58290017FF0E0FF9002087401F08FC6
:1017A40082C007122DABD0079002077402F08F821B
:1017B400022CA4E582900180F0E0F582122D5BE515
:1017C400827004FEFF80047E017F008E82227F00EF
:1017D400BF0100503BEF248FFDE43434FE7C00BC99
:1017E40001005029EC2DF582E43EF583E493FB904F
:1017F40002077402F08B82C007C006C005C0041241
:101804002CA4D004D005D006D0070C80D20F80C001
:1018140022AFF0AE83E582900182F0EEA3F0EFA355
:10182400F0900185E4F090018604F0900181E0FFDE
:10183400248FFDE43434FE7C00BC01005043EC2DC5
:10184400F582E43EF583E493F582C007C006C00543
:10185400C0041217B7E582D004D005D006D00760C3
:10186400067A007B008008900186E0F9FA7B0090FC
:101874000185E0F94AF00C900186E025E0FBF08058
:10188400B8900182E0FCA3E0FDA3E0FEEF2CFFE4AE
:101894003DFB8E02900185E08F828B838AF00230BB
:1018A400721217D27F00BF0100500FEF24AEF876FA
:1018B40000EF24ADF876000F80EC22900187E4F06D
:1018C4007F00BF01005015900181EFF090018775F2
:1018D400F000C007121815D0070F80E690021274AA
:1018E40087F07401A3F0E4A3F090021504F0E4A3DC
:1018F400F09000AD75F04012312BAE82AF83EE4F05
:10190400B401009203900188B3E433F0900188E0BD
:10191400FFE060229002097487F07401A3F0E4A34D
:10192400F090020C04F0E4A3F09000AD75F040C018
:1019340007122E20D00790014274AEF0E4A3F07495
:1019440040A3F09001457401F0900146EFF090003F
:07195400AD75F040020DC269
:10195C00AFF0AE83E582900189F0EEA3F0EFA3F037
:10196C00900189E0FDA3E0FEA3E0FF7A7C7B017C83
:10197C0000900209EDF0EEA3F0EFA3F090020C74CE
:10198C0002F0E4A3F08A828B838CF0122E201217C3
:10199C0030AE82AF83900189E0FBA3E0FCA3E0FDB5
:1019AC00900167EBF0ECA3F0EDA3F08E828F83C077
:1019BC0007C00612141BE582D006D0077003F5820F
:1019CC0022900189E0FBA3E0FCA3E0FD9001E1EB98
:1019DC00F0ECA3F0EDA3F08E828F83C007C006124B
:1019EC002265E582D006D0077003F582229001892A
:1019FC00E0FBA3E0FCA3E0FD900193EBF0ECA3F083
:101A0C00EDA3F08E828F83121B8DE5827003F5821D
:051A1C00227582012289
:101A220078AF865008865175540122E58290018C68
:101A3200F07F00E0FEB55203D38001C3B392047875
:101A420053A204E433F6BE00028005BE0716800DE1
:101A520090005375F040121D2CAF828016121D6843
:101A6200AF82800FBE0100400AEE24F94005121F2A
:101A72003AAF82EF7010755402E553700990018CF1
:101A8200E0700375540322120739E5828583F078EA
:101A9200AFF608A6F0E55424FC4042E55475F00385
:101AA200A4901AA773021AB3021AB6021ABC021A37
:101AB200C6021A22854882021A2D8548521220DB5C
:101AC2007554032285508285518312075DAE82AF21
:101AD20083C3EE9414EF9400400375540022E58210
:101AE20090018DF0E0FF8F48900206EFF0758206BC
:101AF200022BBCE58290018EF0E0F5482275820649
:101B0200122BF2E582F54822E582900190F0E0F591
:101B12004990018FE0F54A900206E549F075820787
:101B2200122BBC900206E54AF0758208022BBCE536
:101B320082900191F0E0FF8F4B900206EFF07582E8
:101B420009022BBCE582900192F0E0FF8F4C9002DB
:101B520006EFF075820A022BBC9034C3E493FF9027
:101B620034C4E49390018FF08F82121B0A9034C523
:101B7200E493F582121B319034C6E493F582121B72
:101B8200469034BFE493F582021AE0AF83E5829077
:101B92000196F0EFA3F0900193E0FDA3E0FEA3E035
:101BA200FF74052DFDE43EFE8D828E838FF012328E
:101BB2002E7003021CF2900196E0FEA3E0FFC3EE3A
:101BC200940CEF947E5003021CF2C374149E747E34
:101BD2009F5003021CF2BE0C05BF7E028023BE1181
:101BE20005BF7E028031BE1205BF7E028041BE1358
:101BF20005BF7E028053BE1405BF7E028063021CB5
:101C02007DAD480D8D48BD070040037548008548ED
:101C120082121AE0021CEEAD4BBDF5004003021C1D
:101C2200EE740A2DF54B854B82121B31021CEEE538
:101C32004BFD24F55007ED24F6F54B8003754B0060
:101C4200854B82121B31021CEEAD4CBDF5004003E8
:101C5200021CEE740A2DF54C854C82121B46021CA6
:101C6200EEE54CFD24F55007ED24F6F54C800375A6
:101C72004C00854C82121B46021CEEBE0D05BF7E37
:101C8200028018BE0E05BF7E028023BE0F05BF7EF6
:101C920002802EBE104ABF7E478039AF49BFFA008C
:101CA200500774052FF54980377549FF8032E549A1
:101CB200FF24FA5007EF24FBF54980247549008080
:101CC2001FAF4ABFF5005007740A2FF54A801175FD
:101CD2004AFF800CE54AFF24F55005EF24F6F54A49
:101CE20090018FE54AF0854982121B0A7582002213
:101CF200758201221220C4758206122BF2E582F54A
:101D020048758207122BF2E582F549758208122B7B
:101D1200F2E582F54A758209122BF2E582F54B75DE
:101D2200820A122BF2E582F54C22AFF0AE83E582F5
:101D3200900198F0EEA3F0EFA3F0900198E0FDA3DC
:101D4200E0FEA3E0FF8D828E838FF012322E7003AD
:101D5200F582229001DBE4F09001DCF07582001242
:101D620021177582002275820022AFF0AE83E582D0
:101D720090019BF0EEA3F0EFA3F090019BE0FDA396
:101D8200E0FEA3E0FF74022DFAE43EFB8F048A8298
:101D92008B838CF012322EF56CC3940A50077407B1
:101DA200B54802802490019BE0F56FA3E0F570A393
:101DB200E0F571056FE4B56F020570856F8285707D
:101DC200838571F074FE02307274012DFAE43EFBD9
:101DD2008F048A828B838CF012322EF56F756D031D
:101DE200756E00C3E56E956C400122E56F75F003D8
:101DF200A424AEF572740135F0F57374012572F501
:101E020074E43573F575E56D2DFAE43EFB8F048AB3
:101E1200828B838CF012322E857482857583F085D5
:101E22006D7475750074012574FAE43575FCEA2D3C
:101E3200FAEC3EFC8F038A828C838BF012322E8561
:101E42007282857383F074022572F572E43573F53C
:101E52007374022574FAE43575FCEA2DFAEC3EFC43
:101E62008F038A828C838BF012322EFA85728285DE
:101E72007383F0056E056FAB6D74032BF56D021D58
:011E8200E57A
:101E8400E58290019FF0E0FF90019EE0FE7D000E50
:101E9400BE00010D7C00C006C0058F828C83123009
:101EA4008DAF83158115818F068E8222AF83E582E3
:101EB4009001A1F0EFA3F09001A0E0FF7E000FBF1E
:101EC40000010E9001A1E0FCA3E0FDC007C0068C58
:101ED400828D8312308DAF83158115818F067F002B
:101EE4008E828F8322E5829001A3F0E0FF30E70722
:101EF4009001A3C3E49FF09001A3E0F58222E58260
:101F04009001A5F0E0FF7E009001A4E07C002FFF8B
:101F1400EC3EFE9001A6EFF0EEA3F0C374FF9FE445
:101F24009E50099001A674FFF0E4A3F09001A6E08E
:101F3400FEA3E08E8222854A56854B57E54C030367
:101F4400543FFF9001A47401F08F82121F02AF82EC
:101F54009001A0EFF0855082855183121EB0AE82AD
:101F64007F00BF0F0040030220C0E548FD24F95064
:101F74000302203AED2D2D901F7F7302203A021F99
:101F840094021F9A021F9F021FAD021FC402200C5D
:101F940085495502203A8E5502203AEF2F9034A1FC
:101FA40093FDC39EF55502203AEF2F24A1FDE4349E
:101FB40034FC8D828C83A3E493FDC39EF555807617
:101FC400AD49EF2F24A1FCE43434FB8C828B83A332
:101FD400E493FAC007903491E493FFEAC39FF58237
:101FE400C006C005C004C003121EE9AF82D003D0EE
:101FF40004D005D006EF2DFF8C828B83E493C39E1F
:10200400FC2FF555D007802EAD49EF2F9034A193C6
:10201400C39EF582C007C006C005121EE9AC8290BB
:10202400019E7430F08C82121E84AC82D005D006DE
:10203400D007EC2DF5557B227C007D40900209747D
:1020440055F0E4A3F0EDA3F090020C7403F0E4A3C4
:10205400F08B828C838DF0C007C006122E2075E0B1
:10206400ABC0E075E001C0E075E000C0E0120C2EEA
:1020740015811581158190020974ABF07401A3F0E8
:10208400E4A3F090020C7403F0E4A3F09001A875AB
:10209400F000122E20D006D0079001A9E0F5589048
:1020A40001A8E0F5599001AAE0F55A8F82C007C053
:1020B400061220F0D006D0070F021F667582002298
:1020C4009002077401F0758210122CA4900208E4A7
:1020D400F0758210022DAB7EAE7F017D007C004343
:1020E400052D8E828F838DF0EC02320AE58275F025
:1020F40003A424AEFE740135F0FF8E828F83A3E522
:1021040058F08E828F83E559F08E828F83A3A3E5E6
:102114005AF022E5829001DDF0E0FF9001DBE0FE61
:102124009001DCE0FD7C00BC0F00501E8F588E59DE
:102134008D5A8C82C007C006C005C0041220F0D09E
:0B21440004D005D006D0070C80DD227F
:10215000E5829001DEF0E0FF9034F793FE7D00C051
:1021600007C006C0057408C0E0E4C0E08F828D831C
:1021700012324AAB82AC8315811581D005D006D0CE
:1021800007EB24C7F582EC3434F583E493FA530764
:10219000078FF005F0EA8002C313D5F0FB5401F578
:1021A0005BEB24D7F582EC3434F583E493FA8FF0BB
:1021B00005F0EA8002C313D5F0FB5401F55CEB2473
:1021C000E7F582EC3434F583E493FC8FF005F0EC12
:1021D0008002C313D5F0FB5401FFE55B600E7582EE
:1021E000E1C007C00612097DD006D007E55C600E8D
:1021F0007582E6C007C00612097DD006D0078E8220
:10220000C007120AB3D007E55C600A7582E6C00712
:10221000120A2DD007E55B600A7582E1C007120A39
:0D2220002DD007EF600675822C020AB32254
:10222E00758200122BF2AF82BF5A012202223D129A
:10223E000F43120FD0120FEF121B5B1213299002D5
:10224E0006745AF0758200022BBC75E200C2AF759F
:10225E00890012380080FEAF83E5829001E4F0EF32
:10226E00A3F09001E1E0FDA3E0FEA3E0FF74052DD5
:10227E00FDE43EFE8D828E838FF012322E6023900F
:10228E0001E4E0FEA3E0FF8E048F0574892D501249
:10229E00C3747F9C74779D40098E8212105975828B
:1022AE00002275820122E5829001E6F0E0F9240217
:1022BE00F8740329FF8706BE0702800CBE080302CE
:1022CE002356BE09028001229001DFE0FDA3E0FE4D
:1022DE008D828E83C007C00012075DAD82AE83D0A3
:1022EE0000D007C3ED94F4EE94015001228606BE91
:1022FE000102801ABE0202800ABE0302801BBE04C7
:10230E00368021A80786068E82121AE08029A80739
:10231E0086068E82121B31801EA80786068E8212BA
:10232E001B468013A8078606EF04FD90018FA805B3
:10233E00E6F08E82121B0A120739E5828583F09031
:10234E0001DFF0E5F0A3F0228606BE0102801FBE7B
:10235E000202800ABE03028025BE045680307582BA
:10236E0006C007122BF2E582D007A807F622758267
:10237E0009C007122BF2E582D007A807F622758254
:10238E000AC007122BF2E582D007A807F622758243
:10239E0007C007C001122BF2E582D001D007A807B3
:1023AE00F6E92404F9758208C001122BF2E582D0F9
:1023BE0001F722E5829001E7F0E0F904F8740229B2
:1023CE00FF740329FE8605BD053C8704BC07028009
:1023DE0008BC0802801DBC092CA8078604BC01009D
:1023EE004023EC24FA401E900206A806E6F08C82EA
:1023FE00022BBCA80786048C82C006122BF2E58243
:10240E00D006A806F622BD06288704BC070280085F
:10241E00BC08028017BC0918A8078604BC010280FC
:10242E0005BC020C800302223D022258A80676004B
:10243E0022BD030589820222B4BD07028003022455
:10244E00C68705BD07028008BD08028043BD096727
:10245E00A8078605BD0100405EED24FA4059EE0442
:10246E00F886047B008C5E8B5D74022EF886027CEF
:10247E0000E55D4202E55E42041D90015AA806E6A3
:10248E00F090015BEAF0ECA3F08D821212EB802744
:10249E00A80786071F900158A806E6F08F82C00194
:1024AE001212AAAE82AF83D001740429F88F05A64A
:1024BE0005740529F8A6062277FF22E5829001E829
:1024CE00F0E0F904F8E7FF24D9500302275BEF246C
:1024DE000A83F582EF242B83F583E4735B595D5DEC
:1024EE00649EDEE4E4E45D5DECF1FF4F9EA4A9047E
:1024FE005B5B5B5B5B5B5B5B5B5B5B5B5B5B5B5B1E
:10250E00384A5327252727252525252525272725FD
:10251E002525262626262727272727272727272745
:10252E002727272727272725252589077E007D4052
:10253E008F828E838DF0121D6C02275D75820712BD
:10254E001AF502275D121AFF02275D760074022922
:10255E00F8760C02275D8607740229FE90014BA8BF
:10256E0006E6F0740329FE90014CA806E6F08F8271
:10257E00C001120EB8AE82AF83D001740429FD8F54
:10258E0004A805A604740529FDA805A60602275D64
:10259E008607740229FE90014EA806E6F074032900
:1025AE00FE90014FA806E6F0740429F886068E0503
:1025BE007E00740529F886047B00EC4206EB42058A
:1025CE00900150EEF0EDA3F08F82120EFF02275D08
:1025DE00120F4302275D89821223C102275D760501
:1025EE0002275D7600740229FF746DA807F6022794
:1025FE005D740229FF740329FE7D00A9068704C3BA
:10260E00ED9C400302275D8D037C0074032BFBE4DD
:10261E003CEB28FCA907870374132BFB8D02EA2BD6
:10262E00F582C007C006C005C004C000122BF2E53B
:10263E0082D000D004D005D006D007A904F70D80B3
:10264E00BA740229FF740329FE7D00A9068704C30C
:10265E00ED9C400302275DA907870474132CFC8DA3
:10266E0003EB2CFC8D027B0074032AFAE43BEA2870
:10267E00FB900206A903E7F08C82C007C006C005D6
:10268E00C000122BBCD000D005D006D0070D80BBE9
:10269E00120FD002275D760102275D7F007402299A
:1026AE00FEC000A8068606D000EE4207740329FE7F
:1026BE007D00A9068704C3ED9C400302275D8D03B0
:1026CE007C0074032BFBE43CEB28FC8F03740B2B78
:1026DE00FB8D02EA2BF582C007C006C005C004C000
:1026EE0000122BF2E582D000D004D005D006D00720
:1026FE00A904F70D80BC7F00740229FEC000A80655
:10270E008606D000EE4207740329FE7D00A90687D7
:10271E0004C3ED9C50398F04740B2CFC8D03EB2CF1
:10272E00FC8D027B0074032AFAE43BEA28FB90023C
:10273E0006A903E7F08C82C007C006C005C00012D0
:10274E002BBCD000D005D006D0070D80C077FF90EF
:0F275E0001E8E0FF78B179B8E6F78F820228052D
:10276E00AF83E5829001E9F0EFA3F09001E9E0FE7E
:10277E00A3E0FF90021FE0FCA3E0FDEEB50405EF21
:10278E00B505012290021FEEF0EFA3F078B27602AB
:10279E0078B3A60608A6077513047582B202014027
:1027AE00AF83E5829001EBF0EFA3F09001EBE0FE3A
:1027BE00A3E0FF900221E0FCA3E0FDEEB50405EFDF
:1027CE00B5050122900221EEF0EFA3F078B5760365
:1027DE0078B6A60608A6077513047582B5020140E1
:1027EE00020243E5829001EDF0E0F9770189077569
:1027FE0013098F82020140E5829001EEF0E0FF782E
:10280E00B886148F820201E7E5829001EFF0E0F9BD
:0C281E00770489077513058F82020140C2
:10282A00AFF0AE83E5829001F1F0EEA3F0EFA3F0F2
:10283A009001F1E0FDA3E0FEA3E0FF74032DFDE4A7
:10284A003EFE9001F0E0FC7B00BB0600501CEB2D25
:10285A00F8E43EF98F02888289838AF012322EF8D0
:10286A00B50404758201220B80DF75820022AFF065
:10287A00AE83E5829001F5F0EEA3F0EFA3F07F00BE
:10288A00BF060050629001F5E0FCA3E0FDA3E0FE64
:10289A0074032CF9E43DFA8E03EF29F9E43AFA8934
:1028AA00828A838BF012322EF99001F4E0FBE9B5AB
:1028BA0003012274032CF8E43DF98E02EF28F8E4B0
:1028CA0039F9888289838AF012322E701774032CA0
:1028DA00FCE43DFDEF2CFCE43DFD8C828D838EF003
:1028EA00EB0230720F809922AFF0AE83E58290013D
:1028FA00F9F0EEA3F0EFA3F09001F9E0FDA3E0FEFA
:10290A00A3E0FF74032DF56CE43EF56D8F6E900124
:10291A00F8E0F97800B80600504DC005C006C007B7
:10292A00E8256CFDE4356DFEAF6E8D828E838FF0E7
:10293A0012322EFDB501028008D007D006D00580DC
:10294A0023D007D006D005C00174032DF9E43EFB5D
:10295A008F04E829F9E43BFB89828B838CF0E4122B
:10296A003072D0010880AE22E5829001FCF0E0FFCF
:10297A00BFA502800ABFA6028009BFA70E800890E1
:10298A00008122900082229000832290000022E59A
:10299A00829001FDF0E0FF7E00BE1B005034EE7510
:1029AA00F003A4FCADF02477F582ED3435F583E429
:1029BA0093FBEFB50319EC2477FCED3435FD8C82DB
:1029CA008D83A3E493FCA3E493FD8C828D83220E72
:1029DA0080C790000022AFF0AE83E5829001FFF03D
:1029EA00EEA3F0EFA3F09001FEE0FFBFCD1D900132
:1029FA00FFE0FCA3E0FDA3E0FE74032CFCE43DFD34
:102A0A008C828D838EF074FF023072BFCE1D9001CE
:102A1A00FFE0FCA3E0FDA3E0FE74032CFCE43DFD13
:102A2A008C828D838EF07401023072BFCF1D9001AB
:102A3A00FFE0FCA3E0FDA3E0FE74022CFCE43DFDF4
:102A4A008C828D838EF074FF023072BFD01D90018C
:102A5A00FFE0FCA3E0FDA3E0FE74022CFCE43DFDD4
:102A6A008C828D838EF07401023072BFD91D900161
:102A7A00FFE0FCA3E0FDA3E0FE74042CFCE43DFDB2
:102A8A008C828D838EF07401023072BFDA1D900140
:102A9A00FFE0FCA3E0FDA3E0FE74042CFCE43DFD92
:102AAA008C828D838EF074FF023072BFD100403C5D
:102ABA00EF242740379001FFE0FCA3E0FDA3E0FEEE
:102ACA000CBC00010D8C828D838EF012322EFBEF2E
:102ADA00242FF5F005F07401800225E0D5F0FBFF04
:102AEA0042038C828D838EF0EB02307222AFF0AEFD
:102AFA0083E582900203F0EEA3F0EFA3F0900202C6
:102B0A00E0FFBFCD028003BFCE1C900203E0FCA30E
:102B1A00E0FDA3E0FE74032CFCE43DFD8C828D8372
:102B2A008EF0E4023072BFCF028003BFD01C900245
:102B3A0003E0FCA3E0FDA3E0FE74022CFCE43DFDEF
:102B4A008C828D838EF0E4023072BFD9028003BF7B
:102B5A00DA1C900203E0FCA3E0FDA3E0FE74042C5F
:102B6A00FCE43DFD8C828D838EF0E4023072BFD18D
:102B7A0000403DEF24274038900203E0FCA3E0FD2B
:102B8A00A3E0FE0CBC00010D8C828D838EF0123204
:102B9A002EFBEF242FF5F005F07401800225E0D515
:102BAA00F0FBF4FF52038C828D838EF0EB023072BD
:012BBA0022F8
:102BBC00AF82BF800040012275A15575A1AA43B117
:102BCC000475A1007585C0EF2FF584900206E0F521
:102BDC008EE58630E60375869A75A15575A1AA53C4
:102BEC00B1FB75A10022AF827585C0EF2FF58475FE
:062BFC00868E858E822208
:102C0200C021C0E0C0F0C082C083C007C006C005BA
:102C1200C004C003C002C001C000C0D075D0001201
:102C22000635D0D0D000D001D002D003D004D005D8
:102C3200D006D007D083D082D0F0D0E0D02132C0ED
:102C420021C0E0C0F0C082C083C007C006C005C07A
:102C520004C003C002C001C000C0D075D000900201
:102C620023E0FEA3E04E600E900223E0F8A3E0F51D
:102C7200838882120049D0D0D000D001D002D00384
:102C8200D004D005D006D007D083D082D0F0D0E0D7
:102C9200D0213212303D12010212010E80FB7582E8
:022CA20000220E
:102CA400E582FF90361893FEEF9035F093FF7001A4
:102CB40022900207E0FD701BBF0209EEF4FC529261
:102CC400EC529322BF0402800122EEF4FC5296ECF3
:102CD400529722BD0214BF0207EE4292EE429322A3
:102CE400BF0439EE4296EE429722BD0116BF020898
:102CF400EEF45292EE429322BF0421EEF45296EE89
:102D0400429722BD0316BF0208EE4292EEF452939C
:102D140022BF0408EE4296EEF4FE529722AF82BF21
:102D24000102800FBF02028013BF03028017BF0499
:102D340025801BE5C620E21E539DFB22E5C620E349
:102D440015539DF722E5C630E20C539DFB22E5C6E0
:102D540030E303539DF722E582FF9035C893FEEFDD
:102D640090361893FDEF9035F093FF7003F58222AF
:102D7400EE600D8E82C007C005122D21D005D0074C
:102D84007E00BF0202800ABF03028009BF040C80D8
:102D940008AE908006AEA08002AEB0ED5E60047511
:102DA40082012275820022E582FF9035C893FEEFEE
:102DB40090361893FDEF9035F093FFEE600D8E8200
:102DC400C007C005122D21D005D007A2AFE433FE01
:102DD400C2AFBF0202800ABF03028017BF0436805D
:102DE40024900208E07007EDF4FF52908027ED4232
:102DF400908022900208E07007EDF4FF52A0801545
:102E0400ED42A08010900208E07007EDF4FF52B08C
:0B2E14008003ED42B0EE6002D2AF225E
:102E2000AFF0AE83E58290020EF0EEA3F0EFA3F0D8
:102E300090020EE0F56CA3E0F56DA3E0F56EAA6CD0
:102E4000AB6DAC6E900209E0F8A3E0F9A3E0FF904F
:102E5000020CE0F56FA3E0F570AD6FAE70156F7406
:102E6000FFB56F021570ED4E6020888289838FF068
:102E700012322EFEA3A882A9838A828B838CF0EE65
:102E8000123072A3AA82AB8380CF856C82856D835A
:042E9000856EF02239
:102E9400C0D075D00808B8000D09B900090ABA00F5
:102EA400050BBB00010CD0D032A2AFC2AFA808A959
:102EB40009AA0AAB0BAC8A8588F092AF30F512747C
:102EC400012C600D08B8000909B900050ABA00010F
:102ED4000BC3EC9406FCECC313FC75F07DE8A4F87A
:102EE400ADF075F07DE9A42DF9E435F0FD75F07DC4
:102EF400EAA42DFAE435F0FD75F07DEBA42DFB7DFD
:102F040000EC28F582E93DF583EA3DF5F0EB3D223E
:102F1400A2AFC2AFA808A909AA0AAB0BAC0C92AF26
:102F240075F020E8A4A8F075F020E9A428F582A89B
:102F3400F075F020EAA428F583A8F075F020EBA43E
:102F440028F9A8F075F020ECA42889F02285825F86
:102F540085836085F061F562122EAD858263858379
:102F64006485F065F566E55F45604561456270011D
:102F740022A85FA960AA61AB6285636785646885DE
:102F8400656985666AE8494A4B60DBC003C002C0D4
:102F940001C000122EADAC82AD83AEF0FFD000D0E4
:102FA40001D002D003ECC39567FCED9568FDEE9566
:102FB40069FEEF956AFFC3EC94E8ED9403EE940088
:102FC400EF940040A118B8FF0919B9FF051ABAFF18
:102FD400011B885F89608A618B6274E82567F567E5
:102FE40074033568F568E43569F569E4356AF56AAA
:102FF400856763856864856965856A668087AE824E
:10300400AF83C374019EE49F40022200C374029EF6
:10301400FE74009FFF00BE0005BF000200220000F6
:103024000000000000000000000000000000000E8E
:10303400BE00EB0FBF00ED002275A15575A1AA7467
:10304400F855B94406F5B975A100901388123002F9
:10305400759E5D759D0074F055894402F58953C9C8
:0D306400EF758C06C28DD2A9D28CD2AF229E
:1030720020F71130F6138883A88220F509F6A88379
:103082007583002280FEF280F5F022C06B85816B91
:10309200C082C083E5812405F581AF6B0FE56B2407
:1030A20003F8A607087600087640E56B24FCFD7E4F
:1030B200007F40E56B2406F9A86B088604E56B24C3
:1030C200FCF886038CF0EBA4F709A7F0E56B240665
:1030D20004F98704A86B08860374012DFAE43EFE06
:1030E2008A828E838FF012322E8BF0A4FBE56B2442
:1030F20003F8740126FDE40836FE0886078D828EE9
:10310200838FF012322EFDE56B24FCF886078DF0DA
:10311200EFA42B2CF7E56B2406F987060987078EA7
:10312200828F83856B81D06B22AFF0AE83E5829074
:103132000217F0EEA3F0EFA3F0900215E0FEA3E079
:10314200FF900215E0F5F0A3E045F0700490000056
:10315200221EBEFF011FEE4F6075C006C00790021F
:1031620017E0FBA3E0FCA3E0FD8B008C018D02883D
:103172008289838AF012322EF8900212E0F56CA353
:10318200E0F56DA3E0F56EA96CAA6DAF6E89828A37
:10319200838FF012322EF9E8B501028006D007D0F3
:1031A20006802CD007D0060BBB00010C900217EB57
:1031B200F0ECA3F0EDA3F0AB6CAC6DAD6E0BBB000D
:1031C200010C900212EBF0ECA3F0EDA3F0808290E0
:1031D2000217E0FDA3E0FEA3E0FF8D828E838FF055
:1031E20012322EFD7F00900212E0FBA3E0FCA3E06E
:1031F200FE8B828C838EF012322EFB7E00EDC39BFF
:08320200FDEF9E8D82F5832291
:10320A00ABF0A2AFE433FEC2AFE0A37A0833D296A2
:10321A004002C2967905D9FEC296DAF1DBEBEE607E
:04322A0002D2AF22FB
:10322E0020F71430F6148883A88220F507E6A883C9
:10323E0075830022E280F7E49322E022C06B858141
:10324E006BAE82E583FF33E433FD6009C3E49EFB7E
:10325E00E49FFC80048E038F04E56B24FCF808E6E3
:10326E0033E433FF600FE56B24FCF8C3E496FA08F1
:10327E00E496FE800AE56B24FCF88602088606C0FA
:10328E0007C005C002C0068B828C831232C0AC828E
:10329E00AE8315811581D005D007EF6D600DC3E4A7
:1032AE009CFDE49EFF8D828F8380048C828E83D062
:1032BE006B22C06B85816BAE82AF837C007D007B01
:1032CE0010EF235401FAEE2EFEEF33FFEC2CFCED43
:1032DE0033FDEA6003430401E56B24FCF8C3EC966E
:1032EE00ED08964010E56B24FCF8ECC396FCED0857
:1032FE0096FD430601DBCA8E828F83D06B227582C8
:02330E0000229B
:1033100012011001000000086252524E0100010229
:10332000030109024900020100806409040000024F
:103330000301010009211001210122A800070581D4
:10334000030900010705010309000A09040100023D
:10335000030000000921100100012222000705825C
:10336000032000140705020320001405010906A12B
:10337000018501050719E029E71500250195087564
:1033800001810295017508810395067508150026CF
:10339000FF000507190029E7810005081901290523
:1033A000150025019505750191029501750391039D
:1033B000C005010980A101850219012AB700150184
:1033C00026B700950175108100C0050C0901A10107
:1033D000850319012AA002150126A0029501751086
:1033E0008100C005010902A1010901A100850405B0
:1033F00009190129081500250195087501810205A3
:10340000010930093109381581257F750895038137
:1034100006C0C00660FF0961A1010962150026FF10
:10342000009520750881060963150026FF00952088
:1034300075089183C0040309041A0343004800354A
:10344000003500780051004D004B004C00690074BD
:103450000065004E005200470042000A034E005231
:10346000004700420052006F0062006900740004CF
:0B3470000352006F006200690074004E
:02347B000C7EC5
:10347D0068D169D26AD36BCD6CCE6DCF6ED06FD95A
:02348D0070DAF3
:01348F001F1D
:1034900070200E0D0C0B0A09080706050403020133
:1034A00000003800340030002C00280024002000E8
:1034B0001C001800140010000C0008000400000597
:0734C0000000000AFF64197F
:1034C700000000007E0F00D4FFFFFFC70000007858
:1034D70000000000000000000000000000000000E5
:1034E70000000000000000000000000000000000D5
:1034F70000000000000000002A2B28000000000048
:10350700000000000000000000000029000000008B
:103517002C1E3420212224342627252E362D3738F9
:10352700271E1F202122232425263333362E373802
:103537001F0405060708090A0B0C0D0E0F101112C0
:10354700131415161718191A1B1C1D2F3130232D8C
:10355700350405060708090A0B0C0D0E0F1011128A
:10356700131415161718191A1B1C1D2F3130354C3B
:10357700A8E200A9E900AAEA00ABB500ACB600BB17
:10358700B300BCB400ADB700B0CC00AECD00AF8384
:1035970001B18A01B29201B39401BF9F01C0CB016F
:1035A700B42102B52302B62402B72502B82602B910
:1035B7002702BD6F00BE7000BA2A02C19F02C2A0D7
:0135C7000201
:1035C80000000000000000000000000000000001F2
:1035D80000000000000000000000000000000304DC
:1035E80000000200000000000101010101010101C9
:1035F80000000202020202020202000003030303A7
:103608000303030300000404040404040404000086
:103618000102040810204080000001020408102064
:1036280040800000010204081020408000000102D0
:103638000408102040800000FFFFFFFFFFFFFFFF8E
:10364800FFFFFF00FFFF0102FFFFFFFFFFFFFFFF7C
:10365800FFFFFFFFFFFFFFFF03FFFFFFFFFFFFFF6E
:02366800952C9F
:01366A00005F
:01366B00005E
:01366C00005D
:04366D000000000059
:02367100000057
:00000001FF
