:0400000002004B327D
:03000B00022E467C
:0100130032BA
:01001B0032B2
:0100230032AA
:01002B0032A2
:01003300329A
:03003B00022BF3A2
:03004300022BB4D9
:03004600022C4742
:0F004900E4737581B31232BEE582600302004694
:10005800790BE94400601B7A01903635780275A067
:1000680002E493F2A308B8000205A0D9F4DAF27505
:02007800A0FFE7
:06007A00E478FFF6D8FD5A
:100080007800E84400600A790A75A001E4F309D811
:10009000FC78F8E84400600C790190010AE4F0A3D0
:0400A000D8FCD9FAB5
:0900A400751000751100751200C1
:0900AE00E4F51AF51BF51CF51D23
:0600B800751E00751F001B
:1000BE00789C76FF789D7600789E7600789F760005
:0C00CE007532FFE4F533F534F535F536F6
:0C00DA0078A2760078A3760078A4760067
:0600E60078A5E4F608F61F
:0600EC00753A00753B00AF
:0900F2007546FF754700754803CF
:1000FC007808E4F608F608F608F6780C76000200A4
:01010C0046AC
:06010E0002011402011AB7
:0901140012024C02179402190EAC
:10011E0075D30074FC55D24402F5D275100022300E
:10012E00DE1190000AE0FFBF010990000BE0FF9086
:10013E000204F022E58290010AF07E007F00E510B5
:10014E0060240EBE00010F900005C007C006122FDE
:10015E00B4D006D0078E048F05C3EC9420ED944ED8
:10016E0040DC7582002290010AE09001F1F0E4A3D8
:10017E00F07440A3F09001F4E513F0E4A3F09000C6
:10018E004A75F000122DD28513D375100153D2FC8F
:10019E007582012275D50074FC55D44402F5D475D0
:1001AE0011002230DE0375120122E512602C90013F
:1001BE00F1748AF07400A3F0E4A3F09001F47420BB
:1001CE00F0E4A3F090006A75F040122DD278AC7670
:1001DE002075826A1223E375120022E58290010BCC
:1001EE00F07E007F00E51160200EBE00010F900032
:1001FE0005C007C006122FB4D006D007C3EE945028
:10020E00EF94C340E07582002290010BE09001F163
:10021E00F0E4A3F07440A3F09001F4E514F0E4A32D
:10022E00F09000CA75F000122DD28514D57511010B
:10023E0053D4FC75820122900204E0F5822212064C
:10024E00DA1207041206F375DD0075D30075D500BA
:01025E00227D
:10026000AFDBBF08028003020599900007E0FE7F24
:1002700000900006E0FD7C004FF515EC4EF5167F72
:1002800000900001E0F517900205E4F0900000E016
:10029000FE546060057FFF02059BE51724F45003C0
:1002A000020595E517240B83F582E517241083F5E5
:1002B00083E473772895B295F2CB95FF1C9B9B0541
:1002C0000405040503020503040505900003E0FE90
:1002D000BE01028012BE02028018BE0302801EBE52
:1002E000220280660203827518C27519327F1202DB
:1002F00003847518D47519327F4902038490000273
:10030000E0700875181F7519348034900002E0FE03
:10031000BE010875185D7519348024900002E0FE56
:10032000BE02087518477519348014900002E0FE6B
:10033000BE030875182375193480047FFF80458536
:100340001882851983E493FF803A900002E0702EB2
:10035000900004E0700E75181D7519339032EDE4AD
:1003600093FF8020900004E0FEBE010E7518FD751D
:10037000193390330DE493FF800A7FFF80067FFFDF
:1003800080027FFFBFFF0302059B8F057E00C3ED48
:100390009515EE951650048D158E16AD15AE16C337
:1003A000ED9408EE9400920040067B087C008004E7
:1003B000AB15AC168B077C00C3EC9F50198C027BED
:1003C00000EC2518F582E43519F583E493F98A8267
:1003D0008B83F00C80E28F037C00EDC39BFDEE9CD1
:1003E000FE8D158E16EF2518F518E43519F519024E
:1003F000059B900002E0FE8E1575160002059B908D
:10040000010CE0900000F0AD15AE16C3ED9401EEC6
:100410009400500302059B7F0102059B900002E0BF
:10042000FE90010CF002059B900000E0541F702F1D
:10043000900003E0FD7E00900002E0FC7B0042069D
:10044000EB4205BE0114BD00119032DBE493FE3097
:10045000E50302059B7FFF02059B7FFF02059B9042
:100460000000E0FE53061F7D00BE0241BD003E902D
:100470000004E0FEBE01028029BE02028013BE819C
:10048000028014BE822274BC55D44402F5D4020505
:100490009B53D47302059B74BC55D24402F5D2021F
:1004A000059B53D27302059B7FFF02059B7FFF02D2
:1004B000059B900000E0541F702F900003E0FD7E2C
:1004C00000900002E0FC7B004206EB4205BE0114F6
:1004D000BD00119032DBE493FE30E50302059B7F03
:1004E000FF02059B7FFF02059B900000E0FE530684
:1004F0001F7D00BE0205BD000280028076900003D1
:10050000E0FD7E00900002E0FC7B004206EB42052D
:10051000EE4D705B900005E0FD7E00900004E0FC75
:100520007B004206EB4205BE0105BD00028034BEE1
:100530000205BD00028018BE8105BD0002801ABE02
:100540008229BD002674BF55D44403F5D4804C7471
:100550007F55D4440CF5D4804274BF55D24403F582
:10056000D28038747F55D2440CF5D27FFF802C7F27
:10057000FF80287FFF8024900000E4F0900001F0CD
:10058000AD15AE16C3ED9402EE940040047F0280D8
:100590000AAF1580067FFF80027FFFBFFF07751738
:1005A000FF75DCCF22EF24F740068FDD75DCC0221B
:1005B00075DD0075DCC0227405B51702805D740618
:1005C000B51766AE15AF16C3EE9408EF940092010E
:1005D00040067C087D008004AC15AD167D00C3ED9F
:1005E0009C50198D027B00ED2518F582E43519F534
:1005F00083E493F98A828B83F00D80E28C037D0083
:10060000EEC39BFEEF9DFF8E158F16EC2518F51897
:10061000E43519F5198CDD63DC4022E5E35480FFF5
:10062000E5154FF5E375DC022275DD0075DC02226D
:1006300075DD0043DC022220D9030206ADE5D95462
:100640000FFFADD95305307E00BD0005BE0002800E
:1006500018BD1005BE00028052BD2005BE000280FC
:1006600026BD3047BE0044803CBF0002800ABF0167
:1006700002800ABF0235800A120630802E12012D38
:1006800080291201B18024BF0002800ABF010280CC
:100690000ABF0217800A1205B7801012011E800BD4
:1006A0001201A28006BF0003120260C2D930D81D19
:1006B00075DC0275D21275D41275E300C2DAC2D9A4
:1006C000C2D875100075110090010CE4F010DA0129
:1006D00022E5DA20E20375D8FF2275E20053E27FBB
:1006E00043E22975E30053E2BF53D1FB75D1804348
:1006F000D1012243E10443E10243E10143D81FD287
:10070000EAD2AF227E007F008EEC8FED7E0A7F0062
:100710008EEE8FEF7E8A7F008EE48FE575D21275A4
:0C072000D41275EAC075EB0C75DC0222E7
:10072C00122EC685821A85831B85F01CF51D2202AC
:10073C00073E122EC6AC82AD83AEF0FFECC3951A09
:10074C00FCED951BFDEE951CFEEF951D8C828D83AB
:10075C008EF022AF83E58290010DF0EFA3F012072B
:10076C003BAE82AF8390010DE0FCA3E0FDEEC39C99
:10077C00FEEF9D8E82F58322900114E06003120C33
:10078C002C9001F1740FF07401A3F0E4A3F090012C
:10079C00F47406F0E4A3F090011575F000122DD25C
:1007AC00900119E0700302131490011575F00012FA
:1007BC001CD9E5827001227D967E017F009001F1AB
:1007CC007415F07401A3F0E4A3F09001F47402F03A
:1007DC00E4A3F08D828E838FF0122DD275E01DC0B4
:1007EC00E075E001C0E075E000C0E012191E158153
:1007FC00158115819001F1741DF07401A3F0E4A32F
:10080C00F09001F47402F0E4A3F090011B75F00079
:10081C00122DD27D1F7E017F009001F17415F074B2
:10082C0001A3F0E4A3F09001F47406F0E4A3F08DBE
:10083C00828E838FF0122DD27D257E017F00900158
:10084C00F1741BF07401A3F0E4A3F09001F47402B2
:10085C00F0E4A3F08D828E838FF0122DD202086CFF
:10086C00900126E0C4540FFF6012BF0102800DBF3F
:10087C000403020917BF050302096122900126E057
:10088C0054F07009900126E0540FFF800B90012664
:10089C00E0540FFEC454F0FF900124E06034EF608C
:1008AC0028900125E0FEBEE0004009900125E0FE05
:1008BC0024185006900125E070078F82120C0280DC
:1008CC00058F82120C17120BA9900125E0F58202FC
:1008DC00097F900125E0F582C007120A2FD007EF9F
:1008EC00700122900125E0FEBEE000400990012538
:1008FC00E0FE24185006900125E070078F82120C40
:10090C000C80058F82120C21020BA9900126E003AA
:10091C00035403FF6005BF0159801D900124E06062
:10092C000C900125E0FEA3E05403FF80047E007FC1
:10093C00008E828F8302270C900124E0600C9001C2
:10094C0025E0FEA3E05403FF80047E007F008E822E
:10095C008F8302274C900124E0600B900125E0F579
:10096C0082120B228009900125E0F582120B3602CF
:10097C000B5B22E582900127F0E0FF700122BF049F
:10098C0000402FEF245B402A9001D8EFF090008AB2
:10099C0075F040C0071227DCE582D00760088F8213
:1009AC00120AFA120BA9900127E0F582120AE6024C
:1009BC000BA9900127E0FFBFE000401DEF24184079
:1009CC001874075FF5F005F07401800225E0D5F08E
:1009DC00FBF582120C02020BA9900127E0FFBFA5C8
:1009EC0000400FEF2458400A8F82122924AF830253
:1009FC00270C900127E0FFBFA800400FEF243D40DB
:100A0C000A8F8212294BAF8302274C900127E0FFFB
:100A1C00BFCD00400DEF242040088F82120B220224
:100A2C000B5B22E582900128F0E0FF700122BF04ED
:100A3C0000400DEF245B40088F82120AFA020BA9CA
:100A4C00900128E0FFBFE000401DEF24184018740F
:100A5C00075FF5F005F07401800225E0D5F0FBF599
:100A6C0082120C0C020BA9900128E0FFBFA50040DC
:100A7C000BEF2458400690000002270C900128E050
:100A8C00FFBFA800400BEF243D400690000002275A
:100A9C004C900128E0FFBFCD00400DEF2420400812
:100AAC008F82120B36020B5B22E582900129F0E05B
:100ABC00FFF582C00712097FD007BF390B90005099
:100ACC00E4F5F0122F038009900000E4F5F0122FEA
:0A0ADC0003900129E0F582020A2FC1
:100AE600E58290012AF0E09001DCF090008A75F032
:100AF6004002282AE58290012BF0E09001E0F09078
:100B0600008A75F0400228A47F00BF09005009EF53
:100B1600248AF876000F80F2751E0022E582900185
:100B26002CF0E09001E6F090009375F040022992D7
:100B3600E58290012DF0E09001EAF090009375F0C7
:100B460040022AA9789576007896760078977600FE
:100B560078947600229001FA742EF07401A3F0E4E2
:100B6600A3F09001FD7405F0E4A3F090009375F0F6
:100B7600401230DDE5828583F045F060259001F175
:100B86007493F0E4A3F07440A3F09001F47405F0BC
:100B9600E4A3F090012E75F000122DD27582930217
:100BA60027B422788BA61EE51F451E788BF690018A
:100BB600FA7433F07401A3F0E4A3F09001FD740914
:100BC600F0E4A3F090008A75F0401230DDE58285EE
:100BD60083F045F060259001F1748AF0E4A3F07487
:100BE60040A3F09001F47409F0E4A3F0900133758A
:100BF600F000122DD275828A02278F22E58290019B
:100C06003CF0E0421E22E58290013DF0E0F4521EE7
:100C160022E58290013EF0E0421F22E58290013FEC
:100C2600F0E0F4521F22751F0022AF83E582900187
:100C360040F0EFA3F0900140E0FEA3E0FFBE000508
:100C4600BF7E02801FBE0105BF7E028008BE021B5A
:100C5600BF7E1880077899E64401F622789976C80F
:100C660008760022789976380876FF22AF83E582E7
:100C7600900142F0EFA3F0900142E0FEA3E0FFBE38
:100C86000005BF7E028017BE0105BF7E028008BE3A
:100C96000213BF7E1080077899E654FEF6227899F3
:100CA6007600087600229001FA7444F07401A3F0ED
:100CB600E4A3F09001FD7404F0E4A3F090009875AD
:100CC600F0401230DDE5828583F045F06024900126
:100CD600F17498F0E4A3F07440A3F09001F4C4F02A
:100CE600E4A3F090014475F000122DD275829802AB
:030CF60027C822EA
:100CFA00AFF0AE83E58290014FF0EEA3F0EFA3F0E0
:100D0A00900152E4F090014EE060169002067401E0
:100D1A00F012073BE5828583F0900148F0E5F0A3E5
:100D2A00F0900206E07003020DE8900148E0FEA38D
:100D3A00E0FF8E828F8312075FAE82AF83C3EE9489
:100D4A0005EF94005003020DE890014AE0FDA3E08C
:100D5A00FEA3E0FF8D258E268F2790014FE0F52216
:100D6A00A3E0F523A3E0F524A822A923AC2490014B
:100D7A004DE0FA7B009001FAE8F0E9A3F0ECA3F069
:100D8A009001FDEAF0EBA3F085258285268385276D
:100D9A00F0C007C006C005C003C0021230DDE582FC
:100DAA008583F0D002D003D005D006D00745F06085
:100DBA0028A822A923AC249001F1E8F0E9A3F0ECD9
:100DCA00A3F09001F4EAF0EBA3F08D828E838FF00A
:100DDA00122DD29001527401F0900206E4F09001B3
:050DEA0052E0F5822239
:100DF000E582900155F0E025E0240AFF900153E0E0
:100E000025E02FFF900154E025E02FFFF582C00779
:100E1000122BA4AE82D0078E057E000F8F82C006F3
:100E2000C005122BA4AF82D005D006E4FCEF2EFE45
:100E3000EC3D8E82F58322E58290015AF0E025E0B8
:100E4000240AFF900156E025E02FFF900157E0258E
:100E5000E02FFF900158E0FDA3E0FE9001EEF08F3F
:100E600082C007C006C005122B6ED005D006D00781
:100E70000F9001EEEDF08F82022B6EE58290015D06
:100E8000F0E025E025E0240CFF90015BE025E02563
:100E9000E02FFF90015CE0FEE060067C007D0080BA
:100EA000047C027D008F05EC2DF582C007C0061280
:100EB0002BA4AD82D006D0078D047D00EE60067BAA
:100EC000007E0080047B027E00EB2F04F582C005CB
:100ED000C004122BA4AF82D004D0057E00EF4205DF
:100EE000EE42048D828C8322E582900162F0E0253F
:100EF000E025E0240CFF90015EE025E025E02FFFD7
:100F000090015FE0FEE060067C007D0080047C02D2
:100F10007D008F05EC2DFC900160E0FBA3E0FD90CF
:100F200001EEF08C82C007C006C005C003122B6E14
:100F3000D003D005D006D007EE60067C007E00808E
:100F4000047C027E00EC2F04FF9001EEEBF08F8218
:100F5000022B6E7F00BF01004003020FE1EFFE7520
:100F6000F002A42469FC743435F0FD7B00BB010061
:100F7000506BEBFA25E02CF8E43DF975280074FF7E
:100F800025284056C004C005E528252828F582E418
:100F900039F583E493FCA3E493FD900156EAF090C5
:100FA0000157E528F0900158ECF0EDA3F08E82C0D7
:100FB00007C006C005C004C003C002C001C00012C3
:100FC0000E37D000D001D002D003D004D005D00617
:100FD000D0070528D005D00480A40B80900F020F05
:100FE000557F00BF0100400122EFFE75F004A424EC
:100FF0006BFC743435F0FD7B00BB01004003021034
:1010000089C007EB2B25E02CF9E43DFA89828A831D
:10101000E493F8A3E493FF90015EEBF090015F741A
:1010200001F0900160E8F0EFA3F08E82C007C006E7
:10103000C005C004C003C002C001120EE8D001D038
:1010400002D003D004D005D006D00789828A83A3BA
:10105000A3E493FAA3E493FF90015EEBF090015FA9
:10106000E4F0900160EAF0EFA3F08E82C007C006C2
:10107000C005C004C003120EE8D003D004D005D0D0
:0D10800006D0070BD007020FF90F020FE397
:10108E007F00BF6A0050178F0674162EFE9001EE79
:10109E00E4F08E82C007122B6ED0070F80E4227F01
:1010AE0000BF050050148F060E9001EEE4F08E8204
:1010BE00C007122B6ED0070F80E722120B0E120BF9
:1010CE00A9120B4A020B5BE582900163F0E0FF7EF2
:1010DE0000BE0900502CEE75F002A4FCADF0246F9A
:1010EE00F582ED3434F583E493FBB50712EC246FEF
:1010FE00FCED3434FD8C828D83A3E493F582220EB5
:10110E0080CF900163E0F58222E582900164F012B7
:10111E0010C9789C8607900164E0FEEFB50605784D
:10112E009C76FF22789D767F789D86078F82C006FB
:10113E00122BA4E582D006600122789CA60678A028
:10114E0076000876008E070F8F82C006122BA4E55C
:10115E0082D006789FF6789D76168E07EF602D78F2
:10116E009D8606BE8005789C76FF22789D86068E2B
:10117E0082C007122BA4E582D00770061F9001646F
:10118E00EFF0789DE6FE04789DF680D0789D860778
:10119E00789EA60722752900752A00752B00752CDE
:1011AE0000752D00752E00752F00753000753100FD
:1011BE00789DE6FF04789DF68F82122BA4AF828F66
:1011CE0029AE29EF700475820222BE01028003024D
:1011DE00130B789DE6FF04789DF68F82122BA4AF39
:1011EE00828F2AAD2AEF7003F58222BD010280089C
:1011FE00BD02028003BD034F789DE6FF04789DF685
:10120E008F82122BA4E582F52B7003F58222852B9B
:10121E00821210D5E582F52BAF2ABF0102800DBFD9
:10122E0002028011BF03028015021310852B821259
:10123E000AB5021310852B8212097F021310852B1B
:10124E0082120A2F021310BD040280030213107FB4
:10125E0002EF2429F9789DE6FD04789DF68D82C073
:10126E0007C001122BA4AD82D001D007A705ED70E7
:10127E0003F582228705BD7C02800ABF07047582B2
:10128E0000220F80CC900165E4F0A3F0900167E599
:10129E002BF07F02900167E0FDBD30009202404CC2
:1012AE00ED24C692024045900165E0FCA3E0FDC02E
:1012BE0007C004C00590000A12303FAC82AD831502
:1012CE00811581D007900167E07A0024D0FBEA34C3
:1012DE00FFFAEB2CFCEA3DFD900165ECF0EDA3F07E
:1012EE000FEF2429F9900167E7F080A8900165E0DF
:1012FE00FDA3E0FF78A0A60508A60780058E821242
:10130E0020CA75820122789C8607BFFF012278A031
:10131E008606088607EE4F600D1EBEFF011F78A0E1
:10132E00A60608A607221211A3AF82BF0221789F3C
:10133E00E6FE6013BEFF028005EE14789FF6789EDF
:10134E008605789DA60522EE700F789C76FF22EF1B
:0A135E007007789C76FF0210C92288
:10136800E582900169F0E075F006A42410FF900171
:1013780068E025E02FFFF582C007122BA4AE82D0CB
:10138800078E057E000F8F82C006C005122BA4AF02
:1013980082D005D006E4FCEF2EFEEC3D8E82F5836C
:1013A80022E58290016DF0E075F006A42410FF900C
:1013B800016AE025E02FFF90016BE0FDA3E0FE90BD
:1013C80001EEF08F82C007C006C005122B6ED00553
:1013D800D006D0070F9001EEEDF08F82022B6E7FC2
:1013E80000BF060050178F0674102EFE9001EEE421
:1013F800F08E82C007122B6ED0070F80E422E582A0
:10140800900170F0E024F0900172F090016EE01409
:10141800900171F090016FE0900176F012073BAEF9
:1014280082AF83900173EEF0EFA3F0900175740121
:10143800F07D0F7E017F009001F17471F07401A3BB
:10144800F0E4A3F09001F47406F0E4A3F08D828E2A
:10145800838FF0122DD20207847532FF7533007521
:1014680034002274FFB53201228535828536831215
:10147800075FAE82AF83C374C89EE49F5052E533C2
:10148800FF701AE534704990016E7403F090016F93
:101498007401F085328212140675340122EF24FD9E
:1014A800402B90016EEFF090016F7401F08532824D
:1014B80012140690000AE4F5F0122F0390016EE56D
:1014C80033F090016FE4F085328212140602146141
:1014D80022AF83E58290017AF0EFA3F090017AE0E1
:1014E800FEA3E0FF8E048F05C3EC9407ED947E40C5
:1014F80062740B9C747E9D405AEE24F9FF9001772C
:10150800E0FCA3E0FDA3E0FE74052CFCE43DFD8CAB
:10151800828D838EF01231E060048F328024E534AE
:10152800601690016E7403F090016FE4F0853282CA
:10153800121406121461800AEFB53206E533FF046F
:10154800F53312073BE5828583F0F53585F036756E
:0715580082002275820122CE
:101560007F00BF0100502DEF90348193FE9001EF7A
:101570007402F08E82C007122C56D007EF9034828E
:1015800093FE9001EF7402F08E82C007122C56D0A9
:10159000070F80CE900064122FB47F00BF0100506F
:1015A00038EF24A2F9EF90348193F582C007C0018F
:1015B000122D0DAE82D001D007EF90348293F582C8
:1015C000C007C006C001122D0DAD82D001D006D0DB
:1015D00007ED2DFD4EF70F80C322E58290017DF0CF
:1015E000E090017EF09001837401F012073BAE821F
:1015F000AF83900180EEF0EFA3F090017CE0600DEE
:1016000090017F74FDF0900182F4F0800B90017FD7
:1016100074FCF0900182F4F07D0F7E017F00900158
:10162000F1747EF07401A3F0E4A3F09001F4740669
:10163000F0E4A3F08D828E838FF0122DD2120784F6
:1016400090000AE4F5F0122F03900183E4F07D0F7F
:101650007E017F009001F1747EF07401A3F0E4A399
:10166000F09001F47406F0E4A3F08D828E838FF085
:10167000122DD212078490000AE4F5F0022F03E540
:1016800082900185F0900186E4F0900185E0FF24CE
:10169000A3F98706900184E0FD53050F7C00ED243B
:1016A00083F582EC3434F583E4932EFEF7C3EE64C5
:1016B000809484401BEF24A4F8E604F6900186741D
:1016C00001F090017CE4F08F82C0011215DAD001A4
:1016D000E7FF3395E0FEC374FC9F747F8EF063F0E8
:1016E0008095F0401E900185E0FF24A4F8E614F6F2
:1016F0009001867401F090017CF08F82C001121578
:10170000DAD001E7A2E754036004500244FCF790EA
:101710000186E0F58222900187E4F07F00BF01009E
:10172000506BEF90348193F582C007122D0DAE827D
:10173000D007EF90348293F582C007C006122D0DBA
:10174000AD82D006D007ED2D4206EF24A2F9870521
:101750008D035303037C00C0078E027F00EBB502AC
:1017600008ECB50704D0078021D007ED2D25E0F760
:101770004206A706900184EEF08F82C00712167F02
:10178000AE82D007900187E04EF00F8090900187E5
:04179000E0F58222DC
:1017940012072C121BD71221A8121560021EB212B6
:1017A400073BAE82AF8378A5EEC396FCEF08964C58
:1017B400700122900188E4F0900189F0900188F092
:1017C400900189F090018AF0A3F090018CF09001CF
:1017D4008DF0C007C00612073BAC82AD8390018A2E
:1017E400ECF0EDA3F090018CE4F090018DF07B0F10
:1017F4007C017D009001F17488F07401A3F0E4A3EE
:10180400F09001F47406F0E4A3F08B828C838DF0E5
:10181400122DD2D006D007C007C006120784D00606
:10182400D00778A5A60608A60722121BF1E5827048
:10183400030217A37F00BF0100400122EF24A9F98E
:10184400870690018EEEF0EF24A7F98705EE620576
:10185400ED700302190A90018F7401F08F377B0039
:10186400BB0100400302190190018FE0FA5D70038F
:101874000218F5C005EE5202EA24FFE433FA90019F
:1018840091E537F0900190EBF0900195EAF0C007F4
:10189400C006C00312073BAA82AD83D00390019215
:1018A400EAF0EDA3F09001947401F07A0F7C017DCD
:1018B400009001F17490F07401A3F0E4A3F090019E
:1018C400F47406F0E4A3F08A828C838DF0C005C022
:1018D40003122DD2D003D005D006D007C007C0060E
:1018E400C005C003120784D003D005D006D007D0AA
:1018F400050B90018FE025E0FCF0021864EF24A7AB
:10190400F990018EE0F70F02183A12182E1201B85E
:0919140012171612146B021E08D2
:10191E007D987E017F009001F17496F07401A3F022
:10192E00E4A3F09001F47402F0E4A3F08D828E83B0
:10193E008FF0122DD2121A28AE82AF838E048F052D
:10194E00C3EC9404ED9400400774A49CE49D5010E5
:10195E00C3EC94E0ED9400400E74E79CE49D4007C8
:10196E008E388F39021A10C3EC94A5ED9400401BEB
:10197E0074A79CE49D40148E038B82122924AA82A4
:10198E00AB834303408A388B398077C3EC94A8ED40
:10199E009400401B74C29CE49D40148E038B8212F3
:1019AE00294BAA82AB834303448A388B398053C3B5
:1019BE00EC94CDED9400401374DF9CE49D400C8CB0
:1019CE000274504DFB8A388B398037BC010BBD0039
:1019DE0008753801753900802974FF2D501FC374A6
:1019EE00FF9C741F9D40168F0653061F8E07E4FE44
:1019FE00FDEC4206ED42078E388F398005E4F5384E
:101A0E00F539E58124FCF886820886830886F0E5A0
:101A1E0038123024A3E539023024900199E0FFBF3B
:101A2E000100501A900198E0FEBE01005010900186
:101A3E0053EFF0900154EEF0853A82020DF0BFFDA7
:101A4E001B900198E0FEBE0100501190015BEEF07C
:101A5E0090015C7401F0853A82020E7BBFFC1A90F5
:101A6E000198E0FEBE0100501090015BEEF0900177
:101A7E005CE4F0853A82020E7BBFF0004016EF2444
:101A8E00054011EF2410FF900198E0900168F08F4F
:101A9E008202136890000022E58290019AF0E0FF26
:101AAE009001EF7401F08F82C007122C56D0079070
:101ABE0001F0E4F08F82022D5DE58290019BF0E053
:101ACE00FF9001F07401F08F82C007122D5DD007D8
:101ADE009001EF7402F08F82022C56E58290019CE9
:101AEE00F0E0F582122D0DE5827004FEFF80047E7B
:101AFE00017F008E82227F00BF0100503BEF2493B6
:101B0E00FDE43434FE7C00BC01005029EC2DF5823E
:101B1E00E43EF583E493FB9001EF7402F08B82C0F8
:101B2E0007C006C005C004122C56D004D005D0063E
:101B3E00D0070C80D20F80C022AFF0AE83E582902A
:101B4E00019EF0EEA3F0EFA3F09001A1E4F090015E
:101B5E00A204F090019DE0FF2493FDE43434FE7C5A
:101B6E0000BC01005043EC2DF582E43EF583E49376
:101B7E00F582C007C006C005C004121AE9E582D07E
:101B8E0004D005D006D00760067A007B008008904E
:101B9E0001A2E0F9FA7B009001A1E0F94AF00C9065
:101BAE0001A2E025E0FBF080B890019EE0FCA3E0EE
:101BBE00FDA3E0FEEF2CFFE43DFB8E029001A1E0C1
:101BCE008F828B838AF0023024121B047F00BF01A8
:101BDE0000500FEF24A9F87600EF24A8F876000F36
:101BEE0080EC229001A3E4F07F00BF01005015901D
:101BFE00019DEFF09001A375F000C007121B47D0B6
:101C0E00070F80E69001FA74A3F07401A3F0E4A329
:101C1E00F09001FD04F0E4A3F09000A875F04012DE
:101C2E0030DDAE82AF83EE4FB4010092039001A47B
:101C3E00B3E433F09001A4E0FFE060229001F17470
:101C4E00A3F07401A3F0E4A3F09001F404F0E4A374
:101C5E00F09000A875F040C007122DD2D007900169
:101C6E004A74A9F0E4A3F07440A3F090014D7401FE
:0F1C7E00F090014EEFF09000A875F040020CFAC4
:101C8E00AF83E5829001A8F0EFA3F09001A5E0FDEF
:101C9E00A3E0FEA3E0FF74052DFDE43EFE8D828ED3
:101CAE00838FF01231E060119001A8E0FEA3E0FFF7
:101CBE008E828F83120C30800F9001A8E0FEA3E07D
:101CCE00FF8E828F83120C72020CACAFF0AE83E5E6
:101CDE00829001AAF0EEA3F0EFA3F09001AAE0FD2E
:101CEE00A3E0FEA3E0FF7A987B017C009001F1ED6A
:101CFE00F0EEA3F0EFA3F09001F47402F0E4A3F081
:101D0E008A828B838CF0122DD2121A28AE82AF8368
:101D1E009001AAE0FBA3E0FCA3E0FD900177EBF0BD
:101D2E00ECA3F0EDA3F08E828F83C007C0061214D1
:101D3E00D9E582D006D0077003F582228E048F0576
:101D4E0074822D502AC374029C747E9D4021900192
:101D5E00AAE0FBA3E0FCA3E0FD9001A5EBF0ECA351
:101D6E00F0EDA3F08E828F83121C8E75820022906E
:101D7E0001AAE0FBA3E0FCA3E0FD9001C8EBF0ECB0
:101D8E00A3F0EDA3F08E828F831221DFE582700324
:071D9E00F58222758201228B
:101DA60078AA864408864575480122E5829001ADE9
:101DB600F07F00E0FEB54603D38001C3B3920478FA
:101DC60047A204E433F6BE0002800ABE0102801276
:101DD600BE021B801490004775F040121EC0AF82F1
:101DE600800C121EFCAF828005121F2FAF82EF708F
:101DF60010754802E54770099001ADE0700375481B
:101E0600032212073BE5828583F078AAF608A6F03E
:101E1600E54824FC4042E54875F003A4901E26736D
:101E2600021E32021E35021E3B021E45021DA685FB
:101E36003C82021DB1853C46122056754803228518
:101E4600448285458312075FAE82AF83C3EE941446
:101E5600EF9400400375480022E5829001AEF0E061
:101E6600FF8F3C9001EEEFF0758209022B6EE58242
:101E76009001AFF0E0F53C22758209122BA4E582B1
:101E8600F53C229001EEE4F0758206122B6E90016D
:101E9600EE7480F0758207122B6E9001EE7480F05E
:101EA600758208122B6E758200021E5F12204A751B
:101EB6008209122BA4E582F53C22AFF0AE83E582BF
:101EC6009001B0F0EEA3F0EFA3F09001B0E0FDA317
:101ED600E0FEA3E0FF8D828E838FF01231E0700367
:101EE600F582229001C2E4F09001C3F075820012DF
:101EF600209275820022758206122BA4E582F54A8D
:101F0600758207122BA4E582F549758208122BA467
:101F1600AF828F4B9001C2E549F09001C3EFF08587
:101F26004A821220927582002275820022AFF0AE9C
:101F360083E5829001B3F0EEA3F0EFA3F09001B336
:101F4600E0FDA3E0FEA3E0FF74022DFAE43EFB8F62
:101F5600048A828B838CF01231E0F560C3940A50B8
:101F6600077402B53C0280249001B3E0F563A3E058
:101F7600F564A3E0F5650563E4B56302056485636E
:101F8600828564838565F074FE02302474012DFA1F
:101F9600E43EFB8F048A828B838CF01231E0F5637A
:101FA600756103756200C3E5629560400122E563D1
:101FB60075F003A424B6F566740135F0F56774016F
:101FC6002566F568E43567F569E5612DFAE43EFBBB
:101FD6008F048A828B838CF01231E0856882856952
:101FE60083F085616875690074012568FAE43569CE
:101FF600FCEA2DFAEC3EFC8F038A828C838BF0126E
:1020060031E0856682856783F074022566F566E4AD
:102016003567F56774022568FAE43569FCEA2DFA36
:10202600EC3EFC8F038A828C838BF01231E0FA85BA
:102036006682856783F005620563AB6174032BF5E1
:1020460061021FAC9001EF7401F075820E022C56EE
:102056007EB67F017D007C0043050C8E828F838DCA
:10206600F0EC0231BCE58275F003A424B6FE7401DF
:1020760035F0FF8E828F83A3E54CF08E828F83E549
:102086004DF08E828F83A3A3E54EF022E582900168
:10209600C4F0E0FF9001C2E0FE9001C3E0FD7C00C9
:1020A600BC0400501E8F4C8E4D8D4E8C82C007C0D6
:1020B60006C005C00412206BD004D005D006D00798
:1020C6000C80DD22E5829001C5F0E0FF9034C493D8
:1020D600FE7D00C007C006C0057408C0E0E4C0E08D
:1020E6008F828D831231FCAB82AC8315811581D032
:1020F60005D006D007EB2494F582EC3434F583E45E
:1021060093FA5307078FF005F0EA8002C313D5F060
:10211600FB5401F54FEB24A4F582EC3434F583E44B
:1021260093FA8FF005F0EA8002C313D5F0FB540151
:10213600F550EB24B4F582EC3434F583E493FC8F4C
:10214600F005F0EC8002C313D5F0FB5401FFE54F18
:10215600600E7582E1C007C00612097FD006D0075F
:10216600E550600E7582E6C007C00612097FD006EC
:10217600D0078E82C007120AB5D007E550600A75EF
:1021860082E6C007120A2FD007E54F600A7582E182
:10219600C007120A2FD007EF600675822C020AB517
:0121A6002216
:1021A800758200122BA4AF82BF5A01220221B712F6
:1021B8000F5312108E1210AD121E891213E79001E0
:1021C800EE745AF0758200022B6E75E200C2AF758C
:1021D800890012380080FEAF83E5829001CBF0EFD2
:1021E800A3F09001C8E0FDA3E0FEA3E0FF74052D75
:1021F800FDE43EFE8D828E838FF01231E0602390E5
:1022080001CBE0FEA3E0FF8E048F0574892D5012E8
:10221800C3747F9C74779D40098E82121117758252
:10222800002275820122E5829001CDF0E0F92402B6
:10223800F8740329FF8706BE0702800BBE080280D8
:1022480063BE09028001229001C6E0FDA3E0FE8D75
:10225800828E83C007C00012075FAD82AE83D000B4
:10226800D007C3ED94F4EE94015001228606BE0215
:102278000BA80786058D82121E5F8017BE050040D9
:1022880012EE24F8400D0E9001EEA807E6F08E82BB
:10229800122B6E12073BE5828583F09001C6F0E5AC
:1022A800F0A3F0228606BE0210758209C007122B21
:1022B800A4E582D007A807F622BE05004014EE2444
:1022C800F8400F0E8E82C007122BA4E582D007A813
:1022D80007F622E5829001CEF0E0F904F8740229AD
:1022E800FF740329FE8605BD053C8704BC070280F0
:1022F80008BC0802801DBC092CA8078604BC010084
:102308004023EC24FA401E9001EEA806E6F08C82E9
:10231800022B6EA80786048C82C006122BA4E582C5
:10232800D006A806F622BD06288704BC0702800846
:10233800BC08028017BC0918A8078604BC010280E3
:1023480005BC020C80030221B70221D2A806760040
:1023580022BD0305898202222EBD070280030223C3
:10236800E08705BD07028008BD08028043BD0967F4
:10237800A8078605BD0100405EED24FA4059EE0429
:10238800F886047B008C528B5174022EF886027CEE
:1023980000E5514202E55242041D90016AA806E692
:1023A800F090016BEAF0ECA3F08D821213A980275C
:1023B800A80786071F900168A806E6F08F82C0016B
:1023C800121368AE82AF83D001740429F88F05A672
:1023D80005740529F8A6062277FF22E5829001CF29
:1023E800F0E0F904F8E7FF24D950030226FAEF24B5
:1023F8000A83F582EF242B83F583E473FA73FCFCDC
:102408007EB8F8FEFEFEFCFC060B1969B8BEC31EBA
:1024180078B7FAFAFAFAFAFAFAFAFAFAFAFAFAFAD9
:1024280052646D26242626242424242424262625A2
:10243800252525252525262626262626262626263A
:102448002626262626262624242489077E007D4043
:102458008F828E838DF0121F330226FC7582021242
:102468001E740226FC121E7E0226FC7600740229C7
:10247800F8760C0226FC8607740229FE900153A800
:1024880006E6F0740329FE900154A806E6F08F8250
:10249800C001120DF0AE82AF83D001740429FD8F04
:1024A80004A805A604740529FDA805A6060226FCAD
:1024B8008607740229FE900156A806E6F0740329DF
:1024C800FE900157A806E6F0740429F886068E05E2
:1024D8007E00740529F886047B00EC4206EB420571
:1024E800900158EEF0EDA3F08F82120E370226FC11
:1024F800120F530226FC89821222DB0226FC760583
:102508000226FC7600740229FF746AA807F60226E0
:10251800FC740229FF740329FE7D00A9068704C301
:10252800ED9C40030226FC8D037C0074032BFBE426
:102538003CEB28FCA907870374162BFB8D02EA2BBA
:10254800F582C007C006C005C004C000122BA4E570
:1025580082D000D004D005D006D007A904F70D809A
:10256800BA740229FF740329FE7D00A9068704C3F3
:10257800ED9C40030226FCA907870474162CFC8DE9
:1025880003EB2CFC8D027B0074032AFAE43BEA2857
:10259800FB9001EEA903E7F08C82C007C006C005D6
:1025A800C000122B6ED000D005D006D0070D80BB1E
:1025B80012108E0226FC76010226FC7F0074022986
:1025C800FEC000A8068606D000EE4207740329FE66
:1025D8007D00A9068704C3ED9C40030226FC8D03F9
:1025E8007C0074032BFBE43CEB28FC8F03740A2B60
:1025F800FB8D02EA2BF582C007C006C005C004C0E7
:1026080000122BA4E582D000D004D005D006D00754
:10261800A904F70D80BC7F00740229FEC000A8063B
:102628008606D000EE4207740329FE7D00A90687BE
:1026380004C3ED9C40030226FC8F04740A2CFC8D15
:1026480003EB2CFC8D027B0074032AFAE43BEA2896
:10265800FB9001EEA903E7F08C82C007C006C00515
:10266800C000122B6ED000D005D006D0070D80BD5B
:102678008607740229FE90015BA806E6F074032918
:10268800F8E6B40100920590015CB3E433F08F8260
:10269800C001120E7BAE82AF83D001740429FD8F76
:1026A80004A805A604740529FDA805A60680458684
:1026B80007740229F890015EE6F0740329F8E6B47D
:1026C8000100920590015FB3E433F0740429F886A1
:1026D800068E057E00740529F886047B00EC420608
:1026E800EB4205900160EEF0EDA3F08F82120EE848
:1026F800800277FF9001CFE0FF78AC79B3E6F78FDF
:10270800820227A3AF83E5829001D0F0EFA3F09077
:1027180001D0E0FEA3E0FF900207E0FCA3E0FDEE9D
:10272800B50405EFB5050122900207EEF0EFA3F01E
:1027380078AD760278AEA60608A6077513047582EA
:10274800AD020142AF83E5829001D2F0EFA3F09091
:1027580001D2E0FEA3E0FF900209E0FCA3E0FDEE59
:10276800B50405EFB5050122900209EEF0EFA3F0DC
:1027780078B0760378B1A60608A6077513047582A3
:10278800B0020142020245E5829001D4F0E0F977F7
:102798000189077513098F82020142E5829001D5EC
:1027A800F0E0FF78B386148F820201E9E582900198
:1027B800D6F0E0F9770489077513058F8202014284
:1027C800E5829001D7F0E0F9770589077513038F43
:0427D8008202014236
:1027DC00AFF0AE83E5829001D9F0EEA3F0EFA3F059
:1027EC009001D9E0FDA3E0FEA3E0FF74032DFDE40E
:1027FC003EFE9001D8E0FC7B00BB0600501CEB2D8C
:10280C00F8E43EF98F02888289838AF01231E0F86D
:10281C00B50404758201220B80DF75820022AFF0B3
:10282C00AE83E5829001DDF0EEA3F0EFA3F07F0024
:10283C00BF060050629001DDE0FCA3E0FDA3E0FECA
:10284C0074032CF9E43DFA8E03EF29F9E43AFA8982
:10285C00828A838BF01231E0F99001DCE0FBE9B560
:10286C0003012274032CF8E43DF98E02EF28F8E4FE
:10287C0039F9888289838AF01231E0701774032C3D
:10288C00FCE43DFDEF2CFCE43DFD8C828D838EF051
:10289C00EB0230240F809922AFF0AE83E5829001D9
:1028AC00E1F0EEA3F0EFA3F09001E1E0FDA3E0FE78
:1028BC00A3E0FF74032DF560E43EF5618F62900197
:1028CC00E0E0F97800B80600504DC005C006C0071E
:1028DC00E82560FDE43561FEAF628D828E838FF05A
:1028EC001231E0FDB501028008D007D006D005807A
:1028FC0023D007D006D005C00174032DF9E43EFBAC
:10290C008F04E829F9E43BFB89828B838CF0E41279
:10291C003024D0010880AE22E5829001E4F0E0FF83
:10292C00BFA502800ABFA6028009BFA70E8008902F
:10293C00008122900082229000832290000022E5E8
:10294C00829001E5F0E0FF7E00BE1B005034EE7576
:10295C00F003A4FCADF02444F582ED3435F583E4AA
:10296C0093FBEFB50319EC2444FCED3435FD8C825C
:10297C008D83A3E493FCA3E493FD8C828D83220EC0
:10298C0080C790000022AFF0AE83E5829001E7F0A3
:10299C00EEA3F0EFA3F09001E6E0FFBFCD1D900198
:1029AC00E7E0FCA3E0FDA3E0FE74032CFCE43DFD9A
:1029BC008C828D838EF074FF023024BFCE1D90016B
:1029CC00E7E0FCA3E0FDA3E0FE74032CFCE43DFD7A
:1029DC008C828D838EF07401023024BFCF1D900148
:1029EC00E7E0FCA3E0FDA3E0FE74022CFCE43DFD5B
:1029FC008C828D838EF074FF023024BFD01D900129
:102A0C00E7E0FCA3E0FDA3E0FE74022CFCE43DFD3A
:102A1C008C828D838EF07401023024BFD91D9001FD
:102A2C00E7E0FCA3E0FDA3E0FE74042CFCE43DFD18
:102A3C008C828D838EF07401023024BFDA1D9001DC
:102A4C00E7E0FCA3E0FDA3E0FE74042CFCE43DFDF8
:102A5C008C828D838EF074FF023024BFD100403CF9
:102A6C00EF242740379001E7E0FCA3E0FDA3E0FE54
:102A7C000CBC00010D8C828D838EF01231E0FBEFCB
:102A8C00242FF5F005F07401800225E0D5F0FBFF52
:102A9C0042038C828D838EF0EB02302422AFF0AE99
:102AAC0083E5829001EBF0EEA3F0EFA3F09001EA46
:102ABC00E0FFBFCD028003BFCE1C9001EBE0FCA376
:102ACC00E0FDA3E0FE74032CFCE43DFD8C828D83C1
:102ADC008EF0E4023024BFCF028003BFD01C9001E3
:102AEC00EBE0FCA3E0FDA3E0FE74022CFCE43DFD56
:102AFC008C828D838EF0E4023024BFD9028003BF18
:102B0C00DA1C9001EBE0FCA3E0FDA3E0FE74042CC6
:102B1C00FCE43DFD8C828D838EF0E4023024BFD129
:102B2C0000403DEF242740389001EBE0FCA3E0FD92
:102B3C00A3E0FE0CBC00010D8C828D838EF0123153
:102B4C00E0FBEF242FF5F005F07401800225E0D5B1
:102B5C00F0FBF4FF52038C828D838EF0EB02302459
:012B6C002246
:102B6E00AF82BF800040012275A15575A1AA43B165
:102B7E000475A1007585C0EF2FF5849001EEE0F588
:102B8E008EE58630E60375869A75A15575A1AA5312
:102B9E00B1FB75A10022AF827585C0EF2FF584754C
:062BAE00868E858E822256
:102BB400C021C0E0C0F0C082C083C007C006C00509
:102BC400C004C003C002C001C000C0D075D0001250
:102BD4000637D0D0D000D001D002D003D004D00525
:102BE400D006D007D083D082D0F0D0E0D02132C03C
:102BF40021C0E0C0F0C082C083C007C006C005C0C9
:102C040004C003C002C001C000C0D075D00090024F
:102C14000BE0FEA3E04E600E90020BE0F8A3E0F59B
:102C2400838882120049D0D0D000D001D002D003D2
:102C3400D004D005D006D007D083D082D0F0D0E025
:102C4400D02132122FEF12010E12011180FB758276
:022C540000225C
:102C5600E582FF9035E593FEEF9035BD93FF700159
:102C6600229001EFE0FD701BBF0209EEF4FC5292C8
:102C7600EC529322BF0402800122EEF4FC5296EC41
:102C8600529722BD0214BF0207EE4292EE429322F1
:102C9600BF0439EE4296EE429722BD0116BF0208E6
:102CA600EEF45292EE429322BF0421EEF45296EED7
:102CB600429722BD0316BF0208EE4292EEF45293EB
:102CC60022BF0408EE4296EEF4FE529722AF82BF70
:102CD6000102800FBF02028013BF03028017BF04E8
:102CE60025801BE5C620E21E539DFB22E5C620E398
:102CF60015539DF722E5C630E20C539DFB22E5C62F
:102D060030E303539DF722E582FF90359593FEEF5E
:102D16009035E593FDEF9035BD93FF7003F5822264
:102D2600EE600D8E82C007C005122CD3D005D007E9
:102D36007E00BF0202800ABF03028009BF040C8026
:102D460008AE908006AEA08002AEB0ED5E6004755F
:102D560082012275820022E582FF90359593FEEF6F
:102D66009035E593FDEF9035BD93FFEE600D8E82B5
:102D7600C007C005122CD3D005D007A2AFE433FE9E
:102D8600C2AFBF0202800ABF03028017BF043680AB
:102D9600249001F0E07007EDF4FF52908027ED4299
:102DA6009080229001F0E07007EDF4FF52A08015AC
:102DB600ED42A080109001F0E07007EDF4FF52B0F4
:0B2DC6008003ED42B0EE6002D2AF22AD
:102DD200AFF0AE83E5829001F6F0EEA3F0EFA3F040
:102DE2009001F6E0F560A3E0F561A3E0F562AA6068
:102DF200AB61AC629001F1E0F8A3E0F9A3E0FF90CF
:102E020001F4E0F563A3E0F564AD63AE64156374A9
:102E1200FFB563021564ED4E6020888289838FF0CE
:102E22001231E0FEA3A882A9838A828B838CF0EE02
:102E3200123024A3AA82AB8380CF8560828561830E
:042E42008562F02293
:102E4600C0D075D00808B8000D09B900090ABA0043
:102E5600050BBB00010CD0D032A2AFC2AFA808A9A7
:102E660009AA0AAB0BAC8A8588F092AF30F51274CA
:102E7600012C600D08B8000909B900050ABA00015D
:102E86000BC3EC9406FCECC313FC75F07DE8A4F8C8
:102E9600ADF075F07DE9A42DF9E435F0FD75F07D12
:102EA600EAA42DFAE435F0FD75F07DEBA42DFB7D4B
:102EB60000EC28F582E93DF583EA3DF5F0EB3D228D
:102EC600A2AFC2AFA808A909AA0AAB0BAC0C92AF75
:102ED60075F020E8A4A8F075F020E9A428F582A8EA
:102EE600F075F020EAA428F583A8F075F020EBA48D
:102EF60028F9A8F075F020ECA42889F022858253E1
:102F060085835485F055F556122E5F858257858345
:102F16005885F059F55AE5534554455545567001BF
:102F260022A853A954AA55AB5685575B85585C858C
:102F3600595D855A5EE8494A4B60DBC003C002C052
:102F460001C000122E5FAC82AD83AEF0FFD000D080
:102F560001D002D003ECC3955BFCED955CFDEE95CC
:102F66005DFEEF955EFFC3EC94E8ED9403EE9400EE
:102F7600EF940040A118B8FF0919B9FF051ABAFF66
:102F8600011B885389548A558B5674E8255BF55B7B
:102F96007403355CF55CE4355DF55DE4355EF55E40
:102FA600855B57855C58855D59855E5A8087AE82FC
:102FB600AF83C374019EE49F40022200C374029E45
:102FC600FE74009FFF00BE0005BF00020022000045
:102FD6000000000000000000000000000000000EDD
:102FE600BE00EB0FBF00ED002275A15575A1AA74B6
:102FF600F855B94406F5B975A100901388122FB497
:10300600759E5D759D0074F055894402F58953C916
:0D301600EF758C06C28DD2A9D28CD2AF22EC
:1030240020F71130F6138883A88220F509F6A883C7
:103034007583002280FEF280F5F022C05F85815FF7
:10304400C082C083E5812405F581AF5F0FE55F246D
:1030540003F8A607087600087640E55F24FCFD7EA9
:10306400007F40E55F2406F9A85F088604E55F2435
:10307400FCF886038CF0EBA4F709A7F0E55F2406BF
:1030840004F98704A85F08860374012DFAE43EFE60
:103094008A828E838FF01231E08BF0A4FBE55F24EB
:1030A40003F8740126FDE40836FE0886078D828E37
:1030B400838FF01231E0FDE55F24FCF886078DF084
:1030C400EFA42B2CF7E55F2406F987060987078E02
:1030D400828F83855F81D05F22AFF0AE83E58290DB
:1030E40001FFF0EEA3F0EFA3F09001FDE0FEA3E0FA
:1030F400FF9001FDE0F5F0A3E045F07004900000BE
:10310400221EBEFF011FEE4F6075C006C00790016E
:10311400FFE0FBA3E0FCA3E0FD8B008C018D0288A3
:103124008289838AF01231E0F89001FAE0F560A315
:10313400E0F561A3E0F562A960AA61AF6289828AC1
:10314400838FF01231E0F9E8B501028006D007D090
:1031540006802CD007D0060BBB00010C9001FFEBBE
:10316400F0ECA3F0EDA3F0AB60AC61AD620BBB007F
:10317400010C9001FAEBF0ECA3F0EDA3F080829047
:1031840001FFE0FDA3E0FEA3E0FF8D828E838FF0BC
:103194001231E0FD7F009001FAE0FBA3E0FCA3E024
:1031A400FE8B828C838EF01231E0FB7E00EDC39B9C
:0831B400FDEF9E8D82F58322E0
:1031BC00ABF0A2AFE433FEC2AFE0A37A0833D294F3
:1031CC004002C2947905D9FEC294DAF1DBEBEE60D1
:0431DC0002D2AF224A
:1031E00020F71430F6148883A88220F507E6A88318
:1031F00075830022E280F7E49322E022C05F85819C
:103200005FAE82E583FF33E433FD6009C3E49EFBD8
:10321000E49FFC80048E038F04E55F24FCF808E63D
:1032200033E433FF600FE55F24FCF8C3E496FA084B
:10323000E496FE800AE55F24FCF88602088606C054
:1032400007C005C002C0068B828C83123272AC822A
:10325000AE8315811581D005D007EF6D600DC3E4F5
:103260009CFDE49EFF8D828F8380048C828E83D0B0
:103270005F22C05F85815FAE82AF837C007D007B73
:1032800010EF235401FAEE2EFEEF33FFEC2CFCED91
:1032900033FDEA6003430401E55F24FCF8C3EC96C8
:1032A000ED08964010E55F24FCF8ECC396FCED08B1
:1032B00096FD430601DBCA8E828F83D05F22758222
:0232C0000022EA
:1032C200120110010000000862524B4E010001027F
:1032D200030109024900020100806409040000029E
:1032E2000301010009211001210122E000070581EB
:1032F200030900010705010309000A09040100028C
:1033020003000000092110010001222200070582AA
:10331200032000140705020320001405010906A179
:10332200018501050719E029E715002501950875B2
:10333200018102950175088103950675081500261D
:10334200FF000507190029E7810005081901290571
:1033520015002501950575019102950175039103EB
:10336200C005010980A101850219012AB7001501D2
:1033720026B700950175108100C0050C0901A10155
:10338200850319012AA002150126A00295017510D4
:103392008100C005010902A1010901A100850405FE
:1033A20009190129081500250195087501810205F1
:1033B200010930093109381581257F750895038186
:1033C20006C0C00501090EA1018505050D0921A14F
:1033D2000005090901950175011500250181020504
:1033E2000109379501750F550F651436F0F1461036
:1033F2000E16F0F126100E8106C0C00660FF0961AC
:10340200A1010962150026FF0095207508810609B1
:1034120063150026FF00952075089183C0040309F7
:10342200041A034300480035003500780051004D6E
:10343200004B004C006900740065004E004B006EAA
:10344200006F0062000C034E004B006E006F0062C2
:103452000052006F00620069007400040352006FA2
:073462000062006900740024
:06346900A800A900AA0062
:10346F0068D169D26AD36BCD6CCE6DCF6ED06FD968
:02347F0070DA01
:10348100202100FF0100010000FFFF0000010001F9
:02349100FF003A
:013493000B2D
:10349400000000007E0F00D4FFFFFFC7000000788B
:1034A4000000000000000000000000000000000018
:1034B4000000000000000000000000000000000008
:1034C40000000000000000002A2B2800000000007B
:1034D40000000000000000000000002900000000BF
:1034E4002C1E3420212224342627252E362D37382D
:1034F400271E1F202122232425263333362E373836
:103504001F0405060708090A0B0C0D0E0F101112F3
:10351400131415161718191A1B1C1D2F3130232DBF
:10352400350405060708090A0B0C0D0E0F101112BD
:10353400131415161718191A1B1C1D2F3130354C6E
:10354400A8E200A9E900AAEA00ABB500ACB600BB4A
:10355400B300BCB400ADB700B0CC00AECD00AF83B7
:1035640001B18A01B29201B39401BF9F01C0CB01A2
:10357400B42102B52302B62402B72502B82602B943
:103584002702BD6F00BE7000BA2A02C19F02C2A00A
:013594000234
:103595000000000000000000000000000000000125
:1035A500000000000000000000000000000003040F
:1035B50000000200000000000101010101010101FC
:1035C50000000202020202020202000003030303DA
:1035D50003030303000004040404040404040000BA
:1035E5000102040810204080000001020408102098
:1035F5004080000001020408102040800000010204
:103605000408102040800000FFFFFFFFFFFFFFFFC1
:10361500FFFFFF00FFFF0102FFFFFFFFFFFFFFFFAF
:10362500FFFFFFFFFFFFFFFF03FFFFFFFFFFFFFFA1
:02363500472C20
:013637000092
:013638000091
:013639000090
:04363A00000000008C
:02363E0000008A
:00000001FF
