:0400000002004B327D
:03000B00022E6A58
:0100130032BA
:01001B0032B2
:0100230032AA
:01002B0032A2
:01003300329A
:03003B00022C177D
:03004300022BD8B5
:03004600022C6B1E
:0F004900E4737581B31232E2E582600302004670
:10005800790BE94400601B7A01903661780275A03B
:1000680002E493F2A308B8000205A0D9F4DAF27505
:02007800A0FFE7
:06007A00E478FFF6D8FD5A
:100080007800E84400600A790A75A001E4F309D811
:10009000FC78F8E84400600C790190010AE4F0A3D0
:0400A000D8FCD9FAB5
:0900A400751000751100751200C1
:0900AE00E4F51AF51BF51CF51D23
:0600B800751E00751F001B
:1000BE00789C76FF789D7600789E7600789F760005
:0C00CE007532FFE4F533F534F535F536F6
:0C00DA0078A2760078A3760078A4760067
:0600E60078A5E4F608F61F
:0600EC00753A00753B00AF
:0900F2007546FF754700754803CF
:1000FC007808E4F608F608F608F6780C76000200A4
:01010C0046AC
:0F010E009003E8E4F5F0122F2702011E020124EE
:09011E0012025602179E02191884
:1001280075D30074FC55D24402F5D2751000223004
:10013800DE1190000AE0FFBF010990000BE0FF907C
:100148000204F022E58290010AF07E007F00E510AB
:1001580060240EBE00010F900005C007C006122FD4
:10016800D8D006D0078E048F05C3EC9420ED944EAA
:1001780040DC7582002290010AE09001F1F0E4A3CE
:10018800F07440A3F09001F4E513F0E4A3F09000BC
:100198004A75F000122DF68513D375100153D2FC61
:1001A8007582012275D50074FC55D44402F5D475C6
:1001B80011002230DE0375120122E512602C900135
:1001C800F1748AF07400A3F0E4A3F09001F47420B1
:1001D800F0E4A3F090006A75F040122DF678AC7642
:1001E8002075826A12240775120022E58290010B9D
:1001F800F07E007F00E51160200EBE00010F900028
:1002080005C007C006122FD8D006D007C3EE9450F9
:10021800EF94C340E07582002290010BE09001F159
:10022800F0E4A3F07440A3F09001F4E514F0E4A323
:10023800F09000CA75F000122DF68514D5751101DD
:1002480053D4FC75820122900204E0F58222120642
:10025800E412070E1206FD75DD0075D30075D50092
:010268002273
:10026A00AFDBBF080280030205A3900007E0FE7F10
:10027A0000900006E0FD7C004FF515EC4EF5167F68
:10028A0000900001E0F517900205E4F0900000E00C
:10029A00FE546060057FFF0205A5E51724F45003AC
:1002AA0002059FE517240B83F582E517241083F5D1
:1002BA0083E47381329FBC9FFCD59F0926A5A505BF
:1002CA000405040503020504040505900003E0FE85
:1002DA00BE01028012BE02028018BE0302801EBE48
:1002EA002202806602038C7518E67519327F1202A3
:1002FA00038E7518F87519327F4902038E90000231
:10030A00E070087518437519348034900002E0FED5
:10031A00BE01087518817519348024900002E0FE28
:10032A00BE020875186B7519348014900002E0FE3D
:10033A00BE030875184775193480047FFF80458508
:10034A001882851983E493FF803A900002E0702EA8
:10035A00900004E0700E751841751933903311E45A
:10036A0093FF8020900004E0FEBE010E75182175EF
:10037A001934903331E493FF800A7FFF80067FFFB0
:10038A0080027FFFBFFF030205A58F057E00C3ED34
:10039A009515EE951650048D158E16AD15AE16C32D
:1003AA00ED9408EE9400920040067B087C008004DD
:1003BA00AB15AC168B077C00C3EC9F50198C027BE3
:1003CA0000EC2518F582E43519F583E493F98A825D
:1003DA008B83F00C80E28F037C00EDC39BFDEE9CC7
:1003EA00FE8D158E16EF2518F518E43519F5190244
:1003FA0005A5900002E0FE8E157516000205A5906F
:10040A00010CE0900000F0AD15AE16C3ED9401EEBC
:10041A00940050030205A57F010205A5900002E0A1
:10042A00FE90010CF00205A5900000E0541F702F09
:10043A00900003E0FD7E00900002E0FC7B00420693
:10044A00EB4205BE0114BD00119032FFE493FE3069
:10045A00E5030205A57FFF0205A57FFF0205A5901A
:10046A000000E0FE53061F7D00BE0241BD003E9023
:10047A000004E0FEBE01028029BE02028013BE8192
:10048A00028014BE822274BC55D44402F5D40205FB
:10049A00A553D4730205A574BC55D24402F5D20201
:1004AA0005A553D2730205A57FFF0205A57FFF02AA
:1004BA0005A5900000E0541F702F900003E0FD7E18
:1004CA0000900002E0FC7B004206EB4205BE0114EC
:1004DA00BD00119032FFE493FE30E5030205A57FCB
:1004EA00FF0205A57FFF0205A5900000E0FE530666
:1004FA001F7D00BE0205BD000280028076900003C7
:10050A00E0FD7E00900002E0FC7B004206EB420523
:10051A00EE4D705B900005E0FD7E00900004E0FC6B
:10052A007B004206EB4205BE0105BD00028034BED7
:10053A000205BD00028018BE8105BD0002801ABEF8
:10054A008229BD002674BF55D44403F5D4804C7467
:10055A007F55D4440CF5D4804274BF55D24403F578
:10056A00D28038747F55D2440CF5D27FFF802C7F1D
:10057A00FF80287FFF8024900000E4F0900001F0C3
:10058A00AD15AE16C3ED9402EE940040047F0280CE
:10059A000AAF1580067FFF80027FFFBFFF0775172E
:1005AA00FF75DCCF22EF24F740068FDD75DCC02211
:1005BA0075DD0075DCC0227405B51702805D74060E
:1005CA00B51766AE15AF16C3EE9408EF9400920104
:1005DA0040067C087D008004AC15AD167D00C3ED95
:1005EA009C50198D027B00ED2518F582E43519F52A
:1005FA0083E493F98A828B83F00D80E28C037D0079
:10060A00EEC39BFEEF9DFF8E158F16EC2518F5188D
:10061A00E43519F5198CDD63DC4022E5E35480FFEB
:10062A00E5154FF5E375DC022275DD0075DC022263
:10063A0075DD0043DC022220D9030206B7E5D9544E
:10064A000FFFADD95305307E00BD0005BE00028004
:10065A0018BD1005BE00028052BD2005BE000280F2
:10066A0026BD3047BE0044803CBF0002800ABF015D
:10067A0002800ABF0235800A12063A802E1201371A
:10068A0080291201BB8024BF0002800ABF010280B8
:10069A000ABF0217800A1205C18010120128800BB6
:1006AA001201AC8006BF000312026AC2D930D81DFB
:1006BA0075DC0275D21275D41275E300C2DAC2D99A
:1006CA00C2D875100075110090010CE4F010DA011F
:1006DA0022E5DA20E20375D8FF2275E20053E27FB1
:1006EA0043E22975E30053E2BF53D1FB75D180433E
:1006FA00D1012243E10443E10243E10143D81FD27D
:10070A00EAD2AF227E007F008EEC8FED7E0A7F0058
:10071A008EEE8FEF7E8A7F008EE48FE575D212759A
:0C072A00D41275EAC075EB0C75DC0222DD
:10073600122EEA85821A85831B85F01CF51D22027E
:100746000748122EEAAC82AD83AEF0FFECC3951AD1
:10075600FCED951BFDEE951CFEEF951D8C828D83A1
:100766008EF022AF83E58290010DF0EFA3F0120721
:1007760045AE82AF8390010DE0FCA3E0FDEEC39C85
:10078600FEEF9D8E82F58322900114E06003120C29
:10079600369001F1740FF07401A3F0E4A3F0900118
:1007A600F47406F0E4A3F090011575F000122DF62E
:1007B600900119E0700302131E90011575F00012E6
:1007C6001CE3E5827001227D967E017F009001F197
:1007D6007415F07401A3F0E4A3F09001F47402F030
:1007E600E4A3F08D828E838FF0122DF675E01DC086
:1007F600E075E001C0E075E000C0E012192815813F
:10080600158115819001F1741DF07401A3F0E4A324
:10081600F09001F47402F0E4A3F090011B75F0006F
:10082600122DF67D1F7E017F009001F17415F07484
:1008360001A3F0E4A3F09001F47406F0E4A3F08DB4
:10084600828E838FF0122DF67D257E017F0090012A
:10085600F1741BF07401A3F0E4A3F09001F47402A8
:10086600F0E4A3F08D828E838FF0122DF6020876C7
:10087600900126E0C4540FFF6012BF0102800DBF35
:100886000403020921BF050302096B22900126E039
:1008960054F07009900126E0540FFF800B9001265A
:1008A600E0540FFEC454F0FF900124E06034EF6082
:1008B60028900125E0FEBEE0004009900125E0FEFB
:1008C60024185006900125E070078F82120C0C80C8
:1008D600058F82120C21120BB3900125E0F58202DE
:1008E6000989900125E0F582C007120A39D007EF81
:1008F600700122900125E0FEBEE00040099001252E
:10090600E0FE24185006900125E070078F82120C35
:100916001680058F82120C2B020BB3900126E00382
:10092600035403FF6005BF0159801D900124E06058
:100936000C900125E0FEA3E05403FF80047E007FB7
:10094600008E828F83022730900124E0600C900194
:1009560025E0FEA3E05403FF80047E007F008E8224
:100966008F83022770900124E0600B900125E0F54B
:1009760082120B2C8009900125E0F582120B4002B1
:100986000B6522E582900127F0E0FF700122BF048B
:1009960000402FEF245B402A9001D8EFF090008AA8
:1009A60075F040C007122800E582D00760088F82E4
:1009B600120B04120BB3900127E0F582120AF00223
:1009C6000BB3900127E0FFBFE000401DEF24184065
:1009D6001874075FF5F005F07401800225E0D5F084
:1009E600FBF582120C0C020BB3900127E0FFBFA5AA
:1009F60000400FEF2458400A8F82122948AF830225
:100A06002730900127E0FFBFA800400FEF243D40AC
:100A16000A8F8212296FAF83022770900127E0FFA9
:100A2600BFCD00400DEF242040088F82120B2C0210
:100A36000B6522E582900128F0E0FF700122BF04D9
:100A460000400DEF245B40088F82120B04020BB3AB
:100A5600900128E0FFBFE000401DEF241840187405
:100A6600075FF5F005F07401800225E0D5F0FBF58F
:100A760082120C16020BB3900128E0FFBFA50040BE
:100A86000BEF24584006900000022730900128E022
:100A9600FFBFA800400BEF243D4006900000022750
:100AA60070900128E0FFBFCD00400DEF24204008E4
:100AB6008F82120B40020B6522E582900129F0E03D
:100AC600FFF582C007120989D007BF390B90005085
:100AD600E4F5F0122F278009900000E4F5F0122FBC
:0A0AE60027900129E0F582020A3989
:100AF000E58290012AF0E09001DCF090008A75F028
:100B00004002284EE58290012BF0E09001E0F09049
:100B1000008A75F0400228C87F00BF09005009EF25
:100B2000248AF876000F80F2751E0022E58290017B
:100B30002CF0E09001E6F090009375F0400229B6A9
:100B4000E58290012DF0E09001EAF090009375F0BD
:100B500040022ACD789576007896760078977600D0
:100B600078947600229001FA742EF07401A3F0E4D8
:100B7000A3F09001FD7405F0E4A3F090009375F0EC
:100B800040123101E5828583F045F060259001F146
:100B90007493F0E4A3F07440A3F09001F47405F0B2
:100BA000E4A3F090012E75F000122DF675829302E9
:100BB00027D822788BA61EE51F451E788BF690015C
:100BC000FA7433F07401A3F0E4A3F09001FD74090A
:100BD000F0E4A3F090008A75F040123101E58285BF
:100BE00083F045F060259001F1748AF0E4A3F0747D
:100BF00040A3F09001F47409F0E4A3F09001337580
:100C0000F000122DF675828A0227B322E582900148
:100C10003CF0E0421E22E58290013DF0E0F4521EDD
:100C200022E58290013EF0E0421F22E58290013FE2
:100C3000F0E0F4521F22751F0022AF83E58290017D
:100C400040F0EFA3F0900140E0FEA3E0FFBE0005FE
:100C5000BF7E02801FBE0105BF7E028008BE021B50
:100C6000BF7E1880077899E64401F622789976C805
:100C700008760022789976380876FF22AF83E582DD
:100C8000900142F0EFA3F0900142E0FEA3E0FFBE2E
:100C90000005BF7E028017BE0105BF7E028008BE30
:100CA0000213BF7E1080077899E654FEF6227899E9
:100CB0007600087600229001FA7444F07401A3F0E3
:100CC000E4A3F09001FD7404F0E4A3F090009875A3
:100CD000F040123101E5828583F045F060249001F7
:100CE000F17498F0E4A3F07440A3F09001F4C4F020
:100CF000E4A3F090014475F000122DF6758298027D
:030D000027EC22BB
:100D0400AFF0AE83E58290014FF0EEA3F0EFA3F0D5
:100D1400900152E4F090014EE060169002067401D6
:100D2400F0120745E5828583F0900148F0E5F0A3D1
:100D3400F0900206E07003020DF2900148E0FEA379
:100D4400E0FF8E828F83120769AE82AF83C3EE9475
:100D540005EF94005003020DF290014AE0FDA3E078
:100D6400FEA3E0FF8D258E268F2790014FE0F5220C
:100D7400A3E0F523A3E0F524A822A923AC24900141
:100D84004DE0FA7B009001FAE8F0E9A3F0ECA3F05F
:100D94009001FDEAF0EBA3F0852582852683852763
:100DA400F0C007C006C005C003C002123101E582CD
:100DB4008583F0D002D003D005D006D00745F0607B
:100DC40028A822A923AC249001F1E8F0E9A3F0ECCF
:100DD400A3F09001F4EAF0EBA3F08D828E838FF000
:100DE400122DF69001527401F0900206E4F0900185
:050DF40052E0F582222F
:100DFA00E582900155F0E025E0240AFF900153E0D6
:100E0A0025E02FFF900154E025E02FFFF582C0076F
:100E1A00122BC8AE82D0078E057E000F8F82C006C5
:100E2A00C005122BC8AF82D005D006E4FCEF2EFE17
:100E3A00EC3D8E82F58322E58290015AF0E025E0AE
:100E4A00240AFF900156E025E02FFF900157E02584
:100E5A00E02FFF900158E0FDA3E0FE9001EEF08F35
:100E6A0082C007C006C005122B92D005D006D00753
:100E7A000F9001EEEDF08F82022B92E58290015DD8
:100E8A00F0E025E025E0240CFF90015BE025E02559
:100E9A00E02FFF90015CE0FEE060067C007D0080B0
:100EAA00047C027D008F05EC2DF582C007C0061276
:100EBA002BC8AD82D006D0078D047D00EE60067B7C
:100ECA00007E0080047B027E00EB2F04F582C005C1
:100EDA00C004122BC8AF82D004D0057E00EF4205B1
:100EEA00EE42048D828C8322E582900162F0E02535
:100EFA00E025E0240CFF90015EE025E025E02FFFCD
:100F0A0090015FE0FEE060067C007D0080047C02C8
:100F1A007D008F05EC2DFC900160E0FBA3E0FD90C5
:100F2A0001EEF08C82C007C006C005C003122B92E6
:100F3A00D003D005D006D007EE60067C007E008084
:100F4A00047C027E00EC2F04FF9001EEEBF08F820E
:100F5A00022B927F00BF01004003020FEBEFFE75E8
:100F6A00F002A4248DFC743435F0FD7B00BB010033
:100F7A00506BEBFA25E02CF8E43DF975280074FF74
:100F8A0025284056C004C005E528252828F582E40E
:100F9A0039F583E493FCA3E493FD900156EAF090BB
:100FAA000157E528F0900158ECF0EDA3F08E82C0CD
:100FBA0007C006C005C004C003C002C001C00012B9
:100FCA000E41D000D001D002D003D004D005D00603
:100FDA00D0070528D005D00480A40B80900F020FFB
:100FEA005F7F00BF0100400122EFFE75F004A424D8
:100FFA008FFC743435F0FD7B00BB01004003021006
:10100A0093C007EB2B25E02CF9E43DFA89828A8309
:10101A00E493F8A3E493FF90015EEBF090015F7410
:10102A0001F0900160E8F0EFA3F08E82C007C006DD
:10103A00C005C004C003C002C001120EF2D001D024
:10104A0002D003D004D005D006D00789828A83A3B0
:10105A00A3E493FAA3E493FF90015EEBF090015F9F
:10106A00E4F0900160EAF0EFA3F08E82C007C006B8
:10107A00C005C004C003120EF2D003D004D005D0BC
:0D108A0006D0070BD0070210030F020FED78
:101098007F00BF6A0050178F0674162EFE9001EE6F
:1010A800E4F08E82C007122B92D0070F80E4227FD3
:1010B80000BF050050148F060E9001EEE4F08E82FA
:1010C800C007122B92D0070F80E722120B18120BC1
:1010D800B3120B54020B65E582900163F0E0FF7ECA
:1010E80000BE0900502CEE75F002A4FCADF024936C
:1010F800F582ED3434F583E493FBB50712EC2493C1
:10110800FCED3434FD8C828D83A3E493F582220EAA
:1011180080CF900163E0F58222E582900164F012AD
:1011280010D3789C8607900164E0FEEFB506057839
:101138009C76FF22789D767F789D86078F82C006F1
:10114800122BC8E582D006600122789CA60678A0FA
:1011580076000876008E070F8F82C006122BC8E52E
:1011680082D006789FF6789D76168E07EF602D78E8
:101178009D8606BE8005789C76FF22789D86068E21
:1011880082C007122BC8E582D00770061F90016441
:10119800EFF0789DE6FE04789DF680D0789D86076E
:1011A800789EA60722752900752A00752B00752CD4
:1011B80000752D00752E00752F00753000753100F3
:1011C800789DE6FF04789DF68F82122BC8AF828F38
:1011D80029AE29EF700475820222BE010280030243
:1011E8001315789DE6FF04789DF68F82122BC8AF01
:1011F800828F2AAD2AEF7003F58222BD0102800892
:10120800BD02028003BD034F789DE6FF04789DF67A
:101218008F82122BC8E582F52B7003F58222852B6D
:10122800821210DFE582F52BAF2ABF0102800DBFC5
:1012380002028011BF0302801502131A852B821245
:101248000ABF02131A852B8212098902131A852BE9
:1012580082120A3902131ABD0402800302131A7F8C
:1012680002EF2429F9789DE6FD04789DF68D82C069
:1012780007C001122BC8AD82D001D007A705ED70B9
:1012880003F582228705BD7C02800ABF07047582A8
:1012980000220F80CC900165E4F0A3F0900167E58F
:1012A8002BF07F02900167E0FDBD30009202404CB8
:1012B800ED24C692024045900165E0FCA3E0FDC024
:1012C80007C004C00590000A123063AC82AD8315D4
:1012D800811581D007900167E07A0024D0FBEA34B9
:1012E800FFFAEB2CFCEA3DFD900165ECF0EDA3F074
:1012F8000FEF2429F9900167E7F080A8900165E0D5
:10130800FDA3E0FF78A0A60508A60780058E821237
:1013180020EE75820122789C8607BFFF012278A003
:101328008606088607EE4F600D1EBEFF011F78A0D7
:10133800A60608A607221211ADAF82BF0221789F28
:10134800E6FE6013BEFF028005EE14789FF6789ED5
:101358008605789DA60522EE700F789C76FF22EF11
:0A1368007007789C76FF0210D32274
:10137200E582900169F0E075F006A42410FF900167
:1013820068E025E02FFFF582C007122BC8AE82D09D
:10139200078E057E000F8F82C006C005122BC8AFD4
:1013A20082D005D006E4FCEF2EFEEC3D8E82F58362
:1013B20022E58290016DF0E075F006A42410FF9002
:1013C200016AE025E02FFF90016BE0FDA3E0FE90B3
:1013D20001EEF08F82C007C006C005122B92D00525
:1013E200D006D0070F9001EEEDF08F82022B927F94
:1013F20000BF060050178F0674102EFE9001EEE417
:10140200F08E82C007122B92D0070F80E422E58271
:10141200900170F0E024F0900172F090016EE014FF
:10142200900171F090016FE0900176F0120745AEE5
:1014320082AF83900173EEF0EFA3F0900175740117
:10144200F07D0F7E017F009001F17471F07401A3B1
:10145200F0E4A3F09001F47406F0E4A3F08D828E20
:10146200838FF0122DF602078E7532FF75330075E9
:1014720034002274FFB5320122853582853683120B
:101482000769AE82AF83C374C89EE49F5052E533AE
:10149200FF701AE534704990016E7403F090016F89
:1014A2007401F085328212141075340122EF24FD8A
:1014B200402B90016EEFF090016F7401F085328243
:1014C20012141090000AE4F5F0122F2790016EE535
:1014D20033F090016FE4F085328212141002146B23
:1014E20022AF83E58290017AF0EFA3F090017AE0D7
:1014F200FEA3E0FF8E048F05C3EC9407ED947E40BB
:1015020062740B9C747E9D405AEE24F9FF90017721
:10151200E0FCA3E0FDA3E0FE74052CFCE43DFD8CA1
:10152200828D838EF012320460048F328024E5347F
:10153200601690016E7403F090016FE4F0853282C0
:1015420012141012146B800AEFB53206E533FF0451
:10155200F533120745E5828583F0F53585F036755A
:0715620082002275820122C4
:10156A007F00BF0100502DEF9034A593FE9001EF4C
:10157A007402F08E82C007122C7AD007EF9034A63C
:10158A0093FE9001EF7402F08E82C007122C7AD07B
:10159A00070F80CE900064122FD87F00BF01005041
:1015AA0038EF24A2F9EF9034A593F582C007C00161
:1015BA00122D31AE82D001D007EF9034A693F58276
:1015CA00C007C006C001122D31AD82D001D006D0AD
:1015DA0007ED2DFD4EF70F80C322E58290017DF0C5
:1015EA00E090017EF09001837401F0120745AE820B
:1015FA00AF83900180EEF0EFA3F090017CE0600DE4
:10160A0090017F74FDF0900182F4F0800B90017FCD
:10161A0074FCF0900182F4F07D0F7E017F0090014E
:10162A00F1747EF07401A3F0E4A3F09001F474065F
:10163A00F0E4A3F08D828E838FF0122DF612078EBE
:10164A0090000AE4F5F0122F27900183E4F07D0F51
:10165A007E017F009001F1747EF07401A3F0E4A38F
:10166A00F09001F47406F0E4A3F08D828E838FF07B
:10167A00122DF612078E90000AE4F5F0022F27E5E4
:10168A0082900185F0900186E4F0900185E0FF24C4
:10169A00A3F98706900184E0FD53050F7C00ED2431
:1016AA00A7F582EC3434F583E4932EFEF7C3EE6497
:1016BA00809484401BEF24A4F8E604F69001867413
:1016CA0001F090017CE4F08F82C0011215E4D00190
:1016DA00E7FF3395E0FEC374FC9F747F8EF063F0DE
:1016EA008095F0401E900185E0FF24A4F8E614F6E8
:1016FA009001867401F090017CF08F82C00112156E
:10170A00E4D001E7A2E754036004500244FCF790D6
:10171A000186E0F58222900187E4F07F00BF010094
:10172A00506BEF9034A593F582C007122D31AE822B
:10173A00D007EF9034A693F582C007C006122D3168
:10174A00AD82D006D007ED2D4206EF24A2F9870517
:10175A008D035303037C00C0078E027F00EBB502A2
:10176A0008ECB50704D0078021D007ED2D25E0F756
:10177A004206A706900184EEF08F82C007121689EE
:10178A00AE82D007900187E04EF00F8090900187DB
:04179A00E0F58222D2
:10179E00120736121BE11221CC12156A021ECA1252
:1017AE000745AE82AF8378A5EEC396FCEF08964C44
:1017BE00700122900188E4F0900189F0900188F088
:1017CE00900189F090018AF0A3F090018CF09001C5
:1017DE008DF0C007C006120745AC82AD8390018A1A
:1017EE00ECF0EDA3F090018CE4F090018DF07B0F06
:1017FE007C017D009001F17488F07401A3F0E4A3E4
:10180E00F09001F47406F0E4A3F08B828C838DF0DB
:10181E00122DF6D006D007C007C00612078ED006CE
:10182E00D00778A5A60608A60722121BFBE5827034
:10183E00030217AD7F00BF0100400122EF24A9F97A
:10184E00870690018EEEF0EF24A7F98705EE62056C
:10185E00ED700302191490018F7401F08F377B0025
:10186E00BB0100400302190B90018FE0FA5D70037B
:10187E000218FFC005EE5202EA24FFE433FA90018B
:10188E0091E537F0900190EBF0900195EAF0C007EA
:10189E00C006C003120745AA82AD83D00390019201
:1018AE00EAF0EDA3F09001947401F07A0F7C017DC3
:1018BE00009001F17490F07401A3F0E4A3F0900194
:1018CE00F47406F0E4A3F08A828C838DF0C005C018
:1018DE0003122DF6D003D005D006D007C007C006E0
:1018EE00C005C00312078ED003D005D006D007D096
:1018FE00050B90018FE025E0FCF002186EEF24A797
:10190E00F990018EE0F70F0218441218381201C236
:09191E00121720121475021E12AA
:101928007D987E017F009001F17496F07401A3F018
:10193800E4A3F09001F47402F0E4A3F08D828E83A6
:101948008FF0122DF6121A32AE82AF838E048F05F5
:10195800C3EC9404ED9400400774A49CE49D5010DB
:10196800C3EC94E0ED9400400E74E79CE49D4007BE
:101978008E388F39021A1AC3EC94A5ED9400401BD7
:1019880074A79CE49D40148E038B82122948AA8276
:10199800AB834303408A388B398077C3EC94A8ED36
:1019A8009400401B74C29CE49D40148E038B8212E9
:1019B800296FAA82AB834303448A388B398053C387
:1019C800EC94CDED9400401374DF9CE49D400C8CA6
:1019D8000274504DFB8A388B398037BC010BBD002F
:1019E80008753801753900802974FF2D501FC3749C
:1019F800FF9C741F9D40168F0653061F8E07E4FE3A
:101A0800FDEC4206ED42078E388F398005E4F53843
:101A1800F539E58124FCF886820886830886F0E596
:101A280038123048A3E539023048900199E0FFBFE9
:101A38000100501A900198E0FEBE0100501090017C
:101A480053EFF0900154EEF0853A82020DFABFFD93
:101A58001B900198E0FEBE0100501190015BEEF072
:101A680090015C7401F0853A82020E85BFFC1A90E1
:101A78000198E0FEBE0100501090015BEEF090016D
:101A88005CE4F0853A82020E85BFF0004016EF2430
:101A9800054011EF2410FF900198E0900168F08F45
:101AA8008202137290000022E58290019AF0E0FF12
:101AB8009001EF7401F08F82C007122C7AD0079042
:101AC80001F0E4F08F82022D81E58290019BF0E025
:101AD800FF9001F07401F08F82C007122D81D007AA
:101AE8009001EF7402F08F82022C7AE58290019CBB
:101AF800F0E0F582122D31E5827004FEFF80047E4D
:101B0800017F008E82227F00BF0100503BEF24B787
:101B1800FDE43434FE7C00BC01005029EC2DF58234
:101B2800E43EF583E493FB9001EF7402F08B82C0EE
:101B380007C006C005C004122C7AD004D005D00610
:101B4800D0070C80D20F80C022AFF0AE83E5829020
:101B5800019EF0EEA3F0EFA3F09001A1E4F0900154
:101B6800A204F090019DE0FF24B7FDE43434FE7C2C
:101B780000BC01005043EC2DF582E43EF583E4936C
:101B8800F582C007C006C005C004121AF3E582D06A
:101B980004D005D006D00760067A007B0080089044
:101BA80001A2E0F9FA7B009001A1E0F94AF00C905B
:101BB80001A2E025E0FBF080B890019EE0FCA3E0E4
:101BC800FDA3E0FEEF2CFFE43DFB8E029001A1E0B7
:101BD8008F828B838AF0023048121B0E7F00BF0170
:101BE80000500FEF24A9F87600EF24A8F876000F2C
:101BF80080EC229001A3E4F07F00BF010050159013
:101C0800019DEFF09001A375F000C007121B51D0A1
:101C1800070F80E69001FA74A3F07401A3F0E4A31F
:101C2800F09001FD04F0E4A3F09000A875F04012D4
:101C38003101AE82AF83EE4FB4010092039001A44C
:101C4800B3E433F09001A4E0FFE060229001F17466
:101C5800A3F07401A3F0E4A3F09001F404F0E4A36A
:101C6800F09000A875F040C007122DF6D00790013B
:101C78004A74A9F0E4A3F07440A3F090014D7401F4
:0F1C8800F090014EEFF09000A875F040020D04AF
:101C9800AF83E5829001A8F0EFA3F09001A5E0FDE5
:101CA800A3E0FEA3E0FF74052DFDE43EFE8D828EC9
:101CB800838FF012320460119001A8E0FEA3E0FFC8
:101CC8008E828F83120C3A800F9001A8E0FEA3E069
:101CD800FF8E828F83120C7C020CB6AFF0AE83E5C8
:101CE800829001AAF0EEA3F0EFA3F09001AAE0FD24
:101CF800A3E0FEA3E0FF7A987B017C009001F1ED60
:101D0800F0EEA3F0EFA3F09001F47402F0E4A3F076
:101D18008A828B838CF0122DF6121A32AE82AF8330
:101D28009001AAE0FBA3E0FCA3E0FD900177EBF0B3
:101D3800ECA3F0EDA3F08E828F83C007C0061214C7
:101D4800E3E582D006D0077003F582228E048F0562
:101D580074822D502AC374029C747E9D4021900188
:101D6800AAE0FBA3E0FCA3E0FD9001A5EBF0ECA347
:101D7800F0EDA3F08E828F83121C9875820022905A
:101D880001AAE0FBA3E0FCA3E0FD9001C8EBF0ECA6
:101D9800A3F0EDA3F08E828F83122203E5827003F5
:071DA800F582227582012281
:101DB00078AA864408864575480122E5829001ADDF
:101DC000F07F00E0FEB54603D38001C3B3920478F0
:101DD00047A204E433F6BE0002800ABE010280126C
:101DE000BE021B801490004775F040121ED8AF82CF
:101DF000800C121F14AF828005121F47AF82EF7054
:101E000010754802E54770099001ADE07003754810
:101E10000322120745E5828583F078AAF608A6F02A
:101E2000E54824FC4042E54875F003A4901E307359
:101E3000021E3C021E3F021E45021E4F021DB085BF
:101E40003C82021DBB853C461220797548032285E1
:101E50004482854583120769AE82AF83C3EE941432
:101E6000EF9400400375480022E5829001AEF0E057
:101E7000FF8F3C9001EEEFF0758209022B92E58214
:101E80009001AFF0E0F53C22758209122BC8E58283
:101E9000F53C229034BAE4939001EEF0758206127C
:101EA0002B929034B9E4939001EEF0758207122BD7
:101EB000929034BBE4939001EEF0758208122B925D
:101EC0009034B8E493F582021E691220627582098B
:101ED000122BC8E582F53C22AFF0AE83E58290017B
:101EE000B0F0EEA3F0EFA3F09001B0E0FDA3E0FEB0
:101EF000A3E0FF8D828E838FF01232047003F5828F
:101F0000229001C2E4F09001C3F07582001220B566
:101F100075820022758206122BC8E582F54A758209
:101F200007122BC8E582F549758208122BC8AF82CB
:101F30008F4B9001C2E549F09001C3EFF0854A82D2
:101F40001220B57582002275820022AFF0AE83E5C3
:101F5000829001B3F0EEA3F0EFA3F09001B3E0FDA7
:101F6000A3E0FEA3E0FF74022DFAE43EFB8F048A97
:101F7000828B838CF0123204F560C3940A5007748C
:101F800002B53C0280249001B3E0F563A3E0F56460
:101F9000A3E0F5650563E4B56302056485638285A6
:101FA00064838565F074FE02304874012DFAE43EC6
:101FB000FB8F048A828B838CF0123204F563756187
:101FC00003756200C3E5629560400122E56375F028
:101FD00003A424B6F566740135F0F567740125662F
:101FE000F568E43567F569E5612DFAE43EFB8F0499
:101FF0008A828B838CF0123204856882856983F033
:1020000085616875690074012568FAE43569FCEA40
:102010002DFAEC3EFC8F038A828C838BF012320403
:10202000856682856783F074022566F566E4356708
:10203000F56774022568FAE43569FCEA2DFAEC3E8E
:10204000FC8F038A828C838BF0123204FA856682BD
:10205000856783F005620563AB6174032BF561024C
:022060001FC49B
:102062009001EF7401F075820E122C7A9001F0E467
:10207200F075820E022D817EB67F017D007C0043C9
:10208200050C8E828F838DF0EC0231E0E58275F0D3
:1020920003A424B6FE740135F0FF8E828F83A3E57C
:1020A2004CF08E828F83E54DF08E828F83A3A3E561
:1020B2004EF022E5829001C4F0E0FF9001C2E0FE02
:1020C2009001C3E0FD7C00BC0400501E8F4C8E4D7D
:1020D2008D4E8C82C007C006C005C00412208ED06F
:0B20E20004D005D006D0070C80DD22E2
:1020EE00E5829001C5F0E0FF9034F093FE7D00C0D4
:1020FE0007C006C0057408C0E0E4C0E08F828D837F
:10210E00123220AB82AC8315811581D005D006D05A
:10211E0007EB24C0F582EC3434F583E493FA5307CD
:10212E00078FF005F0EA8002C313D5F0FB5401F5DA
:10213E004FEB24D0F582EC3434F583E493FA8FF030
:10214E0005F0EA8002C313D5F0FB5401F550EB24E1
:10215E00E0F582EC3434F583E493FC8FF005F0EC7B
:10216E008002C313D5F0FB5401FFE54F600E75825C
:10217E00E1C007C006120989D006D007E550600EEF
:10218E007582E6C007C006120989D006D0078E8276
:10219E00C007120ABFD007E550600A7582E6C00775
:1021AE00120A39D007E54F600A7582E1C007120A9C
:0D21BE0039D007EF600675822C020ABF229F
:1021CC00758200122BC8AF82BF5A01220221DB128A
:1021DC000F5D1210981210B7121E931213F190018A
:1021EC00EE745AF0758200022B9275E200C2AF7544
:1021FC00890012380080FEAF83E5829001CBF0EFAE
:10220C00A3F09001C8E0FDA3E0FEA3E0FF74052D50
:10221C00FDE43EFE8D828E838FF01232046023909B
:10222C0001CBE0FEA3E0FF8E048F0574892D5012C4
:10223C00C3747F9C74779D40098E82121121758224
:10224C00002275820122E5829001CDF0E0F9240292
:10225C00F8740329FF8706BE0702800BBE080280B4
:10226C0063BE09028001229001C6E0FDA3E0FE8D51
:10227C00828E83C007C000120769AD82AE83D00086
:10228C00D007C3ED94F4EE94015001228606BE02F1
:10229C000BA80786058D82121E698017BE050040AB
:1022AC0012EE24F8400D0E9001EEA807E6F08E8297
:1022BC00122B92120745E5828583F09001C6F0E55A
:1022CC00F0A3F0228606BE0210758209C007122BFD
:1022DC00C8E582D007A807F622BE05004014EE24FC
:1022EC00F8400F0E8E82C007122BC8E582D007A8CB
:1022FC0007F622E5829001CEF0E0F904F874022989
:10230C00FF740329FE8605BD053C8704BC070280CB
:10231C0008BC0802801DBC092CA8078604BC01005F
:10232C004023EC24FA401E9001EEA806E6F08C82C5
:10233C00022B92A80786048C82C006122BC8E58259
:10234C00D006A806F622BD06288704BC0702800822
:10235C00BC08028017BC0918A8078604BC010280BF
:10236C0005BC020C80030221DB0221F6A8067600D4
:10237C0022BD03058982022252BD0702800302247A
:10238C00048705BD07028008BD08028043BD0967AC
:10239C00A8078605BD0100405EED24FA4059EE0405
:1023AC00F886047B008C528B5174022EF886027CCA
:1023BC0000E5514202E55242041D90016AA806E66E
:1023CC00F090016BEAF0ECA3F08D821213B380272E
:1023DC00A80786071F900168A806E6F08F82C00147
:1023EC00121372AE82AF83D001740429F88F05A644
:1023FC0005740529F8A6062277FF22E5829001CF05
:10240C00F0E0F904F8E7FF24D9500302271EEF246B
:10241C000A83F582EF242B83F583E4731E97202027
:10242C00A2DC1C22222220202A2F3D8DDCE2E74256
:10243C009CDB1E1E1E1E1E1E1E1E1E1E1E1E1E1E75
:10244C007688912724272724242525252527272509
:10245C00252525252525262626272727272727270F
:10246C002727272727272724242489077E007D4018
:10247C008F828E838DF0121F4B02272075820212E1
:10248C001E7E022720121E88022720760074022945
:10249C00F8760C0227208607740229FE900153A8B7
:1024AC0006E6F0740329FE900154A806E6F08F822C
:1024BC00C001120DFAAE82AF83D001740429FD8FD6
:1024CC0004A805A604740529FDA805A60602272064
:1024DC008607740229FE900156A806E6F0740329BB
:1024EC00FE900157A806E6F0740429F886068E05BE
:1024FC007E00740529F886047B00EC4206EB42054D
:10250C00900158EEF0EDA3F08F82120E41022720BD
:10251C00120F5D02272089821222FF0227207605E6
:10252C000227207600740229FF746AA807F6022796
:10253C0020740229FF740329FE7D00A9068704C3B9
:10254C00ED9C40030227208D037C0074032BFBE4DD
:10255C003CEB28FCA907870374162BFB8D02EA2B96
:10256C00F582C007C006C005C004C000122BC8E528
:10257C0082D000D004D005D006D007A904F70D8076
:10258C00BA740229FF740329FE7D00A9068704C3CF
:10259C00ED9C4003022720A907870474162CFC8DA0
:1025AC0003EB2CFC8D027B0074032AFAE43BEA2833
:1025BC00FB9001EEA903E7F08C82C007C006C005B2
:1025CC00C000122B92D000D005D006D0070D80BBD6
:1025DC0012109802272076010227207F007402290E
:1025EC00FEC000A8068606D000EE4207740329FE42
:1025FC007D00A9068704C3ED9C40030227208D03B0
:10260C007C0074032BFBE43CEB28FC8F03740A2B3B
:10261C00FB8D02EA2BF582C007C006C005C004C0C2
:10262C0000122BC8E582D000D004D005D006D0070C
:10263C00A904F70D80BC7F00740229FEC000A80617
:10264C008606D000EE4207740329FE7D00A906879A
:10265C0004C3ED9C40030227208F04740A2CFC8DCC
:10266C0003EB2CFC8D027B0074032AFAE43BEA2872
:10267C00FB9001EEA903E7F08C82C007C006C005F1
:10268C00C000122B92D000D005D006D0070D80BD13
:10269C008607740229FE90015BA806E6F0740329F4
:1026AC00F8E6B40100920590015CB3E433F08F823C
:1026BC00C001120E85AE82AF83D001740429FD8F48
:1026CC0004A805A604740529FDA805A60680458660
:1026DC0007740229F890015EE6F0740329F8E6B459
:1026EC000100920590015FB3E433F0740429F8867D
:1026FC00068E057E00740529F886047B00EC4206E4
:10270C00EB4205900160EEF0EDA3F08F82120EF219
:10271C00800277FF9001CFE0FF78AC79B3E6F78FBA
:10272C00820227C7AF83E5829001D0F0EFA3F0902F
:10273C0001D0E0FEA3E0FF900207E0FCA3E0FDEE79
:10274C00B50405EFB5050122900207EEF0EFA3F0FA
:10275C0078AD760278AEA60608A6077513047582C6
:10276C00AD02014CAF83E5829001D2F0EFA3F09063
:10277C0001D2E0FEA3E0FF900209E0FCA3E0FDEE35
:10278C00B50405EFB5050122900209EEF0EFA3F0B8
:10279C0078B0760378B1A60608A60775130475827F
:1027AC00B002014C02024FE5829001D4F0E0F977BF
:1027BC000189077513098F8202014CE5829001D5BE
:1027CC00F0E0FF78B386148F820201F3E58290016A
:1027DC00D6F0E0F9770489077513058F8202014C56
:1027EC00E5829001D7F0E0F9770589077513038F1F
:0427FC008202014C08
:10280000AFF0AE83E5829001D9F0EEA3F0EFA3F034
:102810009001D9E0FDA3E0FEA3E0FF74032DFDE4E9
:102820003EFE9001D8E0FC7B00BB0600501CEB2D67
:10283000F8E43EF98F02888289838AF0123204F824
:10284000B50404758201220B80DF75820022AFF08F
:10285000AE83E5829001DDF0EEA3F0EFA3F07F0000
:10286000BF060050629001DDE0FCA3E0FDA3E0FEA6
:1028700074032CF9E43DFA8E03EF29F9E43AFA895E
:10288000828A838BF0123204F99001DCE0FBE9B517
:1028900003012274032CF8E43DF98E02EF28F8E4DA
:1028A00039F9888289838AF0123204701774032CF4
:1028B000FCE43DFDEF2CFCE43DFD8C828D838EF02D
:1028C000EB0230480F809922AFF0AE83E582900191
:1028D000E1F0EEA3F0EFA3F09001E1E0FDA3E0FE54
:1028E000A3E0FF74032DF560E43EF5618F62900173
:1028F000E0E0F97800B80600504DC005C006C007FA
:10290000E82560FDE43561FEAF628D828E838FF035
:10291000123204FDB501028008D007D006D0058030
:1029200023D007D006D005C00174032DF9E43EFB87
:102930008F04E829F9E43BFB89828B838CF0E41255
:102940003048D0010880AE22E5829001E4F0E0FF3B
:10295000BFA502800ABFA6028009BFA70E8008900B
:10296000008122900082229000832290000022E5C4
:10297000829001E5F0E0FF7E00BE1B005034EE7552
:10298000F003A4FCADF02470F582ED3435F583E45A
:1029900093FBEFB50319EC2470FCED3435FD8C820C
:1029A0008D83A3E493FCA3E493FD8C828D83220E9C
:1029B00080C790000022AFF0AE83E5829001E7F07F
:1029C000EEA3F0EFA3F09001E6E0FFBFCD1D900174
:1029D000E7E0FCA3E0FDA3E0FE74032CFCE43DFD76
:1029E0008C828D838EF074FF023048BFCE1D900123
:1029F000E7E0FCA3E0FDA3E0FE74032CFCE43DFD56
:102A00008C828D838EF07401023048BFCF1D9001FF
:102A1000E7E0FCA3E0FDA3E0FE74022CFCE43DFD36
:102A20008C828D838EF074FF023048BFD01D9001E0
:102A3000E7E0FCA3E0FDA3E0FE74022CFCE43DFD16
:102A40008C828D838EF07401023048BFD91D9001B5
:102A5000E7E0FCA3E0FDA3E0FE74042CFCE43DFDF4
:102A60008C828D838EF07401023048BFDA1D900194
:102A7000E7E0FCA3E0FDA3E0FE74042CFCE43DFDD4
:102A80008C828D838EF074FF023048BFD100403CB1
:102A9000EF242740379001E7E0FCA3E0FDA3E0FE30
:102AA0000CBC00010D8C828D838EF0123204FBEF82
:102AB000242FF5F005F07401800225E0D5F0FBFF2E
:102AC00042038C828D838EF0EB02304822AFF0AE51
:102AD00083E5829001EBF0EEA3F0EFA3F09001EA22
:102AE000E0FFBFCD028003BFCE1C9001EBE0FCA352
:102AF000E0FDA3E0FE74032CFCE43DFD8C828D839D
:102B00008EF0E4023048BFCF028003BFD01C90019A
:102B1000EBE0FCA3E0FDA3E0FE74022CFCE43DFD31
:102B20008C828D838EF0E4023048BFD9028003BFCF
:102B3000DA1C9001EBE0FCA3E0FDA3E0FE74042CA2
:102B4000FCE43DFD8C828D838EF0E4023048BFD1E1
:102B500000403DEF242740389001EBE0FCA3E0FD6E
:102B6000A3E0FE0CBC00010D8C828D838EF012322E
:102B700004FBEF242FF5F005F07401800225E0D569
:102B8000F0FBF4FF52038C828D838EF0EB02304811
:012B90002222
:102B9200AF82BF800040012275A15575A1AA43B141
:102BA2000475A1007585C0EF2FF5849001EEE0F564
:102BB2008EE58630E60375869A75A15575A1AA53EE
:102BC200B1FB75A10022AF827585C0EF2FF5847528
:062BD200868E858E822232
:102BD800C021C0E0C0F0C082C083C007C006C005E5
:102BE800C004C003C002C001C000C0D075D000122C
:102BF8000641D0D0D000D001D002D003D004D005F7
:102C0800D006D007D083D082D0F0D0E0D02132C017
:102C180021C0E0C0F0C082C083C007C006C005C0A4
:102C280004C003C002C001C000C0D075D00090022B
:102C38000BE0FEA3E04E600E90020BE0F8A3E0F577
:102C4800838882120049D0D0D000D001D002D003AE
:102C5800D004D005D006D007D083D082D0F0D0E001
:102C6800D0213212301312010E12011A80FB758224
:022C7800002238
:102C7A00E582FF90361193FEEF9035E993FF7001DC
:102C8A00229001EFE0FD701BBF0209EEF4FC5292A4
:102C9A00EC529322BF0402800122EEF4FC5296EC1D
:102CAA00529722BD0214BF0207EE4292EE429322CD
:102CBA00BF0439EE4296EE429722BD0116BF0208C2
:102CCA00EEF45292EE429322BF0421EEF45296EEB3
:102CDA00429722BD0316BF0208EE4292EEF45293C7
:102CEA0022BF0408EE4296EEF4FE529722AF82BF4C
:102CFA000102800FBF02028013BF03028017BF04C4
:102D0A0025801BE5C620E21E539DFB22E5C620E373
:102D1A0015539DF722E5C630E20C539DFB22E5C60A
:102D2A0030E303539DF722E582FF9035C193FEEF0E
:102D3A0090361193FDEF9035E993FF7003F58222E7
:102D4A00EE600D8E82C007C005122CF7D005D007A1
:102D5A007E00BF0202800ABF03028009BF040C8002
:102D6A0008AE908006AEA08002AEB0ED5E6004753B
:102D7A0082012275820022E582FF9035C193FEEF1F
:102D8A0090361193FDEF9035E993FFEE600D8E8238
:102D9A00C007C005122CF7D005D007A2AFE433FE56
:102DAA00C2AFBF0202800ABF03028017BF04368087
:102DBA00249001F0E07007EDF4FF52908027ED4275
:102DCA009080229001F0E07007EDF4FF52A0801588
:102DDA00ED42A080109001F0E07007EDF4FF52B0D0
:0B2DEA008003ED42B0EE6002D2AF2289
:102DF600AFF0AE83E5829001F6F0EEA3F0EFA3F01C
:102E06009001F6E0F560A3E0F561A3E0F562AA6043
:102E1600AB61AC629001F1E0F8A3E0F9A3E0FF90AA
:102E260001F4E0F563A3E0F564AD63AE6415637485
:102E3600FFB563021564ED4E6020888289838FF0AA
:102E4600123204FEA3A882A9838A828B838CF0EEB9
:102E5600123048A3AA82AB8380CF856082856183C6
:042E66008562F0226F
:102E6A00C0D075D00808B8000D09B900090ABA001F
:102E7A00050BBB00010CD0D032A2AFC2AFA808A983
:102E8A0009AA0AAB0BAC8A8588F092AF30F51274A6
:102E9A00012C600D08B8000909B900050ABA000139
:102EAA000BC3EC9406FCECC313FC75F07DE8A4F8A4
:102EBA00ADF075F07DE9A42DF9E435F0FD75F07DEE
:102ECA00EAA42DFAE435F0FD75F07DEBA42DFB7D27
:102EDA0000EC28F582E93DF583EA3DF5F0EB3D2269
:102EEA00A2AFC2AFA808A909AA0AAB0BAC0C92AF51
:102EFA0075F020E8A4A8F075F020E9A428F582A8C6
:102F0A00F075F020EAA428F583A8F075F020EBA468
:102F1A0028F9A8F075F020ECA42889F022858253BC
:102F2A0085835485F055F556122E838582578583FD
:102F3A005885F059F55AE55345544555455670019B
:102F4A0022A853A954AA55AB5685575B85585C8568
:102F5A00595D855A5EE8494A4B60DBC003C002C02E
:102F6A0001C000122E83AC82AD83AEF0FFD000D038
:102F7A0001D002D003ECC3955BFCED955CFDEE95A8
:102F8A005DFEEF955EFFC3EC94E8ED9403EE9400CA
:102F9A00EF940040A118B8FF0919B9FF051ABAFF42
:102FAA00011B885389548A558B5674E8255BF55B57
:102FBA007403355CF55CE4355DF55DE4355EF55E1C
:102FCA00855B57855C58855D59855E5A8087AE82D8
:102FDA00AF83C374019EE49F40022200C374029E21
:102FEA00FE74009FFF00BE0005BF00020022000021
:102FFA000000000000000000000000000000000EB9
:10300A00BE00EB0FBF00ED002275A15575A1AA7491
:10301A00F855B94406F5B975A100901388122FD84E
:10302A00759E5D759D0074F055894402F58953C9F2
:0D303A00EF758C06C28DD2A9D28CD2AF22C8
:1030480020F71130F6138883A88220F509F6A883A3
:103058007583002280FEF280F5F022C05F85815FD3
:10306800C082C083E5812405F581AF5F0FE55F2449
:1030780003F8A607087600087640E55F24FCFD7E85
:10308800007F40E55F2406F9A85F088604E55F2411
:10309800FCF886038CF0EBA4F709A7F0E55F24069B
:1030A80004F98704A85F08860374012DFAE43EFE3C
:1030B8008A828E838FF01232048BF0A4FBE55F24A2
:1030C80003F8740126FDE40836FE0886078D828E13
:1030D800838FF0123204FDE55F24FCF886078DF03B
:1030E800EFA42B2CF7E55F2406F987060987078EDE
:1030F800828F83855F81D05F22AFF0AE83E58290B7
:1031080001FFF0EEA3F0EFA3F09001FDE0FEA3E0D5
:10311800FF9001FDE0F5F0A3E045F0700490000099
:10312800221EBEFF011FEE4F6075C006C00790014A
:10313800FFE0FBA3E0FCA3E0FD8B008C018D02887F
:103148008289838AF0123204F89001FAE0F560A3CC
:10315800E0F561A3E0F562A960AA61AF6289828A9D
:10316800838FF0123204F9E8B501028006D007D047
:1031780006802CD007D0060BBB00010C9001FFEB9A
:10318800F0ECA3F0EDA3F0AB60AC61AD620BBB005B
:10319800010C9001FAEBF0ECA3F0EDA3F080829023
:1031A80001FFE0FDA3E0FEA3E0FF8D828E838FF098
:1031B800123204FD7F009001FAE0FBA3E0FCA3E0DB
:1031C800FE8B828C838EF0123204FB7E00EDC39B53
:0831D800FDEF9E8D82F58322BC
:1031E000ABF0A2AFE433FEC2AFE0A37A0833D294CF
:1031F0004002C2947905D9FEC294DAF1DBEBEE60AD
:0432000002D2AF2225
:1032040020F71430F6148883A88220F507E6A883F3
:1032140075830022E280F7E49322E022C05F858177
:103224005FAE82E583FF33E433FD6009C3E49EFBB4
:10323400E49FFC80048E038F04E55F24FCF808E619
:1032440033E433FF600FE55F24FCF8C3E496FA0827
:10325400E496FE800AE55F24FCF88602088606C030
:1032640007C005C002C0068B828C83123296AC82E2
:10327400AE8315811581D005D007EF6D600DC3E4D1
:103284009CFDE49EFF8D828F8380048C828E83D08C
:103294005F22C05F85815FAE82AF837C007D007B4F
:1032A40010EF235401FAEE2EFEEF33FFEC2CFCED6D
:1032B40033FDEA6003430401E55F24FCF8C3EC96A4
:1032C400ED08964010E55F24FCF8ECC396FCED088D
:1032D40096FD430601DBCA8E828F83D05F227582FE
:0232E4000022C6
:1032E600120110010000000862524B4E010001025B
:1032F600030109024900020100806409040000027A
:103306000301010009211001210122E000070581C6
:10331600030900010705010309000A090401000267
:103326000300000009211001000122220007058286
:10333600032000140705020320001405010906A155
:10334600018501050719E029E7150025019508758E
:1033560001810295017508810395067508150026F9
:10336600FF000507190029E781000508190129054D
:1033760015002501950575019102950175039103C7
:10338600C005010980A101850219012AB7001501AE
:1033960026B700950175108100C0050C0901A10131
:1033A600850319012AA002150126A00295017510B0
:1033B6008100C005010902A1010901A100850405DA
:1033C60009190129081500250195087501810205CD
:1033D600010930093109381581257F750895038162
:1033E60006C0C00501090EA1018505050D0921A12B
:1033F60000050909019501750115002501810205E0
:103406000109379501750F550F651436F0F1461011
:103416000E16F0F126100E8106C0C00660FF096187
:10342600A1010962150026FF00952075088106098D
:1034360063150026FF00952075089183C0040309D3
:10344600041A034300480035003500780051004D4A
:10345600004B004C006900740065004E004B006E86
:10346600006F0062000C034E004B006E006F00629E
:103476000052006F00620069007400040352006F7E
:073486000062006900740000
:06348D00A800A900AA003E
:1034930068D169D26AD36BCD6CCE6DCF6ED06FD944
:0234A30070DADD
:1034A500202100FF0100010000FFFF0000010001D5
:0234B500FF0016
:0134B7000B09
:0834B800007D007D0000000012
:1034C000000000007E0F00D4FFFFFFC7000000785F
:1034D00000000000000000000000000000000000EC
:1034E00000000000000000000000000000000000DC
:1034F00000000000000000002A2B2800000000004F
:103500000000000000000000000000290000000092
:103510002C1E3420212224342627252E362D373800
:10352000271E1F202122232425263333362E373809
:103530001F0405060708090A0B0C0D0E0F101112C7
:10354000131415161718191A1B1C1D2F3130232D93
:10355000350405060708090A0B0C0D0E0F10111291
:10356000131415161718191A1B1C1D2F3130354C42
:10357000A8E200A9E900AAEA00ABB500ACB600BB1E
:10358000B300BCB400ADB700B0CC00AECD00AF838B
:1035900001B18A01B29201B39401BF9F01C0CB0176
:1035A000B42102B52302B62402B72502B82602B917
:1035B0002702BD6F00BE7000BA2A02C19F02C2A0DE
:0135C0000208
:1035C10000000000000000000000000000000001F9
:1035D10000000000000000000000000000000304E3
:1035E10000000200000000000101010101010101D0
:1035F10000000202020202020202000003030303AE
:10360100030303030000040404040404040400008D
:10361100010204081020408000000102040810206B
:1036210040800000010204081020408000000102D7
:103631000408102040800000FFFFFFFFFFFFFFFF95
:10364100FFFFFF00FFFF0102FFFFFFFFFFFFFFFF83
:10365100FFFFFFFFFFFFFFFF03FFFFFFFFFFFFFF75
:023661006B2CD0
:013663000066
:013664000065
:013665000064
:043666000000000060
:02366A0000005E
:00000001FF
